{
  "contractName": "Interest",
  "abi": [
    {
      "constant": true,
      "inputs": [],
      "name": "interest",
      "outputs": [
        {
          "name": "allInterest",
          "type": "int256"
        },
        {
          "name": "fee",
          "type": "int256"
        }
      ],
      "payable": false,
      "stateMutability": "view",
      "type": "function",
      "signature": "0xc392f766"
    },
    {
      "inputs": [],
      "payable": false,
      "stateMutability": "nonpayable",
      "type": "constructor",
      "signature": "constructor"
    },
    {
      "constant": true,
      "inputs": [],
      "name": "getNetInterest",
      "outputs": [
        {
          "name": "",
          "type": "int256"
        }
      ],
      "payable": false,
      "stateMutability": "view",
      "type": "function",
      "signature": "0xdca6895a"
    },
    {
      "constant": false,
      "inputs": [
        {
          "name": "_interest",
          "type": "int256"
        },
        {
          "name": "_fee",
          "type": "int256"
        }
      ],
      "name": "setAllInterest",
      "outputs": [],
      "payable": false,
      "stateMutability": "nonpayable",
      "type": "function",
      "signature": "0x7cc3e915"
    }
  ],
  "bytecode": "0x608060405234801561001057600080fd5b50600a60008001819055506002600060010181905550610165806100356000396000f3fe608060405260043610610057576000357c0100000000000000000000000000000000000000000000000000000000900463ffffffff1680637cc3e9151461005c578063c392f766146100a1578063dca6895a146100d3575b600080fd5b34801561006857600080fd5b5061009f6004803603604081101561007f57600080fd5b8101908080359060200190929190803590602001909291905050506100fe565b005b3480156100ad57600080fd5b506100b6610115565b604051808381526020018281526020019250505060405180910390f35b3480156100df57600080fd5b506100e8610127565b6040518082815260200191505060405180910390f35b816000800181905550806000600101819055505050565b60008060000154908060010154905082565b6000806001015460008001540390509056fea165627a7a723058209a358da0ca2fd5606ebdd08a444bf74ee9d2be0fa2b7ebb6c1f1aa792e0a2a350029",
  "source": "pragma solidity >=0.4.25 <0.7.0;\r\n\r\ncontract Interest {\r\n    struct InterestStruct {\r\n        int256 allInterest;\r\n        int256 fee;\r\n    }\r\n\r\n    InterestStruct public interest;\r\n\r\n    constructor() public {\r\n        interest.allInterest = 10;\r\n        interest.fee = 2;\r\n    }\r\n    function getNetInterest() public view returns (int256) {\r\n        return (interest.allInterest - interest.fee);\r\n    }\r\n    function setAllInterest(int256 _interest, int256 _fee) public {\r\n        interest.allInterest = _interest;\r\n        interest.fee = _fee;\r\n    }\r\n\r\n}\r\n",
  "sourcePath": "D:/work/P2P_lending/blockchain/contracts/Interest.sol",
  "compiler": {
    "name": "solc",
    "version": "0.5.0+commit.1d4f565a.Emscripten.clang"
  },
  "schemaVersion": "3.0.1",
  "updatedAt": "2020-03-29T16:58:44.372Z",
  "devdoc": {
    "methods": {}
  },
  "userdoc": {
    "methods": {}
  }
}