{
  "contractName": "Interest",
  "abi": [
    {
      "constant": true,
      "inputs": [],
      "name": "interest",
      "outputs": [
        {
          "name": "allInterest",
          "type": "int256"
        },
        {
          "name": "fee",
          "type": "int256"
        }
      ],
      "payable": false,
      "stateMutability": "view",
      "type": "function",
      "signature": "0xc392f766"
    },
    {
      "constant": true,
      "inputs": [],
      "name": "getNetInterest",
      "outputs": [
        {
          "name": "",
          "type": "int256"
        }
      ],
      "payable": false,
      "stateMutability": "view",
      "type": "function",
      "signature": "0xdca6895a"
    },
    {
      "constant": false,
      "inputs": [
        {
          "name": "_interest",
          "type": "int256"
        }
      ],
      "name": "setAllInterest",
      "outputs": [],
      "payable": false,
      "stateMutability": "nonpayable",
      "type": "function",
      "signature": "0xa1128f3e"
    },
    {
      "constant": false,
      "inputs": [
        {
          "name": "_fee",
          "type": "int256"
        }
      ],
      "name": "setFee",
      "outputs": [],
      "payable": false,
      "stateMutability": "nonpayable",
      "type": "function",
      "signature": "0x5533c63f"
    }
  ],
  "bytecode": "0x608060405234801561001057600080fd5b506101a3806100206000396000f3fe608060405260043610610062576000357c0100000000000000000000000000000000000000000000000000000000900463ffffffff1680635533c63f14610067578063a1128f3e146100a2578063c392f766146100dd578063dca6895a1461010f575b600080fd5b34801561007357600080fd5b506100a06004803603602081101561008a57600080fd5b810190808035906020019092919050505061013a565b005b3480156100ae57600080fd5b506100db600480360360208110156100c557600080fd5b8101908080359060200190929190505050610147565b005b3480156100e957600080fd5b506100f2610153565b604051808381526020018281526020019250505060405180910390f35b34801561011b57600080fd5b50610124610165565b6040518082815260200191505060405180910390f35b8060006001018190555050565b80600080018190555050565b60008060000154908060010154905082565b6000806001015460008001540390509056fea165627a7a723058208aa39bbf30279f39e36e4d64590cb9795801cfbfb531ad76c498f52dc80acecb0029",
  "source": "pragma solidity >=0.4.25 <0.7.0;\r\n\r\ncontract Interest {\r\n    struct InterestStruct {\r\n        int256 allInterest;\r\n        int256 fee;\r\n    }\r\n\r\n    InterestStruct public interest;\r\n\r\n    function getNetInterest() public view returns (int256) {\r\n        return (interest.allInterest - interest.fee);\r\n    }\r\n    function setAllInterest(int256 _interest) public {\r\n        interest.allInterest = _interest;\r\n    }\r\n    function setFee(int256 _fee) public {\r\n        interest.fee = _fee;\r\n    }\r\n\r\n}\r\n",
  "sourcePath": "D:/work/P2P_lending/blockchain/contracts/Interest.sol",
  "compiler": {
    "name": "solc",
    "version": "0.5.0+commit.1d4f565a.Emscripten.clang"
  },
  "schemaVersion": "3.0.1",
  "updatedAt": "2020-03-12T14:04:35.223Z",
  "devdoc": {
    "methods": {}
  },
  "userdoc": {
    "methods": {}
  }
}