{
  "contractName": "Lending",
  "abi": [
    {
      "constant": true,
      "inputs": [],
      "name": "lending",
      "outputs": [
        {
          "name": "id",
          "type": "int256"
        },
        {
          "name": "amount",
          "type": "int256"
        },
        {
          "name": "interest",
          "type": "int256"
        }
      ],
      "payable": false,
      "stateMutability": "view",
      "type": "function"
    }
  ],
  "bytecode": "0x608060405234801561001057600080fd5b5060be8061001f6000396000f3fe608060405260043610603f576000357c0100000000000000000000000000000000000000000000000000000000900463ffffffff16806395e97eee146044575b600080fd5b348015604f57600080fd5b506056607a565b60405180848152602001838152602001828152602001935050505060405180910390f35b6000806000015490806001015490806002015490508356fea165627a7a72305820d5b7337e317b4a6b8adaf1a1ee4e26d001889ae415278e70e4ff4729954d43190029",
  "source": "pragma solidity >=0.4.25 <0.7.0;\r\n\r\ncontract Lending {\r\n    struct ContractStruct {\r\n        string date;\r\n        int256 amount;\r\n        bool isPaid;\r\n        string evidence;\r\n    }\r\n    struct LendingStruct {\r\n        int256 id;\r\n        int256 amount;\r\n        int256 interest;\r\n        // list รายการที่ยังไม่จ่าย\r\n        // list รายการเดือนที่จ่ายแล้ว\r\n    }\r\n\r\n    LendingStruct public lending;\r\n\r\n    // function getContract() public view returns (int256) {\r\n    //     return (lending.alllending - lending.fee);\r\n    // }\r\n    // function setAlllending(int256 _lending) public {\r\n    //     lending.alllending = _lending;\r\n    // }\r\n    // function setFee(int256 _fee) public {\r\n    //     lending.fee = _fee;\r\n    // }\r\n\r\n}\r\n",
  "sourcePath": "D:/work/P2P_lending/blockchain/contracts/Lending.sol",
  "compiler": {
    "name": "solc",
    "version": "0.5.0+commit.1d4f565a.Emscripten.clang"
  },
  "schemaVersion": "3.0.1",
  "updatedAt": "2020-03-12T12:04:29.032Z",
  "devdoc": {
    "methods": {}
  },
  "userdoc": {
    "methods": {}
  }
}