{
  "contractName": "Manner",
  "abi": [
    {
      "constant": true,
      "inputs": [],
      "name": "user",
      "outputs": [
        {
          "name": "score",
          "type": "int256"
        },
        {
          "name": "id",
          "type": "int256"
        },
        {
          "name": "firstname",
          "type": "string"
        },
        {
          "name": "lastname",
          "type": "string"
        },
        {
          "name": "state",
          "type": "string"
        }
      ],
      "payable": false,
      "stateMutability": "view",
      "type": "function"
    },
    {
      "inputs": [
        {
          "name": "id",
          "type": "int256"
        },
        {
          "name": "firstname",
          "type": "string"
        },
        {
          "name": "lastname",
          "type": "string"
        }
      ],
      "payable": false,
      "stateMutability": "nonpayable",
      "type": "constructor"
    },
    {
      "constant": false,
      "inputs": [
        {
          "name": "_state",
          "type": "string"
        }
      ],
      "name": "setScore",
      "outputs": [
        {
          "name": "",
          "type": "string"
        }
      ],
      "payable": false,
      "stateMutability": "nonpayable",
      "type": "function"
    },
    {
      "constant": false,
      "inputs": [],
      "name": "checkBan",
      "outputs": [],
      "payable": false,
      "stateMutability": "nonpayable",
      "type": "function"
    }
  ],
  "bytecode": "0x608060405234801561001057600080fd5b50604051610bbc380380610bbc8339810180604052606081101561003357600080fd5b8101908080519060200190929190805164010000000081111561005557600080fd5b8281019050602081018481111561006b57600080fd5b815185600182028301116401000000008211171561008857600080fd5b505092919060200180516401000000008111156100a457600080fd5b828101905060208101848111156100ba57600080fd5b81518560018202830111640100000000821117156100d757600080fd5b505092919050505060646000800181905550816000600201908051906020019061010292919061017e565b50806000600301908051906020019061011c92919061017e565b50826000600101819055506040805190810160405280600681526020017f4e4f524d414c00000000000000000000000000000000000000000000000000008152506000600401908051906020019061017592919061017e565b50505050610223565b828054600181600116156101000203166002900490600052602060002090601f016020900481019282601f106101bf57805160ff19168380011785556101ed565b828001600101855582156101ed579182015b828111156101ec5782518255916020019190600101906101d1565b5b5090506101fa91906101fe565b5090565b61022091905b8082111561021c576000816000905550600101610204565b5090565b90565b61098a806102326000396000f3fe608060405260043610610057576000357c0100000000000000000000000000000000000000000000000000000000900463ffffffff16806311e9739f1461005c5780634f8632ba146100735780637858eb7b146101e9575b600080fd5b34801561006857600080fd5b5061007161032a565b005b34801561007f57600080fd5b50610088610389565b60405180868152602001858152602001806020018060200180602001848103845287818151815260200191508051906020019080838360005b838110156100dc5780820151818401526020810190506100c1565b50505050905090810190601f1680156101095780820380516001836020036101000a031916815260200191505b50848103835286818151815260200191508051906020019080838360005b83811015610142578082015181840152602081019050610127565b50505050905090810190601f16801561016f5780820380516001836020036101000a031916815260200191505b50848103825285818151815260200191508051906020019080838360005b838110156101a857808201518184015260208101905061018d565b50505050905090810190601f1680156101d55780820380516001836020036101000a031916815260200191505b509850505050505050505060405180910390f35b3480156101f557600080fd5b506102af6004803603602081101561020c57600080fd5b810190808035906020019064010000000081111561022957600080fd5b82018360208201111561023b57600080fd5b8035906020019184600183028401116401000000008311171561025d57600080fd5b91908080601f016020809104026020016040519081016040528093929190818152602001838380828437600081840152601f19601f820116905080830192505050505050509192919290505050610575565b6040518080602001828103825283818151815260200191508051906020019080838360005b838110156102ef5780820151818401526020810190506102d4565b50505050905090810190601f16801561031c5780820380516001836020036101000a031916815260200191505b509250505060405180910390f35b600080600001541415610387576040805190810160405280600681526020017f42414e4e45440000000000000000000000000000000000000000000000000000815250600060040190805190602001906103859291906108b9565b505b565b6000806000015490806001015490806002018054600181600116156101000203166002900480601f01602080910402602001604051908101604052809291908181526020018280546001816001161561010002031660029004801561042f5780601f106104045761010080835404028352916020019161042f565b820191906000526020600020905b81548152906001019060200180831161041257829003601f168201915b505050505090806003018054600181600116156101000203166002900480601f0160208091040260200160405190810160405280929190818152602001828054600181600116156101000203166002900480156104cd5780601f106104a2576101008083540402835291602001916104cd565b820191906000526020600020905b8154815290600101906020018083116104b057829003601f168201915b505050505090806004018054600181600116156101000203166002900480601f01602080910402602001604051908101604052809291908181526020018280546001816001161561010002031660029004801561056b5780601f106105405761010080835404028352916020019161056b565b820191906000526020600020905b81548152906001019060200180831161054e57829003601f168201915b5050505050905085565b606060405180807f4c454e44494e470000000000000000000000000000000000000000000000000081525060070190506040518091039020826040516020018082805190602001908083835b6020831015156105e657805182526020820191506020810190506020830392506105c1565b6001836020036101000a03801982511681845116808217855250505050505090500191505060405160208183030381529060405280519060200120141561063f576005600080016000828254019250508190555061087f565b60405180807f424f52524f5745525f4e4f545f4143434550540000000000000000000000000081525060130190506040518091039020826040516020018082805190602001908083835b6020831015156106ae5780518252602082019150602081019050602083039250610689565b6001836020036101000a03801982511681845116808217855250505050505090500191505060405160208183030381529060405280519060200120148061079c575060405180807f52454a454354454400000000000000000000000000000000000000000000000081525060080190506040518091039020826040516020018082805190602001908083835b60208310151561075f578051825260208201915060208101905060208303925061073a565b6001836020036101000a03801982511681845116808217855250505050505090500191505060405160208183030381529060405280519060200120145b156107b9576014600080016000828254039250508190555061087e565b60405180807f4c454e44494e475f4c4154450000000000000000000000000000000000000000815250600c0190506040518091039020826040516020018082805190602001908083835b6020831015156108285780518252602082019150602081019050602083039250610803565b6001836020036101000a03801982511681845116808217855250505050505090500191505060405160208183030381529060405280519060200120141561087d57600a60008001600082825403925050819055505b5b5b60646000800154131561089b57606460008001819055506108b4565b6000806000015412156108b357600080600001819055505b5b919050565b828054600181600116156101000203166002900490600052602060002090601f016020900481019282601f106108fa57805160ff1916838001178555610928565b82800160010185558215610928579182015b8281111561092757825182559160200191906001019061090c565b5b5090506109359190610939565b5090565b61095b91905b8082111561095757600081600090555060010161093f565b5090565b9056fea165627a7a72305820a19e1fd0754628ddb526b2345a40eac7e38b497a39f029866a097104d375e6990029",
  "source": "pragma solidity >=0.4.25 <0.7.0;\r\ncontract Manner {\r\n    struct User {\r\n        int256 score;\r\n        int256 id;\r\n        string firstname;\r\n        string lastname;\r\n        string state;\r\n    }\r\n\r\n    User public user;\r\n    constructor(int256 id, string memory firstname, string memory lastname)\r\n        public\r\n    {\r\n        user.score = 100;\r\n        user.firstname = firstname;\r\n        user.lastname = lastname;\r\n        user.id = id;\r\n        user.state = \"NORMAL\";\r\n    }\r\n    function setScore(string memory _state) public returns (string memory) {\r\n        if (keccak256(abi.encodePacked(_state)) == keccak256(\"LENDING\")) {\r\n            user.score += 5;\r\n        } else if (\r\n            keccak256(abi.encodePacked(_state)) ==\r\n            keccak256(\"BORROWER_NOT_ACCEPT\") ||\r\n            keccak256(abi.encodePacked(_state)) == keccak256(\"REJECTED\")\r\n        ) {\r\n            user.score -= 20;\r\n        } else if (\r\n            keccak256(abi.encodePacked(_state)) == keccak256(\"LENDING_LATE\")\r\n        ) {\r\n            user.score -= 10;\r\n        }\r\n        if (user.score > 100) {\r\n            user.score = 100;\r\n        } else if (user.score < 0) {\r\n            user.score = 0;\r\n        }\r\n    }\r\n    function checkBan() public {\r\n        if (user.score == 0) {\r\n            user.state = \"BANNED\";\r\n        }\r\n    }\r\n\r\n}\r\n",
  "sourcePath": "D:\\work\\P2P_lending\\blockchain\\contracts\\Manner.sol",
  "compiler": {
    "name": "solc",
    "version": "0.5.0+commit.1d4f565a.Emscripten.clang"
  },
  "schemaVersion": "3.0.1",
  "updatedAt": "2020-03-21T17:32:08.369Z",
  "devdoc": {
    "methods": {}
  },
  "userdoc": {
    "methods": {}
  }
}