{
  "contractName": "Manner",
  "abi": [
    {
      "constant": true,
      "inputs": [],
      "name": "user",
      "outputs": [
        {
          "name": "score",
          "type": "int256"
        },
        {
          "name": "id",
          "type": "int256"
        },
        {
          "name": "firstname",
          "type": "string"
        },
        {
          "name": "lastname",
          "type": "string"
        },
        {
          "name": "state",
          "type": "string"
        },
        {
          "name": "amoutOfRequest",
          "type": "uint256"
        }
      ],
      "payable": false,
      "stateMutability": "view",
      "type": "function"
    },
    {
      "inputs": [
        {
          "name": "id",
          "type": "int256"
        },
        {
          "name": "firstname",
          "type": "string"
        },
        {
          "name": "lastname",
          "type": "string"
        }
      ],
      "payable": false,
      "stateMutability": "nonpayable",
      "type": "constructor"
    },
    {
      "constant": false,
      "inputs": [
        {
          "name": "_state",
          "type": "string"
        }
      ],
      "name": "setScore",
      "outputs": [
        {
          "name": "",
          "type": "string"
        }
      ],
      "payable": false,
      "stateMutability": "nonpayable",
      "type": "function"
    },
    {
      "constant": false,
      "inputs": [],
      "name": "checkBan",
      "outputs": [],
      "payable": false,
      "stateMutability": "nonpayable",
      "type": "function"
    }
  ],
  "bytecode": "0x608060405234801561001057600080fd5b5060405162000bcc38038062000bcc8339810180604052606081101561003557600080fd5b8101908080519060200190929190805164010000000081111561005757600080fd5b8281019050602081018481111561006d57600080fd5b815185600182028301116401000000008211171561008a57600080fd5b505092919060200180516401000000008111156100a657600080fd5b828101905060208101848111156100bc57600080fd5b81518560018202830111640100000000821117156100d957600080fd5b5050929190505050606460008001819055508160006002019080519060200190610104929190610180565b50806000600301908051906020019061011e929190610180565b50826000600101819055506040805190810160405280600681526020017f4e4f524d414c000000000000000000000000000000000000000000000000000081525060006004019080519060200190610177929190610180565b50505050610225565b828054600181600116156101000203166002900490600052602060002090601f016020900481019282601f106101c157805160ff19168380011785556101ef565b828001600101855582156101ef579182015b828111156101ee5782518255916020019190600101906101d3565b5b5090506101fc9190610200565b5090565b61022291905b8082111561021e576000816000905550600101610206565b5090565b90565b61099780620002356000396000f3fe608060405260043610610057576000357c0100000000000000000000000000000000000000000000000000000000900463ffffffff16806311e9739f1461005c5780634f8632ba146100735780637858eb7b146101f0575b600080fd5b34801561006857600080fd5b50610071610331565b005b34801561007f57600080fd5b50610088610390565b60405180878152602001868152602001806020018060200180602001858152602001848103845288818151815260200191508051906020019080838360005b838110156100e25780820151818401526020810190506100c7565b50505050905090810190601f16801561010f5780820380516001836020036101000a031916815260200191505b50848103835287818151815260200191508051906020019080838360005b8381101561014857808201518184015260208101905061012d565b50505050905090810190601f1680156101755780820380516001836020036101000a031916815260200191505b50848103825286818151815260200191508051906020019080838360005b838110156101ae578082015181840152602081019050610193565b50505050905090810190601f1680156101db5780820380516001836020036101000a031916815260200191505b50995050505050505050505060405180910390f35b3480156101fc57600080fd5b506102b66004803603602081101561021357600080fd5b810190808035906020019064010000000081111561023057600080fd5b82018360208201111561024257600080fd5b8035906020019184600183028401116401000000008311171561026457600080fd5b91908080601f016020809104026020016040519081016040528093929190818152602001838380828437600081840152601f19601f820116905080830192505050505050509192919290505050610582565b6040518080602001828103825283818151815260200191508051906020019080838360005b838110156102f65780820151818401526020810190506102db565b50505050905090810190601f1680156103235780820380516001836020036101000a031916815260200191505b509250505060405180910390f35b60008060000154141561038e576040805190810160405280600681526020017f42414e4e454400000000000000000000000000000000000000000000000000008152506000600401908051906020019061038c9291906108c6565b505b565b6000806000015490806001015490806002018054600181600116156101000203166002900480601f0160208091040260200160405190810160405280929190818152602001828054600181600116156101000203166002900480156104365780601f1061040b57610100808354040283529160200191610436565b820191906000526020600020905b81548152906001019060200180831161041957829003601f168201915b505050505090806003018054600181600116156101000203166002900480601f0160208091040260200160405190810160405280929190818152602001828054600181600116156101000203166002900480156104d45780601f106104a9576101008083540402835291602001916104d4565b820191906000526020600020905b8154815290600101906020018083116104b757829003601f168201915b505050505090806004018054600181600116156101000203166002900480601f0160208091040260200160405190810160405280929190818152602001828054600181600116156101000203166002900480156105725780601f1061054757610100808354040283529160200191610572565b820191906000526020600020905b81548152906001019060200180831161055557829003601f168201915b5050505050908060050154905086565b606060405180807f4c454e44494e470000000000000000000000000000000000000000000000000081525060070190506040518091039020826040516020018082805190602001908083835b6020831015156105f357805182526020820191506020810190506020830392506105ce565b6001836020036101000a03801982511681845116808217855250505050505090500191505060405160208183030381529060405280519060200120141561064c576005600080016000828254019250508190555061088c565b60405180807f424f52524f5745525f4e4f545f4143434550540000000000000000000000000081525060130190506040518091039020826040516020018082805190602001908083835b6020831015156106bb5780518252602082019150602081019050602083039250610696565b6001836020036101000a0380198251168184511680821785525050505050509050019150506040516020818303038152906040528051906020012014806107a9575060405180807f52454a454354454400000000000000000000000000000000000000000000000081525060080190506040518091039020826040516020018082805190602001908083835b60208310151561076c5780518252602082019150602081019050602083039250610747565b6001836020036101000a03801982511681845116808217855250505050505090500191505060405160208183030381529060405280519060200120145b156107c6576014600080016000828254039250508190555061088b565b60405180807f4c454e44494e475f4c4154450000000000000000000000000000000000000000815250600c0190506040518091039020826040516020018082805190602001908083835b6020831015156108355780518252602082019150602081019050602083039250610810565b6001836020036101000a03801982511681845116808217855250505050505090500191505060405160208183030381529060405280519060200120141561088a57600a60008001600082825403925050819055505b5b5b6064600080015413156108a857606460008001819055506108c1565b6000806000015412156108c057600080600001819055505b5b919050565b828054600181600116156101000203166002900490600052602060002090601f016020900481019282601f1061090757805160ff1916838001178555610935565b82800160010185558215610935579182015b82811115610934578251825591602001919060010190610919565b5b5090506109429190610946565b5090565b61096891905b8082111561096457600081600090555060010161094c565b5090565b9056fea165627a7a72305820ee5877973e4eed0ff1dc961b0fd6d225de96101b6d56970e8daec6e3d69f245f0029",
  "source": "pragma solidity >=0.4.25 <0.7.0;\r\ncontract Manner {\r\n    struct User {\r\n        int256 score;\r\n        int256 id;\r\n        string firstname;\r\n        string lastname;\r\n        string state;\r\n        uint amoutOfRequest;\r\n    }\r\n\r\n    User public user;\r\n    constructor(int256 id, string memory firstname, string memory lastname)\r\n        public\r\n    {\r\n        user.score = 100;\r\n        user.firstname = firstname;\r\n        user.lastname = lastname;\r\n        user.id = id;\r\n        user.state = \"NORMAL\";\r\n    }\r\n    function setScore(string memory _state) public returns (string memory) {\r\n        if (keccak256(abi.encodePacked(_state)) == keccak256(\"LENDING\")) {\r\n            user.score += 5;\r\n        } else if (\r\n            keccak256(abi.encodePacked(_state)) ==\r\n            keccak256(\"BORROWER_NOT_ACCEPT\") ||\r\n            keccak256(abi.encodePacked(_state)) == keccak256(\"REJECTED\")\r\n        ) {\r\n            user.score -= 20;\r\n        } else if (\r\n            keccak256(abi.encodePacked(_state)) == keccak256(\"LENDING_LATE\")\r\n        ) {\r\n            user.score -= 10;\r\n        }\r\n        if (user.score > 100) {\r\n            user.score = 100;\r\n        } else if (user.score < 0) {\r\n            user.score = 0;\r\n        }\r\n    }\r\n    function checkBan() public {\r\n        if (user.score == 0) {\r\n            user.state = \"BANNED\";\r\n        }\r\n    }\r\n\r\n}\r\n",
  "sourcePath": "D:\\work\\P2P_lending\\blockchain\\contracts\\Manner.sol",
  "compiler": {
    "name": "solc",
    "version": "0.5.0+commit.1d4f565a.Emscripten.clang"
  },
  "schemaVersion": "3.0.1",
  "updatedAt": "2020-03-19T19:26:27.494Z",
  "devdoc": {
    "methods": {}
  },
  "userdoc": {
    "methods": {}
  }
}