{
  "contractName": "Lending",
  "abi": [
    {
      "constant": true,
      "inputs": [
        {
          "name": "",
          "type": "uint256"
        }
      ],
      "name": "contractList",
      "outputs": [
        {
          "name": "date",
          "type": "uint256"
        },
        {
          "name": "amount",
          "type": "uint256"
        },
        {
          "name": "isPaid",
          "type": "bool"
        },
        {
          "name": "evidence",
          "type": "string"
        },
        {
          "name": "paidDate",
          "type": "uint256"
        }
      ],
      "payable": false,
      "stateMutability": "view",
      "type": "function"
    },
    {
      "constant": true,
      "inputs": [],
      "name": "borrower",
      "outputs": [
        {
          "name": "id",
          "type": "int256"
        },
        {
          "name": "manner",
          "type": "address"
        },
        {
          "name": "withdrawn",
          "type": "bool"
        },
        {
          "name": "evidence",
          "type": "string"
        }
      ],
      "payable": false,
      "stateMutability": "view",
      "type": "function"
    },
    {
      "constant": true,
      "inputs": [],
      "name": "id",
      "outputs": [
        {
          "name": "",
          "type": "uint256"
        }
      ],
      "payable": false,
      "stateMutability": "view",
      "type": "function"
    },
    {
      "constant": true,
      "inputs": [],
      "name": "lender",
      "outputs": [
        {
          "name": "id",
          "type": "int256"
        },
        {
          "name": "manner",
          "type": "address"
        },
        {
          "name": "withdrawn",
          "type": "bool"
        },
        {
          "name": "evidence",
          "type": "string"
        }
      ],
      "payable": false,
      "stateMutability": "view",
      "type": "function"
    },
    {
      "constant": true,
      "inputs": [],
      "name": "state",
      "outputs": [
        {
          "name": "",
          "type": "string"
        }
      ],
      "payable": false,
      "stateMutability": "view",
      "type": "function"
    },
    {
      "constant": true,
      "inputs": [],
      "name": "lenderContract",
      "outputs": [
        {
          "name": "fee",
          "type": "int256"
        },
        {
          "name": "amount",
          "type": "int256"
        }
      ],
      "payable": false,
      "stateMutability": "view",
      "type": "function"
    },
    {
      "inputs": [
        {
          "name": "_id",
          "type": "uint256"
        },
        {
          "name": "dateList",
          "type": "uint256[]"
        },
        {
          "name": "amount",
          "type": "uint256"
        },
        {
          "name": "_borrowerId",
          "type": "int256"
        },
        {
          "name": "borrowerAddress",
          "type": "address"
        },
        {
          "name": "_lenderId",
          "type": "int256"
        },
        {
          "name": "lenderAddress",
          "type": "address"
        }
      ],
      "payable": false,
      "stateMutability": "nonpayable",
      "type": "constructor"
    },
    {
      "constant": true,
      "inputs": [],
      "name": "getCurrentTenor",
      "outputs": [
        {
          "name": "",
          "type": "uint256"
        }
      ],
      "payable": false,
      "stateMutability": "view",
      "type": "function"
    },
    {
      "constant": false,
      "inputs": [
        {
          "name": "_currentTime",
          "type": "uint256"
        }
      ],
      "name": "setBorrowerScore",
      "outputs": [],
      "payable": false,
      "stateMutability": "nonpayable",
      "type": "function"
    },
    {
      "constant": true,
      "inputs": [],
      "name": "getBorrowerDetail",
      "outputs": [
        {
          "name": "",
          "type": "int256"
        },
        {
          "name": "",
          "type": "int256"
        },
        {
          "name": "",
          "type": "string"
        },
        {
          "name": "",
          "type": "string"
        },
        {
          "name": "",
          "type": "string"
        }
      ],
      "payable": false,
      "stateMutability": "view",
      "type": "function"
    },
    {
      "constant": true,
      "inputs": [],
      "name": "getLenderDetail",
      "outputs": [
        {
          "name": "",
          "type": "int256"
        },
        {
          "name": "",
          "type": "int256"
        },
        {
          "name": "",
          "type": "string"
        },
        {
          "name": "",
          "type": "string"
        },
        {
          "name": "",
          "type": "string"
        }
      ],
      "payable": false,
      "stateMutability": "view",
      "type": "function"
    },
    {
      "constant": false,
      "inputs": [
        {
          "name": "_evidence",
          "type": "string"
        },
        {
          "name": "_currentTime",
          "type": "uint256"
        }
      ],
      "name": "setEvidenceStamp",
      "outputs": [
        {
          "name": "",
          "type": "string"
        }
      ],
      "payable": false,
      "stateMutability": "nonpayable",
      "type": "function"
    },
    {
      "constant": false,
      "inputs": [],
      "name": "startNormalLending",
      "outputs": [],
      "payable": false,
      "stateMutability": "nonpayable",
      "type": "function"
    },
    {
      "constant": false,
      "inputs": [
        {
          "name": "evidence",
          "type": "string"
        }
      ],
      "name": "startLending",
      "outputs": [],
      "payable": false,
      "stateMutability": "nonpayable",
      "type": "function"
    },
    {
      "constant": false,
      "inputs": [
        {
          "name": "evidence",
          "type": "string"
        }
      ],
      "name": "finishLending",
      "outputs": [],
      "payable": false,
      "stateMutability": "nonpayable",
      "type": "function"
    },
    {
      "constant": false,
      "inputs": [
        {
          "name": "_currentTime",
          "type": "uint256"
        }
      ],
      "name": "checkOvertimeLending",
      "outputs": [
        {
          "name": "",
          "type": "string"
        }
      ],
      "payable": false,
      "stateMutability": "nonpayable",
      "type": "function"
    }
  ],
  "bytecode": "0x608060405273d0ee9f1b0580897fdb42e3fd14361d89441cf938600c60006101000a81548173ffffffffffffffffffffffffffffffffffffffff021916908373ffffffffffffffffffffffffffffffffffffffff1602179055503480156200006657600080fd5b50604051620025643803806200256483398101806040526200008c9190810190620006d9565b60008090505b8651811015620001715760a0604051908101604052808883815181101515620000b757fe5b906020019060200201518152602001878152602001600015158152602001602060405190810160405280600081525081526020016000815250600d6000838152602001908152602001600020600082015181600001556020820151816001015560408201518160020160006101000a81548160ff02191690831515021790555060608201518160030190805190602001906200015592919062000491565b5060808201518160040155905050808060010191505062000092565b506080604051908101604052808581526020018473ffffffffffffffffffffffffffffffffffffffff1681526020016000151581526020016020604051908101604052806000815250815250600080820151816000015560208201518160010160006101000a81548173ffffffffffffffffffffffffffffffffffffffff021916908373ffffffffffffffffffffffffffffffffffffffff16021790555060408201518160010160146101000a81548160ff02191690831515021790555060608201518160020190805190602001906200024d92919062000491565b509050506080604051908101604052808381526020018273ffffffffffffffffffffffffffffffffffffffff168152602001600015158152602001602060405190810160405280600081525081525060056000820151816000015560208201518160010160006101000a81548173ffffffffffffffffffffffffffffffffffffffff021916908373ffffffffffffffffffffffffffffffffffffffff16021790555060408201518160010160146101000a81548160ff02191690831515021790555060608201518160020190805190602001906200032d92919062000491565b509050506000600c60009054906101000a900473ffffffffffffffffffffffffffffffffffffffff1673ffffffffffffffffffffffffffffffffffffffff1663c392f7666040518163ffffffff167c0100000000000000000000000000000000000000000000000000000000028152600401604080518083038186803b158015620003b757600080fd5b505afa158015620003cc573d6000803e3d6000fd5b505050506040513d601f19601f82011682018060405250620003f2919081019062000698565b9150506040805190810160405280828152602001885188028152506003600082015181600001556020820151816001015590505087600b8190555086516009819055506040805190810160405280600781526020017f4c454e44494e4700000000000000000000000000000000000000000000000000815250600a90805190602001906200048292919062000518565b5050505050505050506200083e565b828054600181600116156101000203166002900490600052602060002090601f016020900481019282601f10620004d457805160ff191683800117855562000505565b8280016001018555821562000505579182015b8281111562000504578251825591602001919060010190620004e7565b5b5090506200051491906200059f565b5090565b828054600181600116156101000203166002900490600052602060002090601f016020900481019282601f106200055b57805160ff19168380011785556200058c565b828001600101855582156200058c579182015b828111156200058b5782518255916020019190600101906200056e565b5b5090506200059b91906200059f565b5090565b620005c491905b80821115620005c0576000816000905550600101620005a6565b5090565b90565b6000620005d5825162000816565b905092915050565b600082601f8301121515620005f157600080fd5b8151620006086200060282620007cd565b6200079f565b915081818352602084019350602081019050838560208402820111156200062e57600080fd5b60005b8381101562000662578162000647888262000682565b84526020840193506020830192505060018101905062000631565b5050505092915050565b60006200067a82516200082a565b905092915050565b600062000690825162000834565b905092915050565b60008060408385031215620006ac57600080fd5b6000620006bc858286016200066c565b9250506020620006cf858286016200066c565b9150509250929050565b600080600080600080600060e0888a031215620006f557600080fd5b6000620007058a828b0162000682565b975050602088015167ffffffffffffffff8111156200072357600080fd5b620007318a828b01620005dd565b9650506040620007448a828b0162000682565b9550506060620007578a828b016200066c565b94505060806200076a8a828b01620005c7565b93505060a06200077d8a828b016200066c565b92505060c0620007908a828b01620005c7565b91505092959891949750929550565b6000604051905081810181811067ffffffffffffffff82111715620007c357600080fd5b8060405250919050565b600067ffffffffffffffff821115620007e557600080fd5b602082029050602081019050919050565b600073ffffffffffffffffffffffffffffffffffffffff82169050919050565b60006200082382620007f6565b9050919050565b6000819050919050565b6000819050919050565b611d16806200084e6000396000f3fe6080604052600436106100db576000357c0100000000000000000000000000000000000000000000000000000000900463ffffffff16806331719284146100e057806334ae36c11461010957806334ee8406146101345780636a5bb5d81461016357806379ecaecf146101a45780637df1f1b9146101e1578063884ae2321461020f578063af640d0f1461024c578063bcead63e14610277578063bd3c9ff6146102a5578063c19d93fb146102bc578063c3cd54a2146102e7578063cfa967ae14610313578063e1adc7ab14610342578063f1249b1e1461036b575b600080fd5b3480156100ec57600080fd5b5061010760048036036101029190810190611839565b610394565b005b34801561011557600080fd5b5061011e6103cf565b60405161012b9190611b01565b60405180910390f35b34801561014057600080fd5b50610149610431565b60405161015a959493929190611a55565b60405180910390f35b34801561016f57600080fd5b5061018a6004803603610185919081019061190f565b610517565b60405161019b959493929190611b1c565b60405180910390f35b3480156101b057600080fd5b506101cb60048036036101c691908101906118bb565b6105f2565b6040516101d89190611adf565b60405180910390f35b3480156101ed57600080fd5b506101f6610b2f565b60405161020694939291906119e0565b60405180910390f35b34801561021b57600080fd5b506102366004803603610231919081019061190f565b610c12565b6040516102439190611adf565b60405180910390f35b34801561025857600080fd5b50610261610f9d565b60405161026e9190611b01565b60405180910390f35b34801561028357600080fd5b5061028c610fa3565b60405161029c94939291906119e0565b60405180910390f35b3480156102b157600080fd5b506102ba611086565b005b3480156102c857600080fd5b506102d1611245565b6040516102de9190611abd565b60405180910390f35b3480156102f357600080fd5b506102fc6112e3565b60405161030a929190611a2c565b60405180910390f35b34801561031f57600080fd5b506103286112f5565b604051610339959493929190611a55565b60405180910390f35b34801561034e57600080fd5b5061036960048036036103649190810190611839565b6113db565b005b34801561037757600080fd5b50610392600480360361038d919081019061190f565b6114ce565b005b6001600060010160146101000a81548160ff02191690831515021790555080600060020190805190602001906103cb9291906115ab565b5050565b600080600090505b6009548110156104275760001515600d600083815260200190815260200160002060020160009054906101000a900460ff161515141561041a578091505061042e565b80806001019150506103d7565b506103e790505b90565b6000806060806060600560010160009054906101000a900473ffffffffffffffffffffffffffffffffffffffff1673ffffffffffffffffffffffffffffffffffffffff16634f8632ba6040518163ffffffff167c010000000000000000000000000000000000000000000000000000000002815260040160006040518083038186803b1580156104c057600080fd5b505afa1580156104d4573d6000803e3d6000fd5b505050506040513d6000823e3d601f19601f820116820180604052506104fd919081019061177a565b829250819150809050945094509450945094509091929394565b600d6020528060005260406000206000915090508060000154908060010154908060020160009054906101000a900460ff1690806003018054600181600116156101000203166002900480601f0160208091040260200160405190810160405280929190818152602001828054600181600116156101000203166002900480156105e25780601f106105b7576101008083540402835291602001916105e2565b820191906000526020600020905b8154815290600101906020018083116105c557829003601f168201915b5050505050908060040154905085565b606060006105fe6103cf565b905060405180807f535543434553535f4c454e44494e470000000000000000000000000000000000815250600f0190506040518091039020600a60405160200180828054600181600116156101000203166002900480156106965780601f10610674576101008083540402835291820191610696565b820191906000526020600020905b815481529060010190602001808311610682575b505091505060405160208183030381529060405280519060200120148061076b575060405180807f424f52524f5745525f4e4f545f4143434550540000000000000000000000000081525060130190506040518091039020600a604051602001808280546001816001161561010002031660029004801561074e5780601f1061072c57610100808354040283529182019161074e565b820191906000526020600020905b81548152906001019060200180831161073a575b505091505060405160208183030381529060405280519060200120145b80610824575060405180807f52454a454354454400000000000000000000000000000000000000000000000081525060080190506040518091039020600a60405160200180828054600181600116156101000203166002900480156108075780601f106107e5576101008083540402835291820191610807565b820191906000526020600020905b8154815290600101906020018083116107f3575b505091505060405160208183030381529060405280519060200120145b156108cc57600a8054600181600116156101000203166002900480601f0160208091040260200160405190810160405280929190818152602001828054600181600116156101000203166002900480156108bf5780601f10610894576101008083540402835291602001916108bf565b820191906000526020600020905b8154815290600101906020018083116108a257829003601f168201915b5050505050915050610b29565b60095481111515610a8a5783600d600083815260200190815260200160002060030190805190602001906109019291906115ab565b506001600d600083815260200190815260200160002060020160006101000a81548160ff02191690831515021790555082600d6000838152602001908152602001600020600401819055506009546109576103cf565b1115610a4c576040805190810160405280600f81526020017f535543434553535f4c454e44494e470000000000000000000000000000000000815250600a90805190602001906109a89291906115ab565b50600a8054600181600116156101000203166002900480601f016020809104026020016040519081016040528092919081815260200182805460018160011615610100020316600290048015610a3f5780601f10610a1457610100808354040283529160200191610a3f565b820191906000526020600020905b815481529060010190602001808311610a2257829003601f168201915b5050505050915050610b29565b6040805190810160405280600b81526020017f5041595f53554343455353000000000000000000000000000000000000000000815250915050610b29565b600a8054600181600116156101000203166002900480601f016020809104026020016040519081016040528092919081815260200182805460018160011615610100020316600290048015610b205780601f10610af557610100808354040283529160200191610b20565b820191906000526020600020905b815481529060010190602001808311610b0357829003601f168201915b50505050509150505b92915050565b60008060000154908060010160009054906101000a900473ffffffffffffffffffffffffffffffffffffffff16908060010160149054906101000a900460ff1690806002018054600181600116156101000203166002900480601f016020809104026020016040519081016040528092919081815260200182805460018160011615610100020316600290048015610c085780601f10610bdd57610100808354040283529160200191610c08565b820191906000526020600020905b815481529060010190602001808311610beb57829003601f168201915b5050505050905084565b60606000610c1e6103cf565b905060405180807f4c454e44494e470000000000000000000000000000000000000000000000000081525060070190506040518091039020600a6040516020018082805460018160011615610100020316600290048015610cb65780601f10610c94576101008083540402835291820191610cb6565b820191906000526020600020905b815481529060010190602001808311610ca2575b5050915050604051602081830303815290604052805190602001201480610d8b575060405180807f4c454e44494e475f4c4154450000000000000000000000000000000000000000815250600c0190506040518091039020600a6040516020018082805460018160011615610100020316600290048015610d6e5780601f10610d4c576101008083540402835291820191610d6e565b820191906000526020600020905b815481529060010190602001808311610d5a575b505091505060405160208183030381529060405280519060200120145b15610e7c5762093a80600d6000838152602001908152602001600020600001540183101515610e05576040805190810160405280600881526020017f52454a4543544544000000000000000000000000000000000000000000000000815250600a9080519060200190610dff9291906115ab565b50610e77565b62015180600d6000838152602001908152602001600020600001540183101515610e76576040805190810160405280600c81526020017f4c454e44494e475f4c4154450000000000000000000000000000000000000000815250600a9080519060200190610e749291906115ab565b505b5b610efa565b60001515600060010160149054906101000a900460ff1615151415610ef9576203f4806008540183101515610ef8576040805190810160405280601381526020017f424f52524f5745525f4e4f545f41434345505400000000000000000000000000815250600a9080519060200190610ef69291906115ab565b505b5b5b600a8054600181600116156101000203166002900480601f016020809104026020016040519081016040528092919081815260200182805460018160011615610100020316600290048015610f905780601f10610f6557610100808354040283529160200191610f90565b820191906000526020600020905b815481529060010190602001808311610f7357829003601f168201915b5050505050915050919050565b600b5481565b60058060000154908060010160009054906101000a900473ffffffffffffffffffffffffffffffffffffffff16908060010160149054906101000a900460ff1690806002018054600181600116156101000203166002900480601f01602080910402602001604051908101604052809291908181526020018280546001816001161561010002031660029004801561107c5780601f106110515761010080835404028352916020019161107c565b820191906000526020600020905b81548152906001019060200180831161105f57829003601f168201915b5050505050905084565b60405180807f4c454e44494e470000000000000000000000000000000000000000000000000081525060070190506040518091039020600a604051602001808280546001816001161561010002031660029004801561111c5780601f106110fa57610100808354040283529182019161111c565b820191906000526020600020905b815481529060010190602001808311611108575b50509150506040516020818303038152906040528051906020012014806111f1575060405180807f4c454e44494e475f4c4154450000000000000000000000000000000000000000815250600c0190506040518091039020600a60405160200180828054600181600116156101000203166002900480156111d45780601f106111b25761010080835404028352918201916111d4565b820191906000526020600020905b8154815290600101906020018083116111c0575b505091505060405160208183030381529060405280519060200120145b15611243576040805190810160405280600781526020017f4c454e44494e4700000000000000000000000000000000000000000000000000815250600a90805190602001906112419291906115ab565b505b565b600a8054600181600116156101000203166002900480601f0160208091040260200160405190810160405280929190818152602001828054600181600116156101000203166002900480156112db5780601f106112b0576101008083540402835291602001916112db565b820191906000526020600020905b8154815290600101906020018083116112be57829003601f168201915b505050505081565b60038060000154908060010154905082565b6000806060806060600060010160009054906101000a900473ffffffffffffffffffffffffffffffffffffffff1673ffffffffffffffffffffffffffffffffffffffff16634f8632ba6040518163ffffffff167c010000000000000000000000000000000000000000000000000000000002815260040160006040518083038186803b15801561138457600080fd5b505afa158015611398573d6000803e3d6000fd5b505050506040513d6000823e3d601f19601f820116820180604052506113c1919081019061177a565b829250819150809050945094509450945094509091929394565b60405180807f535543434553535f4c454e44494e470000000000000000000000000000000000815250600f0190506040518091039020600a60405160200180828054600181600116156101000203166002900480156114715780601f1061144f576101008083540402835291820191611471565b820191906000526020600020905b81548152906001019060200180831161145d575b50509150506040516020818303038152906040528051906020012014156114cb576001600560010160146101000a81548160ff02191690831515021790555080600560020190805190602001906114c99291906115ab565b505b50565b600060010160009054906101000a900473ffffffffffffffffffffffffffffffffffffffff1673ffffffffffffffffffffffffffffffffffffffff16637858eb7b61151883610c12565b6040518263ffffffff167c01000000000000000000000000000000000000000000000000000000000281526004016115509190611adf565b600060405180830381600087803b15801561156a57600080fd5b505af115801561157e573d6000803e3d6000fd5b505050506040513d6000823e3d601f19601f820116820180604052506115a7919081019061187a565b5050565b828054600181600116156101000203166002900490600052602060002090601f016020900481019282601f106115ec57805160ff191683800117855561161a565b8280016001018555821561161a579182015b828111156116195782518255916020019190600101906115fe565b5b509050611627919061162b565b5090565b61164d91905b80821115611649576000816000905550600101611631565b5090565b90565b600061165c8251611c51565b905092915050565b600082601f830112151561167757600080fd5b815161168a61168582611ba3565b611b76565b915080825260208301602083018583830111156116a657600080fd5b6116b1838284611c98565b50505092915050565b600082601f83011215156116cd57600080fd5b81356116e06116db82611bcf565b611b76565b915080825260208301602083018583830111156116fc57600080fd5b611707838284611c89565b50505092915050565b600082601f830112151561172357600080fd5b815161173661173182611bcf565b611b76565b9150808252602083016020830185838301111561175257600080fd5b61175d838284611c98565b50505092915050565b60006117728235611c5b565b905092915050565b600080600080600060a0868803121561179257600080fd5b60006117a088828901611650565b95505060206117b188828901611650565b945050604086015167ffffffffffffffff8111156117ce57600080fd5b6117da88828901611664565b935050606086015167ffffffffffffffff8111156117f757600080fd5b61180388828901611664565b925050608086015167ffffffffffffffff81111561182057600080fd5b61182c88828901611664565b9150509295509295909350565b60006020828403121561184b57600080fd5b600082013567ffffffffffffffff81111561186557600080fd5b611871848285016116ba565b91505092915050565b60006020828403121561188c57600080fd5b600082015167ffffffffffffffff8111156118a657600080fd5b6118b284828501611710565b91505092915050565b600080604083850312156118ce57600080fd5b600083013567ffffffffffffffff8111156118e857600080fd5b6118f4858286016116ba565b925050602061190585828601611766565b9150509250929050565b60006020828403121561192157600080fd5b600061192f84828501611766565b91505092915050565b61194181611c11565b82525050565b61195081611c65565b82525050565b61195f81611c1d565b82525050565b600061197082611c06565b808452611984816020860160208601611c98565b61198d81611ccb565b602085010191505092915050565b60006119a682611bfb565b8084526119ba816020860160208601611c98565b6119c381611ccb565b602085010191505092915050565b6119da81611c47565b82525050565b60006080820190506119f56000830187611956565b611a026020830186611947565b611a0f6040830185611938565b8181036060830152611a21818461199b565b905095945050505050565b6000604082019050611a416000830185611956565b611a4e6020830184611956565b9392505050565b600060a082019050611a6a6000830188611956565b611a776020830187611956565b8181036040830152611a898186611965565b90508181036060830152611a9d8185611965565b90508181036080830152611ab18184611965565b90509695505050505050565b60006020820190508181036000830152611ad7818461199b565b905092915050565b60006020820190508181036000830152611af98184611965565b905092915050565b6000602082019050611b1660008301846119d1565b92915050565b600060a082019050611b3160008301886119d1565b611b3e60208301876119d1565b611b4b6040830186611938565b8181036060830152611b5d818561199b565b9050611b6c60808301846119d1565b9695505050505050565b6000604051905081810181811067ffffffffffffffff82111715611b9957600080fd5b8060405250919050565b600067ffffffffffffffff821115611bba57600080fd5b601f19601f8301169050602081019050919050565b600067ffffffffffffffff821115611be657600080fd5b601f19601f8301169050602081019050919050565b600081519050919050565b600081519050919050565b60008115159050919050565b6000819050919050565b600073ffffffffffffffffffffffffffffffffffffffff82169050919050565b6000819050919050565b6000819050919050565b6000819050919050565b6000611c7082611c77565b9050919050565b6000611c8282611c27565b9050919050565b82818337600083830152505050565b60005b83811015611cb6578082015181840152602081019050611c9b565b83811115611cc5576000848401525b50505050565b6000601f19601f830116905091905056fea265627a7a723058208b40572e8a2ddcdcbdb64742e4c0396a1f70927dfd4786cb6cfa7091b94156b06c6578706572696d656e74616cf50037",
  "source": "pragma solidity >=0.4.25 <0.7.0;\r\npragma experimental ABIEncoderV2;\r\nimport \"./Manner.sol\";\r\nimport \"./Interest.sol\";\r\n\r\n\r\ncontract Lending {\r\n    struct ContractStruct {\r\n        uint256 date;\r\n        uint256 amount;\r\n        bool isPaid;\r\n        string evidence;\r\n        uint256 paidDate;\r\n    }\r\n    struct UserContractStruct {\r\n        int256 id;\r\n        Manner manner;\r\n        bool withdrawn;\r\n        string evidence;\r\n    }\r\n    struct LenderContract {\r\n        int256 fee;\r\n        int256 amount;\r\n    }\r\n    // Contractdata\r\n    UserContractStruct public borrower;\r\n    LenderContract public lenderContract;\r\n    UserContractStruct public lender;\r\n    uint256 startTime;\r\n    uint256 tenor;\r\n    string public state;\r\n    uint256 public id;\r\n    Interest interest = Interest(0xd0ee9F1B0580897FdB42e3fD14361D89441Cf938);\r\n    mapping(uint256 => ContractStruct) public contractList;\r\n\r\n    //\r\n    constructor(\r\n        uint256 _id,\r\n        uint256[] memory dateList,\r\n        uint256 amount,\r\n        int256 _borrowerId,\r\n        address borrowerAddress,\r\n        int256 _lenderId,\r\n        address lenderAddress\r\n    ) public {\r\n        for (uint256 i = 0; i < dateList.length; i++) {\r\n            contractList[i] = ContractStruct({\r\n                date: dateList[i],\r\n                amount: amount,\r\n                isPaid: false,\r\n                evidence: \"\",\r\n                paidDate: 0\r\n            });\r\n        }\r\n        borrower = UserContractStruct({\r\n            id: _borrowerId,\r\n            manner: Manner(borrowerAddress),\r\n            withdrawn: false,\r\n            evidence: \"\"\r\n        });\r\n        lender = UserContractStruct({\r\n            id: _lenderId,\r\n            manner: Manner(lenderAddress),\r\n            withdrawn: false,\r\n            evidence: \"\"\r\n        });\r\n        (, int256 fee) = interest.interest();\r\n        lenderContract = LenderContract({\r\n            fee: (fee),\r\n            amount: int256(amount * dateList.length)\r\n        });\r\n        id = _id;\r\n        tenor = dateList.length;\r\n        state = \"LENDING\";\r\n    }\r\n\r\n    function getCurrentTenor() public view returns (uint256) {\r\n        for (uint256 i = 0; i < tenor; i++) {\r\n            if (contractList[i].isPaid == false) {\r\n                return i;\r\n            }\r\n        }\r\n        return 999;\r\n    }\r\n\r\n    // function getState() public view returns (string memory) {\r\n    //     return state;\r\n    // }\r\n\r\n    function setBorrowerScore(uint256 _currentTime) public {\r\n        borrower.manner.setScore(checkOvertimeLending(_currentTime));\r\n    }\r\n\r\n    function getBorrowerDetail()\r\n        public\r\n        view\r\n        returns (int256, int256, string memory, string memory, string memory)\r\n    {\r\n        return borrower.manner.user();\r\n    }\r\n\r\n    function getLenderDetail()\r\n        public\r\n        view\r\n        returns (int256, int256, string memory, string memory, string memory)\r\n    {\r\n        return lender.manner.user();\r\n    }\r\n\r\n    function setEvidenceStamp(string memory _evidence, uint256 _currentTime)\r\n        public\r\n        returns (string memory)\r\n    {\r\n        uint256 current = getCurrentTenor();\r\n        if (\r\n            keccak256(abi.encodePacked(state)) ==\r\n            keccak256(\"SUCCESS_LENDING\") ||\r\n            keccak256(abi.encodePacked(state)) ==\r\n            keccak256(\"BORROWER_NOT_ACCEPT\") ||\r\n            keccak256(abi.encodePacked(state)) == keccak256(\"REJECTED\")\r\n        ) {\r\n            return state;\r\n        } else if (current <= tenor) {\r\n            contractList[current].evidence = _evidence;\r\n            contractList[current].isPaid = true;\r\n            contractList[current].paidDate = _currentTime;\r\n            if (getCurrentTenor() > tenor) {\r\n                state = \"SUCCESS_LENDING\";\r\n                return state;\r\n            } else {\r\n                return \"PAY_SUCCESS\";\r\n            }\r\n        }\r\n        return state;\r\n    }\r\n\r\n    function startNormalLending() public {\r\n        if (\r\n            keccak256(abi.encodePacked(state)) == keccak256(\"LENDING\") ||\r\n            keccak256(abi.encodePacked(state)) == keccak256(\"LENDING_LATE\")\r\n        ) {\r\n            state = \"LENDING\";\r\n        }\r\n    }\r\n\r\n    function startLending(string memory evidence) public {\r\n        borrower.withdrawn = true;\r\n        borrower.evidence = evidence;\r\n    }\r\n\r\n    function finishLending(string memory evidence) public {\r\n        if (\r\n            keccak256(abi.encodePacked(state)) == keccak256(\"SUCCESS_LENDING\")\r\n        ) {\r\n            lender.withdrawn = true;\r\n            lender.evidence = evidence;\r\n        }\r\n    }\r\n\r\n    function checkOvertimeLending(uint256 _currentTime)\r\n        public\r\n        returns (string memory)\r\n    {\r\n        uint256 current = getCurrentTenor();\r\n        if (\r\n            keccak256(abi.encodePacked(state)) == keccak256(\"LENDING\") ||\r\n            keccak256(abi.encodePacked(state)) == keccak256(\"LENDING_LATE\")\r\n        ) {\r\n            if (_currentTime >= contractList[current].date + 604800) {\r\n                state = \"REJECTED\";\r\n            } else if ((_currentTime >= contractList[current].date + 86400)) {\r\n                state = \"LENDING_LATE\";\r\n            }\r\n        } else if (borrower.withdrawn == false) {\r\n            if (_currentTime >= startTime + 259200) {\r\n                state = \"BORROWER_NOT_ACCEPT\";\r\n            }\r\n        }\r\n        return state;\r\n    }\r\n}\r\n",
  "sourcePath": "D:/work/P2P_lending/blockchain/contracts/Lending.sol",
  "compiler": {
    "name": "solc",
    "version": "0.5.0+commit.1d4f565a.Emscripten.clang"
  },
  "schemaVersion": "3.0.1",
  "updatedAt": "2020-04-04T16:29:01.513Z",
  "devdoc": {
    "methods": {}
  },
  "userdoc": {
    "methods": {}
  }
}