{
  "contractName": "Lending",
  "abi": [
    {
      "constant": true,
      "inputs": [
        {
          "name": "",
          "type": "uint256"
        }
      ],
      "name": "contractList",
      "outputs": [
        {
          "name": "date",
          "type": "uint256"
        },
        {
          "name": "amount",
          "type": "uint256"
        },
        {
          "name": "isPaid",
          "type": "bool"
        },
        {
          "name": "evidence",
          "type": "string"
        },
        {
          "name": "paidDate",
          "type": "uint256"
        }
      ],
      "payable": false,
      "stateMutability": "view",
      "type": "function"
    },
    {
      "constant": true,
      "inputs": [],
      "name": "borrower",
      "outputs": [
        {
          "name": "id",
          "type": "int256"
        },
        {
          "name": "manner",
          "type": "address"
        },
        {
          "name": "withdrawn",
          "type": "bool"
        },
        {
          "name": "evidence",
          "type": "string"
        }
      ],
      "payable": false,
      "stateMutability": "view",
      "type": "function"
    },
    {
      "constant": true,
      "inputs": [],
      "name": "tenor",
      "outputs": [
        {
          "name": "",
          "type": "uint256"
        }
      ],
      "payable": false,
      "stateMutability": "view",
      "type": "function"
    },
    {
      "constant": true,
      "inputs": [],
      "name": "id",
      "outputs": [
        {
          "name": "",
          "type": "uint256"
        }
      ],
      "payable": false,
      "stateMutability": "view",
      "type": "function"
    },
    {
      "constant": true,
      "inputs": [],
      "name": "lender",
      "outputs": [
        {
          "name": "id",
          "type": "int256"
        },
        {
          "name": "manner",
          "type": "address"
        },
        {
          "name": "withdrawn",
          "type": "bool"
        },
        {
          "name": "evidence",
          "type": "string"
        }
      ],
      "payable": false,
      "stateMutability": "view",
      "type": "function"
    },
    {
      "constant": true,
      "inputs": [],
      "name": "state",
      "outputs": [
        {
          "name": "",
          "type": "string"
        }
      ],
      "payable": false,
      "stateMutability": "view",
      "type": "function"
    },
    {
      "constant": true,
      "inputs": [],
      "name": "lenderContract",
      "outputs": [
        {
          "name": "fee",
          "type": "int256"
        },
        {
          "name": "amount",
          "type": "int256"
        }
      ],
      "payable": false,
      "stateMutability": "view",
      "type": "function"
    },
    {
      "inputs": [
        {
          "name": "_id",
          "type": "uint256"
        },
        {
          "name": "dateList",
          "type": "uint256[]"
        },
        {
          "name": "amount",
          "type": "uint256"
        },
        {
          "name": "_borrowerId",
          "type": "int256"
        },
        {
          "name": "borrowerAddress",
          "type": "address"
        },
        {
          "name": "_lenderId",
          "type": "int256"
        },
        {
          "name": "lenderAddress",
          "type": "address"
        }
      ],
      "payable": false,
      "stateMutability": "nonpayable",
      "type": "constructor"
    },
    {
      "constant": true,
      "inputs": [],
      "name": "getCurrentTenor",
      "outputs": [
        {
          "name": "",
          "type": "uint256"
        }
      ],
      "payable": false,
      "stateMutability": "view",
      "type": "function"
    },
    {
      "constant": false,
      "inputs": [
        {
          "name": "_currentTime",
          "type": "uint256"
        }
      ],
      "name": "setBorrowerScore",
      "outputs": [],
      "payable": false,
      "stateMutability": "nonpayable",
      "type": "function"
    },
    {
      "constant": true,
      "inputs": [],
      "name": "getBorrowerDetail",
      "outputs": [
        {
          "name": "",
          "type": "int256"
        },
        {
          "name": "",
          "type": "int256"
        },
        {
          "name": "",
          "type": "string"
        },
        {
          "name": "",
          "type": "string"
        },
        {
          "name": "",
          "type": "string"
        }
      ],
      "payable": false,
      "stateMutability": "view",
      "type": "function"
    },
    {
      "constant": true,
      "inputs": [],
      "name": "getLenderDetail",
      "outputs": [
        {
          "name": "",
          "type": "int256"
        },
        {
          "name": "",
          "type": "int256"
        },
        {
          "name": "",
          "type": "string"
        },
        {
          "name": "",
          "type": "string"
        },
        {
          "name": "",
          "type": "string"
        }
      ],
      "payable": false,
      "stateMutability": "view",
      "type": "function"
    },
    {
      "constant": false,
      "inputs": [
        {
          "name": "_evidence",
          "type": "string"
        },
        {
          "name": "_currentTime",
          "type": "uint256"
        }
      ],
      "name": "setEvidenceStamp",
      "outputs": [
        {
          "name": "",
          "type": "string"
        }
      ],
      "payable": false,
      "stateMutability": "nonpayable",
      "type": "function"
    },
    {
      "constant": false,
      "inputs": [],
      "name": "startNormalLending",
      "outputs": [],
      "payable": false,
      "stateMutability": "nonpayable",
      "type": "function"
    },
    {
      "constant": false,
      "inputs": [
        {
          "name": "evidence",
          "type": "string"
        }
      ],
      "name": "startLending",
      "outputs": [],
      "payable": false,
      "stateMutability": "nonpayable",
      "type": "function"
    },
    {
      "constant": false,
      "inputs": [
        {
          "name": "evidence",
          "type": "string"
        }
      ],
      "name": "finishLending",
      "outputs": [],
      "payable": false,
      "stateMutability": "nonpayable",
      "type": "function"
    },
    {
      "constant": false,
      "inputs": [
        {
          "name": "_currentTime",
          "type": "uint256"
        }
      ],
      "name": "checkOvertimeLending",
      "outputs": [
        {
          "name": "",
          "type": "string"
        }
      ],
      "payable": false,
      "stateMutability": "nonpayable",
      "type": "function"
    }
  ],
  "bytecode": "0x608060405273d0ee9f1b0580897fdb42e3fd14361d89441cf938600c60006101000a81548173ffffffffffffffffffffffffffffffffffffffff021916908373ffffffffffffffffffffffffffffffffffffffff1602179055503480156200006657600080fd5b506040516200267b3803806200267b83398101806040526200008c9190810190620006d9565b60008090505b8651811015620001715760a0604051908101604052808883815181101515620000b757fe5b906020019060200201518152602001878152602001600015158152602001602060405190810160405280600081525081526020016000815250600d6000838152602001908152602001600020600082015181600001556020820151816001015560408201518160020160006101000a81548160ff02191690831515021790555060608201518160030190805190602001906200015592919062000491565b5060808201518160040155905050808060010191505062000092565b506080604051908101604052808581526020018473ffffffffffffffffffffffffffffffffffffffff1681526020016000151581526020016020604051908101604052806000815250815250600080820151816000015560208201518160010160006101000a81548173ffffffffffffffffffffffffffffffffffffffff021916908373ffffffffffffffffffffffffffffffffffffffff16021790555060408201518160010160146101000a81548160ff02191690831515021790555060608201518160020190805190602001906200024d92919062000491565b509050506080604051908101604052808381526020018273ffffffffffffffffffffffffffffffffffffffff168152602001600015158152602001602060405190810160405280600081525081525060056000820151816000015560208201518160010160006101000a81548173ffffffffffffffffffffffffffffffffffffffff021916908373ffffffffffffffffffffffffffffffffffffffff16021790555060408201518160010160146101000a81548160ff02191690831515021790555060608201518160020190805190602001906200032d92919062000491565b509050506000600c60009054906101000a900473ffffffffffffffffffffffffffffffffffffffff1673ffffffffffffffffffffffffffffffffffffffff1663c392f7666040518163ffffffff167c0100000000000000000000000000000000000000000000000000000000028152600401604080518083038186803b158015620003b757600080fd5b505afa158015620003cc573d6000803e3d6000fd5b505050506040513d601f19601f82011682018060405250620003f2919081019062000698565b9150506040805190810160405280828152602001885188028152506003600082015181600001556020820151816001015590505087600b8190555086516009819055506040805190810160405280600781526020017f4c454e44494e4700000000000000000000000000000000000000000000000000815250600a90805190602001906200048292919062000518565b5050505050505050506200083e565b828054600181600116156101000203166002900490600052602060002090601f016020900481019282601f10620004d457805160ff191683800117855562000505565b8280016001018555821562000505579182015b8281111562000504578251825591602001919060010190620004e7565b5b5090506200051491906200059f565b5090565b828054600181600116156101000203166002900490600052602060002090601f016020900481019282601f106200055b57805160ff19168380011785556200058c565b828001600101855582156200058c579182015b828111156200058b5782518255916020019190600101906200056e565b5b5090506200059b91906200059f565b5090565b620005c491905b80821115620005c0576000816000905550600101620005a6565b5090565b90565b6000620005d5825162000816565b905092915050565b600082601f8301121515620005f157600080fd5b8151620006086200060282620007cd565b6200079f565b915081818352602084019350602081019050838560208402820111156200062e57600080fd5b60005b8381101562000662578162000647888262000682565b84526020840193506020830192505060018101905062000631565b5050505092915050565b60006200067a82516200082a565b905092915050565b600062000690825162000834565b905092915050565b60008060408385031215620006ac57600080fd5b6000620006bc858286016200066c565b9250506020620006cf858286016200066c565b9150509250929050565b600080600080600080600060e0888a031215620006f557600080fd5b6000620007058a828b0162000682565b975050602088015167ffffffffffffffff8111156200072357600080fd5b620007318a828b01620005dd565b9650506040620007448a828b0162000682565b9550506060620007578a828b016200066c565b94505060806200076a8a828b01620005c7565b93505060a06200077d8a828b016200066c565b92505060c0620007908a828b01620005c7565b91505092959891949750929550565b6000604051905081810181811067ffffffffffffffff82111715620007c357600080fd5b8060405250919050565b600067ffffffffffffffff821115620007e557600080fd5b602082029050602081019050919050565b600073ffffffffffffffffffffffffffffffffffffffff82169050919050565b60006200082382620007f6565b9050919050565b6000819050919050565b6000819050919050565b611e2d806200084e6000396000f3fe6080604052600436106100e6576000357c0100000000000000000000000000000000000000000000000000000000900463ffffffff16806331719284146100eb57806334ae36c11461011457806334ee84061461013f5780636a5bb5d81461016e57806379ecaecf146101af5780637df1f1b9146101ec578063884ae2321461021a578063a15612d114610257578063af640d0f14610282578063bcead63e146102ad578063bd3c9ff6146102db578063c19d93fb146102f2578063c3cd54a21461031d578063cfa967ae14610349578063e1adc7ab14610378578063f1249b1e146103a1575b600080fd5b3480156100f757600080fd5b50610112600480360361010d9190810190611950565b6103ca565b005b34801561012057600080fd5b50610129610405565b6040516101369190611c18565b60405180910390f35b34801561014b57600080fd5b50610154610467565b604051610165959493929190611b6c565b60405180910390f35b34801561017a57600080fd5b5061019560048036036101909190810190611a26565b61054d565b6040516101a6959493929190611c33565b60405180910390f35b3480156101bb57600080fd5b506101d660048036036101d191908101906119d2565b610628565b6040516101e39190611bf6565b60405180910390f35b3480156101f857600080fd5b50610201610b87565b6040516102119493929190611af7565b60405180910390f35b34801561022657600080fd5b50610241600480360361023c9190810190611a26565b610c6a565b60405161024e9190611bf6565b60405180910390f35b34801561026357600080fd5b5061026c610ff5565b6040516102799190611c18565b60405180910390f35b34801561028e57600080fd5b50610297610ffb565b6040516102a49190611c18565b60405180910390f35b3480156102b957600080fd5b506102c2611001565b6040516102d29493929190611af7565b60405180910390f35b3480156102e757600080fd5b506102f06110e4565b005b3480156102fe57600080fd5b506103076112a3565b6040516103149190611bd4565b60405180910390f35b34801561032957600080fd5b50610332611341565b604051610340929190611b43565b60405180910390f35b34801561035557600080fd5b5061035e611353565b60405161036f959493929190611b6c565b60405180910390f35b34801561038457600080fd5b5061039f600480360361039a9190810190611950565b611439565b005b3480156103ad57600080fd5b506103c860048036036103c39190810190611a26565b6115e5565b005b6001600060010160146101000a81548160ff02191690831515021790555080600060020190805190602001906104019291906116c2565b5050565b600080600090505b60095481101561045d5760001515600d600083815260200190815260200160002060020160009054906101000a900460ff16151514156104505780915050610464565b808060010191505061040d565b506103e790505b90565b6000806060806060600560010160009054906101000a900473ffffffffffffffffffffffffffffffffffffffff1673ffffffffffffffffffffffffffffffffffffffff16634f8632ba6040518163ffffffff167c010000000000000000000000000000000000000000000000000000000002815260040160006040518083038186803b1580156104f657600080fd5b505afa15801561050a573d6000803e3d6000fd5b505050506040513d6000823e3d601f19601f820116820180604052506105339190810190611891565b829250819150809050945094509450945094509091929394565b600d6020528060005260406000206000915090508060000154908060010154908060020160009054906101000a900460ff1690806003018054600181600116156101000203166002900480601f0160208091040260200160405190810160405280929190818152602001828054600181600116156101000203166002900480156106185780601f106105ed57610100808354040283529160200191610618565b820191906000526020600020905b8154815290600101906020018083116105fb57829003601f168201915b5050505050908060040154905085565b60606000610634610405565b905060405180807f535543434553535f4c454e44494e470000000000000000000000000000000000815250600f0190506040518091039020600a60405160200180828054600181600116156101000203166002900480156106cc5780601f106106aa5761010080835404028352918201916106cc565b820191906000526020600020905b8154815290600101906020018083116106b8575b50509150506040516020818303038152906040528051906020012014806107a1575060405180807f424f52524f5745525f4e4f545f4143434550540000000000000000000000000081525060130190506040518091039020600a60405160200180828054600181600116156101000203166002900480156107845780601f10610762576101008083540402835291820191610784565b820191906000526020600020905b815481529060010190602001808311610770575b505091505060405160208183030381529060405280519060200120145b8061085a575060405180807f52454a454354454400000000000000000000000000000000000000000000000081525060080190506040518091039020600a604051602001808280546001816001161561010002031660029004801561083d5780601f1061081b57610100808354040283529182019161083d565b820191906000526020600020905b815481529060010190602001808311610829575b505091505060405160208183030381529060405280519060200120145b1561090257600a8054600181600116156101000203166002900480601f0160208091040260200160405190810160405280929190818152602001828054600181600116156101000203166002900480156108f55780601f106108ca576101008083540402835291602001916108f5565b820191906000526020600020905b8154815290600101906020018083116108d857829003601f168201915b5050505050915050610b81565b600954811115801561092a575060011515600060010160149054906101000a900460ff161515145b15610ae25783600d600083815260200190815260200160002060030190805190602001906109599291906116c2565b506001600d600083815260200190815260200160002060020160006101000a81548160ff02191690831515021790555082600d6000838152602001908152602001600020600401819055506009546109af610405565b1115610aa4576040805190810160405280600f81526020017f535543434553535f4c454e44494e470000000000000000000000000000000000815250600a9080519060200190610a009291906116c2565b50600a8054600181600116156101000203166002900480601f016020809104026020016040519081016040528092919081815260200182805460018160011615610100020316600290048015610a975780601f10610a6c57610100808354040283529160200191610a97565b820191906000526020600020905b815481529060010190602001808311610a7a57829003601f168201915b5050505050915050610b81565b6040805190810160405280600b81526020017f5041595f53554343455353000000000000000000000000000000000000000000815250915050610b81565b600a8054600181600116156101000203166002900480601f016020809104026020016040519081016040528092919081815260200182805460018160011615610100020316600290048015610b785780601f10610b4d57610100808354040283529160200191610b78565b820191906000526020600020905b815481529060010190602001808311610b5b57829003601f168201915b50505050509150505b92915050565b60008060000154908060010160009054906101000a900473ffffffffffffffffffffffffffffffffffffffff16908060010160149054906101000a900460ff1690806002018054600181600116156101000203166002900480601f016020809104026020016040519081016040528092919081815260200182805460018160011615610100020316600290048015610c605780601f10610c3557610100808354040283529160200191610c60565b820191906000526020600020905b815481529060010190602001808311610c4357829003601f168201915b5050505050905084565b60606000610c76610405565b905060405180807f4c454e44494e470000000000000000000000000000000000000000000000000081525060070190506040518091039020600a6040516020018082805460018160011615610100020316600290048015610d0e5780601f10610cec576101008083540402835291820191610d0e565b820191906000526020600020905b815481529060010190602001808311610cfa575b5050915050604051602081830303815290604052805190602001201480610de3575060405180807f4c454e44494e475f4c4154450000000000000000000000000000000000000000815250600c0190506040518091039020600a6040516020018082805460018160011615610100020316600290048015610dc65780601f10610da4576101008083540402835291820191610dc6565b820191906000526020600020905b815481529060010190602001808311610db2575b505091505060405160208183030381529060405280519060200120145b15610ed45762093a80600d6000838152602001908152602001600020600001540183101515610e5d576040805190810160405280600881526020017f52454a4543544544000000000000000000000000000000000000000000000000815250600a9080519060200190610e579291906116c2565b50610ecf565b62015180600d6000838152602001908152602001600020600001540183101515610ece576040805190810160405280600c81526020017f4c454e44494e475f4c4154450000000000000000000000000000000000000000815250600a9080519060200190610ecc9291906116c2565b505b5b610f52565b60001515600060010160149054906101000a900460ff1615151415610f51576203f4806008540183101515610f50576040805190810160405280601381526020017f424f52524f5745525f4e4f545f41434345505400000000000000000000000000815250600a9080519060200190610f4e9291906116c2565b505b5b5b600a8054600181600116156101000203166002900480601f016020809104026020016040519081016040528092919081815260200182805460018160011615610100020316600290048015610fe85780601f10610fbd57610100808354040283529160200191610fe8565b820191906000526020600020905b815481529060010190602001808311610fcb57829003601f168201915b5050505050915050919050565b60095481565b600b5481565b60058060000154908060010160009054906101000a900473ffffffffffffffffffffffffffffffffffffffff16908060010160149054906101000a900460ff1690806002018054600181600116156101000203166002900480601f0160208091040260200160405190810160405280929190818152602001828054600181600116156101000203166002900480156110da5780601f106110af576101008083540402835291602001916110da565b820191906000526020600020905b8154815290600101906020018083116110bd57829003601f168201915b5050505050905084565b60405180807f4c454e44494e470000000000000000000000000000000000000000000000000081525060070190506040518091039020600a604051602001808280546001816001161561010002031660029004801561117a5780601f1061115857610100808354040283529182019161117a565b820191906000526020600020905b815481529060010190602001808311611166575b505091505060405160208183030381529060405280519060200120148061124f575060405180807f4c454e44494e475f4c4154450000000000000000000000000000000000000000815250600c0190506040518091039020600a60405160200180828054600181600116156101000203166002900480156112325780601f10611210576101008083540402835291820191611232565b820191906000526020600020905b81548152906001019060200180831161121e575b505091505060405160208183030381529060405280519060200120145b156112a1576040805190810160405280600781526020017f4c454e44494e4700000000000000000000000000000000000000000000000000815250600a908051906020019061129f9291906116c2565b505b565b600a8054600181600116156101000203166002900480601f0160208091040260200160405190810160405280929190818152602001828054600181600116156101000203166002900480156113395780601f1061130e57610100808354040283529160200191611339565b820191906000526020600020905b81548152906001019060200180831161131c57829003601f168201915b505050505081565b60038060000154908060010154905082565b6000806060806060600060010160009054906101000a900473ffffffffffffffffffffffffffffffffffffffff1673ffffffffffffffffffffffffffffffffffffffff16634f8632ba6040518163ffffffff167c010000000000000000000000000000000000000000000000000000000002815260040160006040518083038186803b1580156113e257600080fd5b505afa1580156113f6573d6000803e3d6000fd5b505050506040513d6000823e3d601f19601f8201168201806040525061141f9190810190611891565b829250819150809050945094509450945094509091929394565b60405180807f535543434553535f4c454e44494e470000000000000000000000000000000000815250600f0190506040518091039020600a60405160200180828054600181600116156101000203166002900480156114cf5780601f106114ad5761010080835404028352918201916114cf565b820191906000526020600020905b8154815290600101906020018083116114bb575b50509150506040516020818303038152906040528051906020012014806115a4575060405180807f424f52524f5745525f4e4f545f4143434550540000000000000000000000000081525060130190506040518091039020600a60405160200180828054600181600116156101000203166002900480156115875780601f10611565576101008083540402835291820191611587565b820191906000526020600020905b815481529060010190602001808311611573575b505091505060405160208183030381529060405280519060200120145b156115e2576001600560010160146101000a81548160ff02191690831515021790555080600560020190805190602001906115e09291906116c2565b505b50565b600060010160009054906101000a900473ffffffffffffffffffffffffffffffffffffffff1673ffffffffffffffffffffffffffffffffffffffff16637858eb7b61162f83610c6a565b6040518263ffffffff167c01000000000000000000000000000000000000000000000000000000000281526004016116679190611bf6565b600060405180830381600087803b15801561168157600080fd5b505af1158015611695573d6000803e3d6000fd5b505050506040513d6000823e3d601f19601f820116820180604052506116be9190810190611991565b5050565b828054600181600116156101000203166002900490600052602060002090601f016020900481019282601f1061170357805160ff1916838001178555611731565b82800160010185558215611731579182015b82811115611730578251825591602001919060010190611715565b5b50905061173e9190611742565b5090565b61176491905b80821115611760576000816000905550600101611748565b5090565b90565b60006117738251611d68565b905092915050565b600082601f830112151561178e57600080fd5b81516117a161179c82611cba565b611c8d565b915080825260208301602083018583830111156117bd57600080fd5b6117c8838284611daf565b50505092915050565b600082601f83011215156117e457600080fd5b81356117f76117f282611ce6565b611c8d565b9150808252602083016020830185838301111561181357600080fd5b61181e838284611da0565b50505092915050565b600082601f830112151561183a57600080fd5b815161184d61184882611ce6565b611c8d565b9150808252602083016020830185838301111561186957600080fd5b611874838284611daf565b50505092915050565b60006118898235611d72565b905092915050565b600080600080600060a086880312156118a957600080fd5b60006118b788828901611767565b95505060206118c888828901611767565b945050604086015167ffffffffffffffff8111156118e557600080fd5b6118f18882890161177b565b935050606086015167ffffffffffffffff81111561190e57600080fd5b61191a8882890161177b565b925050608086015167ffffffffffffffff81111561193757600080fd5b6119438882890161177b565b9150509295509295909350565b60006020828403121561196257600080fd5b600082013567ffffffffffffffff81111561197c57600080fd5b611988848285016117d1565b91505092915050565b6000602082840312156119a357600080fd5b600082015167ffffffffffffffff8111156119bd57600080fd5b6119c984828501611827565b91505092915050565b600080604083850312156119e557600080fd5b600083013567ffffffffffffffff8111156119ff57600080fd5b611a0b858286016117d1565b9250506020611a1c8582860161187d565b9150509250929050565b600060208284031215611a3857600080fd5b6000611a468482850161187d565b91505092915050565b611a5881611d28565b82525050565b611a6781611d7c565b82525050565b611a7681611d34565b82525050565b6000611a8782611d1d565b808452611a9b816020860160208601611daf565b611aa481611de2565b602085010191505092915050565b6000611abd82611d12565b808452611ad1816020860160208601611daf565b611ada81611de2565b602085010191505092915050565b611af181611d5e565b82525050565b6000608082019050611b0c6000830187611a6d565b611b196020830186611a5e565b611b266040830185611a4f565b8181036060830152611b388184611ab2565b905095945050505050565b6000604082019050611b586000830185611a6d565b611b656020830184611a6d565b9392505050565b600060a082019050611b816000830188611a6d565b611b8e6020830187611a6d565b8181036040830152611ba08186611a7c565b90508181036060830152611bb48185611a7c565b90508181036080830152611bc88184611a7c565b90509695505050505050565b60006020820190508181036000830152611bee8184611ab2565b905092915050565b60006020820190508181036000830152611c108184611a7c565b905092915050565b6000602082019050611c2d6000830184611ae8565b92915050565b600060a082019050611c486000830188611ae8565b611c556020830187611ae8565b611c626040830186611a4f565b8181036060830152611c748185611ab2565b9050611c836080830184611ae8565b9695505050505050565b6000604051905081810181811067ffffffffffffffff82111715611cb057600080fd5b8060405250919050565b600067ffffffffffffffff821115611cd157600080fd5b601f19601f8301169050602081019050919050565b600067ffffffffffffffff821115611cfd57600080fd5b601f19601f8301169050602081019050919050565b600081519050919050565b600081519050919050565b60008115159050919050565b6000819050919050565b600073ffffffffffffffffffffffffffffffffffffffff82169050919050565b6000819050919050565b6000819050919050565b6000819050919050565b6000611d8782611d8e565b9050919050565b6000611d9982611d3e565b9050919050565b82818337600083830152505050565b60005b83811015611dcd578082015181840152602081019050611db2565b83811115611ddc576000848401525b50505050565b6000601f19601f830116905091905056fea265627a7a723058202823458cfbdeca314ede5fcc6fa5b8475ec82dc68dcb3993496aa8c73637a7f76c6578706572696d656e74616cf50037",
  "source": "pragma solidity >=0.4.25 <0.7.0;\r\npragma experimental ABIEncoderV2;\r\nimport \"./Manner.sol\";\r\nimport \"./Interest.sol\";\r\n\r\n\r\ncontract Lending {\r\n    struct ContractStruct {\r\n        uint256 date;\r\n        uint256 amount;\r\n        bool isPaid;\r\n        string evidence;\r\n        uint256 paidDate;\r\n    }\r\n    struct UserContractStruct {\r\n        int256 id;\r\n        Manner manner;\r\n        bool withdrawn;\r\n        string evidence;\r\n    }\r\n    struct LenderContract {\r\n        int256 fee;\r\n        int256 amount;\r\n    }\r\n    // Contractdata\r\n    UserContractStruct public borrower;\r\n    LenderContract public lenderContract;\r\n    UserContractStruct public lender;\r\n    uint256 startTime;\r\n    uint256 public tenor;\r\n    string public state;\r\n    uint256 public id;\r\n    Interest interest = Interest(0xd0ee9F1B0580897FdB42e3fD14361D89441Cf938);\r\n    mapping(uint256 => ContractStruct) public contractList;\r\n\r\n    //\r\n    constructor(\r\n        uint256 _id,\r\n        uint256[] memory dateList,\r\n        uint256 amount,\r\n        int256 _borrowerId,\r\n        address borrowerAddress,\r\n        int256 _lenderId,\r\n        address lenderAddress\r\n    ) public {\r\n        for (uint256 i = 0; i < dateList.length; i++) {\r\n            contractList[i] = ContractStruct({\r\n                date: dateList[i],\r\n                amount: amount,\r\n                isPaid: false,\r\n                evidence: \"\",\r\n                paidDate: 0\r\n            });\r\n        }\r\n        borrower = UserContractStruct({\r\n            id: _borrowerId,\r\n            manner: Manner(borrowerAddress),\r\n            withdrawn: false,\r\n            evidence: \"\"\r\n        });\r\n        lender = UserContractStruct({\r\n            id: _lenderId,\r\n            manner: Manner(lenderAddress),\r\n            withdrawn: false,\r\n            evidence: \"\"\r\n        });\r\n        (, int256 fee) = interest.interest();\r\n        lenderContract = LenderContract({\r\n            fee: (fee),\r\n            amount: int256(amount * dateList.length)\r\n        });\r\n        id = _id;\r\n        tenor = dateList.length;\r\n        state = \"LENDING\";\r\n    }\r\n\r\n    function getCurrentTenor() public view returns (uint256) {\r\n        for (uint256 i = 0; i < tenor; i++) {\r\n            if (contractList[i].isPaid == false) {\r\n                return i;\r\n            }\r\n        }\r\n        return 999;\r\n    }\r\n\r\n    function setBorrowerScore(uint256 _currentTime) public {\r\n        borrower.manner.setScore(checkOvertimeLending(_currentTime));\r\n    }\r\n\r\n    function getBorrowerDetail()\r\n        public\r\n        view\r\n        returns (int256, int256, string memory, string memory, string memory)\r\n    {\r\n        return borrower.manner.user();\r\n    }\r\n\r\n    function getLenderDetail()\r\n        public\r\n        view\r\n        returns (int256, int256, string memory, string memory, string memory)\r\n    {\r\n        return lender.manner.user();\r\n    }\r\n\r\n    function setEvidenceStamp(string memory _evidence, uint256 _currentTime)\r\n        public\r\n        returns (string memory)\r\n    {\r\n        uint256 current = getCurrentTenor();\r\n        if (\r\n            keccak256(abi.encodePacked(state)) ==\r\n            keccak256(\"SUCCESS_LENDING\") ||\r\n            keccak256(abi.encodePacked(state)) ==\r\n            keccak256(\"BORROWER_NOT_ACCEPT\") ||\r\n            keccak256(abi.encodePacked(state)) == keccak256(\"REJECTED\")\r\n        ) {\r\n            return state;\r\n        } else if (current <= tenor && borrower.withdrawn == true) {\r\n            contractList[current].evidence = _evidence;\r\n            contractList[current].isPaid = true;\r\n            contractList[current].paidDate = _currentTime;\r\n            if (getCurrentTenor() > tenor) {\r\n                state = \"SUCCESS_LENDING\";\r\n                return state;\r\n            } else {\r\n                return \"PAY_SUCCESS\";\r\n            }\r\n        }\r\n        return state;\r\n    }\r\n\r\n    function startNormalLending() public {\r\n        if (\r\n            keccak256(abi.encodePacked(state)) == keccak256(\"LENDING\") ||\r\n            keccak256(abi.encodePacked(state)) == keccak256(\"LENDING_LATE\")\r\n        ) {\r\n            state = \"LENDING\";\r\n        }\r\n    }\r\n\r\n    function startLending(string memory evidence) public {\r\n        borrower.withdrawn = true;\r\n        borrower.evidence = evidence;\r\n    }\r\n\r\n    function finishLending(string memory evidence) public {\r\n        if (\r\n            keccak256(abi.encodePacked(state)) ==\r\n            keccak256(\"SUCCESS_LENDING\") ||\r\n            keccak256(abi.encodePacked(state)) ==\r\n            keccak256(\"BORROWER_NOT_ACCEPT\")\r\n        ) {\r\n            lender.withdrawn = true;\r\n            lender.evidence = evidence;\r\n        }\r\n    }\r\n\r\n    function checkOvertimeLending(uint256 _currentTime)\r\n        public\r\n        returns (string memory)\r\n    {\r\n        uint256 current = getCurrentTenor();\r\n        if (\r\n            keccak256(abi.encodePacked(state)) == keccak256(\"LENDING\") ||\r\n            keccak256(abi.encodePacked(state)) == keccak256(\"LENDING_LATE\")\r\n        ) {\r\n            if (_currentTime >= contractList[current].date + 604800) {\r\n                state = \"REJECTED\";\r\n            } else if ((_currentTime >= contractList[current].date + 86400)) {\r\n                state = \"LENDING_LATE\";\r\n            }\r\n        } else if (borrower.withdrawn == false) {\r\n            if (_currentTime >= startTime + 259200) {\r\n                state = \"BORROWER_NOT_ACCEPT\";\r\n            }\r\n        }\r\n        return state;\r\n    }\r\n}\r\n",
  "sourcePath": "D:/work/P2P_lending/blockchain/contracts/Lending.sol",
  "compiler": {
    "name": "solc",
    "version": "0.5.0+commit.1d4f565a.Emscripten.clang"
  },
  "schemaVersion": "3.0.1",
  "updatedAt": "2020-04-07T10:44:01.443Z",
  "devdoc": {
    "methods": {}
  },
  "userdoc": {
    "methods": {}
  }
}