{
  "contractName": "Lending",
  "abi": [
    {
      "constant": true,
      "inputs": [
        {
          "name": "",
          "type": "uint256"
        }
      ],
      "name": "contractList",
      "outputs": [
        {
          "name": "date",
          "type": "uint256"
        },
        {
          "name": "amount",
          "type": "uint256"
        },
        {
          "name": "isPaid",
          "type": "bool"
        },
        {
          "name": "evidence",
          "type": "string"
        },
        {
          "name": "paidDate",
          "type": "uint256"
        }
      ],
      "payable": false,
      "stateMutability": "view",
      "type": "function"
    },
    {
      "constant": true,
      "inputs": [],
      "name": "borrower",
      "outputs": [
        {
          "name": "id",
          "type": "int256"
        },
        {
          "name": "manner",
          "type": "address"
        }
      ],
      "payable": false,
      "stateMutability": "view",
      "type": "function"
    },
    {
      "constant": true,
      "inputs": [],
      "name": "lender",
      "outputs": [
        {
          "name": "id",
          "type": "int256"
        },
        {
          "name": "manner",
          "type": "address"
        }
      ],
      "payable": false,
      "stateMutability": "view",
      "type": "function"
    },
    {
      "inputs": [
        {
          "name": "dateList",
          "type": "uint256[]"
        },
        {
          "name": "amount",
          "type": "uint256"
        },
        {
          "name": "_borrowerId",
          "type": "int256"
        },
        {
          "name": "borrowerAddress",
          "type": "address"
        },
        {
          "name": "_lenderId",
          "type": "int256"
        },
        {
          "name": "lenderAddress",
          "type": "address"
        }
      ],
      "payable": false,
      "stateMutability": "nonpayable",
      "type": "constructor"
    },
    {
      "constant": true,
      "inputs": [],
      "name": "getCurrentTenor",
      "outputs": [
        {
          "name": "",
          "type": "uint256"
        }
      ],
      "payable": false,
      "stateMutability": "view",
      "type": "function"
    },
    {
      "constant": true,
      "inputs": [],
      "name": "getState",
      "outputs": [
        {
          "name": "",
          "type": "string"
        }
      ],
      "payable": false,
      "stateMutability": "view",
      "type": "function"
    },
    {
      "constant": false,
      "inputs": [
        {
          "name": "_currentTime",
          "type": "uint256"
        }
      ],
      "name": "setBorrowerScore",
      "outputs": [],
      "payable": false,
      "stateMutability": "nonpayable",
      "type": "function"
    },
    {
      "constant": true,
      "inputs": [],
      "name": "getBorrowerDetail",
      "outputs": [
        {
          "name": "",
          "type": "int256"
        },
        {
          "name": "",
          "type": "int256"
        },
        {
          "name": "",
          "type": "string"
        },
        {
          "name": "",
          "type": "string"
        },
        {
          "name": "",
          "type": "string"
        }
      ],
      "payable": false,
      "stateMutability": "view",
      "type": "function"
    },
    {
      "constant": true,
      "inputs": [],
      "name": "getLenderDetail",
      "outputs": [
        {
          "name": "",
          "type": "int256"
        },
        {
          "name": "",
          "type": "int256"
        },
        {
          "name": "",
          "type": "string"
        },
        {
          "name": "",
          "type": "string"
        },
        {
          "name": "",
          "type": "string"
        }
      ],
      "payable": false,
      "stateMutability": "view",
      "type": "function"
    },
    {
      "constant": false,
      "inputs": [
        {
          "name": "_evidence",
          "type": "string"
        },
        {
          "name": "_currentTime",
          "type": "uint256"
        }
      ],
      "name": "setEvidenceStamp",
      "outputs": [
        {
          "name": "",
          "type": "string"
        }
      ],
      "payable": false,
      "stateMutability": "nonpayable",
      "type": "function"
    },
    {
      "constant": false,
      "inputs": [],
      "name": "startNormalLending",
      "outputs": [],
      "payable": false,
      "stateMutability": "nonpayable",
      "type": "function"
    },
    {
      "constant": false,
      "inputs": [
        {
          "name": "_currentTime",
          "type": "uint256"
        }
      ],
      "name": "checkOvertimeLending",
      "outputs": [
        {
          "name": "",
          "type": "string"
        }
      ],
      "payable": false,
      "stateMutability": "nonpayable",
      "type": "function"
    }
  ],
  "bytecode": "0x60806040523480156200001157600080fd5b5060405162001fbb38038062001fbb833981018060405262000037919081019062000487565b60008090505b86518110156200011c5760a06040519081016040528088838151811015156200006257fe5b90602001906020020151815260200187815260200160001515815260200160206040519081016040528060008152508152602001600081525060076000838152602001908152602001600020600082015181600001556020820151816001015560408201518160020160006101000a81548160ff02191690831515021790555060608201518160030190805190602001906200010092919062000280565b506080820151816004015590505080806001019150506200003d565b5060408051908101604052808581526020018473ffffffffffffffffffffffffffffffffffffffff16815250600080820151816000015560208201518160010160006101000a81548173ffffffffffffffffffffffffffffffffffffffff021916908373ffffffffffffffffffffffffffffffffffffffff16021790555090505060408051908101604052808381526020018273ffffffffffffffffffffffffffffffffffffffff1681525060026000820151816000015560208201518160010160006101000a81548173ffffffffffffffffffffffffffffffffffffffff021916908373ffffffffffffffffffffffffffffffffffffffff16021790555090505085516005819055506040805190810160405280601d81526020017f57414954494e475f424f52524f5745525f4143434550545f4d4f4e4559000000815250600690805190602001906200027392919062000307565b50505050505050620005d5565b828054600181600116156101000203166002900490600052602060002090601f016020900481019282601f10620002c357805160ff1916838001178555620002f4565b82800160010185558215620002f4579182015b82811115620002f3578251825591602001919060010190620002d6565b5b5090506200030391906200038e565b5090565b828054600181600116156101000203166002900490600052602060002090601f016020900481019282601f106200034a57805160ff19168380011785556200037b565b828001600101855582156200037b579182015b828111156200037a5782518255916020019190600101906200035d565b5b5090506200038a91906200038e565b5090565b620003b391905b80821115620003af57600081600090555060010162000395565b5090565b90565b6000620003c48251620005ad565b905092915050565b600082601f8301121515620003e057600080fd5b8151620003f7620003f18262000564565b62000536565b915081818352602084019350602081019050838560208402820111156200041d57600080fd5b60005b8381101562000451578162000436888262000471565b84526020840193506020830192505060018101905062000420565b5050505092915050565b6000620004698251620005c1565b905092915050565b60006200047f8251620005cb565b905092915050565b60008060008060008060c08789031215620004a157600080fd5b600087015167ffffffffffffffff811115620004bc57600080fd5b620004ca89828a01620003cc565b9650506020620004dd89828a0162000471565b9550506040620004f089828a016200045b565b94505060606200050389828a01620003b6565b93505060806200051689828a016200045b565b92505060a06200052989828a01620003b6565b9150509295509295509295565b6000604051905081810181811067ffffffffffffffff821117156200055a57600080fd5b8060405250919050565b600067ffffffffffffffff8211156200057c57600080fd5b602082029050602081019050919050565b600073ffffffffffffffffffffffffffffffffffffffff82169050919050565b6000620005ba826200058d565b9050919050565b6000819050919050565b6000819050919050565b6119d680620005e56000396000f3fe6080604052600436106100af576000357c0100000000000000000000000000000000000000000000000000000000900463ffffffff1680631865c57d146100b457806334ae36c1146100df57806334ee84061461010a5780636a5bb5d81461013957806379ecaecf1461017a5780637df1f1b9146101b7578063884ae232146101e3578063bcead63e14610220578063bd3c9ff61461024c578063cfa967ae14610263578063f1249b1e14610292575b600080fd5b3480156100c057600080fd5b506100c96102bb565b6040516100d6919061179f565b60405180910390f35b3480156100eb57600080fd5b506100f461035d565b60405161010191906117c1565b60405180910390f35b34801561011657600080fd5b5061011f6103bf565b604051610130959493929190611737565b60405180910390f35b34801561014557600080fd5b50610160600480360361015b919081019061163d565b6104a5565b6040516101719594939291906117dc565b60405180910390f35b34801561018657600080fd5b506101a1600480360361019c91908101906115e9565b610580565b6040516101ae919061179f565b60405180910390f35b3480156101c357600080fd5b506101cc610a58565b6040516101da92919061170e565b60405180910390f35b3480156101ef57600080fd5b5061020a6004803603610205919081019061163d565b610a8a565b604051610217919061179f565b60405180910390f35b34801561022c57600080fd5b50610235610ead565b60405161024392919061170e565b60405180910390f35b34801561025857600080fd5b50610261610edf565b005b34801561026f57600080fd5b50610278611157565b604051610289959493929190611737565b60405180910390f35b34801561029e57600080fd5b506102b960048036036102b4919081019061163d565b61123d565b005b606060068054600181600116156101000203166002900480601f0160208091040260200160405190810160405280929190818152602001828054600181600116156101000203166002900480156103535780601f1061032857610100808354040283529160200191610353565b820191906000526020600020905b81548152906001019060200180831161033657829003601f168201915b5050505050905090565b600080600090505b6005548110156103b557600015156007600083815260200190815260200160002060020160009054906101000a900460ff16151514156103a857809150506103bc565b8080600101915050610365565b506103e790505b90565b6000806060806060600260010160009054906101000a900473ffffffffffffffffffffffffffffffffffffffff1673ffffffffffffffffffffffffffffffffffffffff16634f8632ba6040518163ffffffff167c010000000000000000000000000000000000000000000000000000000002815260040160006040518083038186803b15801561044e57600080fd5b505afa158015610462573d6000803e3d6000fd5b505050506040513d6000823e3d601f19601f8201168201806040525061048b91908101906114e9565b829250819150809050945094509450945094509091929394565b60076020528060005260406000206000915090508060000154908060010154908060020160009054906101000a900460ff1690806003018054600181600116156101000203166002900480601f0160208091040260200160405190810160405280929190818152602001828054600181600116156101000203166002900480156105705780601f1061054557610100808354040283529160200191610570565b820191906000526020600020905b81548152906001019060200180831161055357829003601f168201915b5050505050908060040154905085565b6060600061058c61035d565b905060405180807f535543434553535f4c454e44494e470000000000000000000000000000000000815250600f0190506040518091039020600660405160200180828054600181600116156101000203166002900480156106245780601f10610602576101008083540402835291820191610624565b820191906000526020600020905b815481529060010190602001808311610610575b50509150506040516020818303038152906040528051906020012014806106f9575060405180807f424f52524f5745525f4e4f545f4143434550540000000000000000000000000081525060130190506040518091039020600660405160200180828054600181600116156101000203166002900480156106dc5780601f106106ba5761010080835404028352918201916106dc565b820191906000526020600020905b8154815290600101906020018083116106c8575b505091505060405160208183030381529060405280519060200120145b806107b2575060405180807f52454a454354454400000000000000000000000000000000000000000000000081525060080190506040518091039020600660405160200180828054600181600116156101000203166002900480156107955780601f10610773576101008083540402835291820191610795565b820191906000526020600020905b815481529060010190602001808311610781575b505091505060405160208183030381529060405280519060200120145b1561085a5760068054600181600116156101000203166002900480601f01602080910402602001604051908101604052809291908181526020018280546001816001161561010002031660029004801561084d5780601f106108225761010080835404028352916020019161084d565b820191906000526020600020905b81548152906001019060200180831161083057829003601f168201915b5050505050915050610a52565b600554811115156109b3578360076000838152602001908152602001600020600301908051906020019061088f92919061131a565b5060016007600083815260200190815260200160002060020160006101000a81548160ff0219169083151502179055508260076000838152602001908152602001600020600401819055506005546108e561035d565b1115610975576040805190810160405280600f81526020017f535543434553535f4c454e44494e4700000000000000000000000000000000008152506006908051906020019061093692919061131a565b506040805190810160405280600f81526020017f535543434553535f4c454e44494e470000000000000000000000000000000000815250915050610a52565b6040805190810160405280600b81526020017f5041595f53554343455353000000000000000000000000000000000000000000815250915050610a52565b60068054600181600116156101000203166002900480601f016020809104026020016040519081016040528092919081815260200182805460018160011615610100020316600290048015610a495780601f10610a1e57610100808354040283529160200191610a49565b820191906000526020600020905b815481529060010190602001808311610a2c57829003601f168201915b50505050509150505b92915050565b60008060000154908060010160009054906101000a900473ffffffffffffffffffffffffffffffffffffffff16905082565b60606000610a9661035d565b905060405180807f4c454e44494e47000000000000000000000000000000000000000000000000008152506007019050604051809103902060066040516020018082805460018160011615610100020316600290048015610b2e5780601f10610b0c576101008083540402835291820191610b2e565b820191906000526020600020905b815481529060010190602001808311610b1a575b5050915050604051602081830303815290604052805190602001201480610c03575060405180807f4c454e44494e475f4c4154450000000000000000000000000000000000000000815250600c019050604051809103902060066040516020018082805460018160011615610100020316600290048015610be65780601f10610bc4576101008083540402835291820191610be6565b820191906000526020600020905b815481529060010190602001808311610bd2575b505091505060405160208183030381529060405280519060200120145b15610cf45762093a8060076000838152602001908152602001600020600001540183101515610c7d576040805190810160405280600881526020017f52454a454354454400000000000000000000000000000000000000000000000081525060069080519060200190610c7792919061131a565b50610cef565b6201518060076000838152602001908152602001600020600001540183101515610cee576040805190810160405280600c81526020017f4c454e44494e475f4c415445000000000000000000000000000000000000000081525060069080519060200190610cec92919061131a565b505b5b610e0a565b60405180807f57414954494e475f424f52524f5745525f4143434550545f4d4f4e4559000000815250601d019050604051809103902060066040516020018082805460018160011615610100020316600290048015610d8a5780601f10610d68576101008083540402835291820191610d8a565b820191906000526020600020905b815481529060010190602001808311610d76575b5050915050604051602081830303815290604052805190602001201415610e09576203f4806004540183101515610e08576040805190810160405280601381526020017f424f52524f5745525f4e4f545f4143434550540000000000000000000000000081525060069080519060200190610e0692919061131a565b505b5b5b60068054600181600116156101000203166002900480601f016020809104026020016040519081016040528092919081815260200182805460018160011615610100020316600290048015610ea05780601f10610e7557610100808354040283529160200191610ea0565b820191906000526020600020905b815481529060010190602001808311610e8357829003601f168201915b5050505050915050919050565b60028060000154908060010160009054906101000a900473ffffffffffffffffffffffffffffffffffffffff16905082565b60405180807f4c454e44494e47000000000000000000000000000000000000000000000000008152506007019050604051809103902060066040516020018082805460018160011615610100020316600290048015610f755780601f10610f53576101008083540402835291820191610f75565b820191906000526020600020905b815481529060010190602001808311610f61575b505091505060405160208183030381529060405280519060200120148061104a575060405180807f4c454e44494e475f4c4154450000000000000000000000000000000000000000815250600c01905060405180910390206006604051602001808280546001816001161561010002031660029004801561102d5780601f1061100b57610100808354040283529182019161102d565b820191906000526020600020905b815481529060010190602001808311611019575b505091505060405160208183030381529060405280519060200120145b80611103575060405180807f57414954494e475f424f52524f5745525f4143434550545f4d4f4e4559000000815250601d0190506040518091039020600660405160200180828054600181600116156101000203166002900480156110e65780601f106110c45761010080835404028352918201916110e6565b820191906000526020600020905b8154815290600101906020018083116110d2575b505091505060405160208183030381529060405280519060200120145b15611155576040805190810160405280600781526020017f4c454e44494e47000000000000000000000000000000000000000000000000008152506006908051906020019061115392919061131a565b505b565b6000806060806060600060010160009054906101000a900473ffffffffffffffffffffffffffffffffffffffff1673ffffffffffffffffffffffffffffffffffffffff16634f8632ba6040518163ffffffff167c010000000000000000000000000000000000000000000000000000000002815260040160006040518083038186803b1580156111e657600080fd5b505afa1580156111fa573d6000803e3d6000fd5b505050506040513d6000823e3d601f19601f8201168201806040525061122391908101906114e9565b829250819150809050945094509450945094509091929394565b600060010160009054906101000a900473ffffffffffffffffffffffffffffffffffffffff1673ffffffffffffffffffffffffffffffffffffffff16637858eb7b61128783610a8a565b6040518263ffffffff167c01000000000000000000000000000000000000000000000000000000000281526004016112bf919061179f565b600060405180830381600087803b1580156112d957600080fd5b505af11580156112ed573d6000803e3d6000fd5b505050506040513d6000823e3d601f19601f8201168201806040525061131691908101906115a8565b5050565b828054600181600116156101000203166002900490600052602060002090601f016020900481019282601f1061135b57805160ff1916838001178555611389565b82800160010185558215611389579182015b8281111561138857825182559160200191906001019061136d565b5b509050611396919061139a565b5090565b6113bc91905b808211156113b85760008160009055506001016113a0565b5090565b90565b60006113cb8251611911565b905092915050565b600082601f83011215156113e657600080fd5b81516113f96113f482611863565b611836565b9150808252602083016020830185838301111561141557600080fd5b611420838284611958565b50505092915050565b600082601f830112151561143c57600080fd5b813561144f61144a8261188f565b611836565b9150808252602083016020830185838301111561146b57600080fd5b611476838284611949565b50505092915050565b600082601f830112151561149257600080fd5b81516114a56114a08261188f565b611836565b915080825260208301602083018583830111156114c157600080fd5b6114cc838284611958565b50505092915050565b60006114e1823561191b565b905092915050565b600080600080600060a0868803121561150157600080fd5b600061150f888289016113bf565b9550506020611520888289016113bf565b945050604086015167ffffffffffffffff81111561153d57600080fd5b611549888289016113d3565b935050606086015167ffffffffffffffff81111561156657600080fd5b611572888289016113d3565b925050608086015167ffffffffffffffff81111561158f57600080fd5b61159b888289016113d3565b9150509295509295909350565b6000602082840312156115ba57600080fd5b600082015167ffffffffffffffff8111156115d457600080fd5b6115e08482850161147f565b91505092915050565b600080604083850312156115fc57600080fd5b600083013567ffffffffffffffff81111561161657600080fd5b61162285828601611429565b9250506020611633858286016114d5565b9150509250929050565b60006020828403121561164f57600080fd5b600061165d848285016114d5565b91505092915050565b61166f816118d1565b82525050565b61167e81611925565b82525050565b61168d816118dd565b82525050565b600061169e826118c6565b8084526116b2816020860160208601611958565b6116bb8161198b565b602085010191505092915050565b60006116d4826118bb565b8084526116e8816020860160208601611958565b6116f18161198b565b602085010191505092915050565b61170881611907565b82525050565b60006040820190506117236000830185611684565b6117306020830184611675565b9392505050565b600060a08201905061174c6000830188611684565b6117596020830187611684565b818103604083015261176b8186611693565b9050818103606083015261177f8185611693565b905081810360808301526117938184611693565b90509695505050505050565b600060208201905081810360008301526117b98184611693565b905092915050565b60006020820190506117d660008301846116ff565b92915050565b600060a0820190506117f160008301886116ff565b6117fe60208301876116ff565b61180b6040830186611666565b818103606083015261181d81856116c9565b905061182c60808301846116ff565b9695505050505050565b6000604051905081810181811067ffffffffffffffff8211171561185957600080fd5b8060405250919050565b600067ffffffffffffffff82111561187a57600080fd5b601f19601f8301169050602081019050919050565b600067ffffffffffffffff8211156118a657600080fd5b601f19601f8301169050602081019050919050565b600081519050919050565b600081519050919050565b60008115159050919050565b6000819050919050565b600073ffffffffffffffffffffffffffffffffffffffff82169050919050565b6000819050919050565b6000819050919050565b6000819050919050565b600061193082611937565b9050919050565b6000611942826118e7565b9050919050565b82818337600083830152505050565b60005b8381101561197657808201518184015260208101905061195b565b83811115611985576000848401525b50505050565b6000601f19601f830116905091905056fea265627a7a72305820455cd2caab20f11abb755c7dfbc2827af995579e49ca954a116f99fb879d2f476c6578706572696d656e74616cf50037",
  "source": "pragma solidity >=0.4.25 <0.7.0;\r\npragma experimental ABIEncoderV2;\r\nimport \"./Manner.sol\";\r\ncontract Lending {\r\n    struct ContractStruct {\r\n        uint256 date;\r\n        uint256 amount;\r\n        bool isPaid;\r\n        string evidence;\r\n        uint256 paidDate;\r\n    }\r\n    struct UserContractStruct {\r\n        int256 id;\r\n        Manner manner;\r\n    }\r\n    // Contractdata\r\n    UserContractStruct public borrower;\r\n    UserContractStruct public lender;\r\n    uint256 startTime;\r\n    uint256 tenor;\r\n    string state;\r\n    mapping(uint256 => ContractStruct) public contractList;\r\n    //\r\n    constructor(\r\n        uint256[] memory dateList,\r\n        uint256 amount,\r\n        int256 _borrowerId,\r\n        address borrowerAddress,\r\n        int256 _lenderId,\r\n        address lenderAddress\r\n    ) public {\r\n        for (uint256 i = 0; i < dateList.length; i++) {\r\n            contractList[i] = ContractStruct({\r\n                date: dateList[i],\r\n                amount: amount,\r\n                isPaid: false,\r\n                evidence: \"\",\r\n                paidDate: 0\r\n            });\r\n        }\r\n        borrower = UserContractStruct({\r\n            id: _borrowerId,\r\n            manner: Manner(borrowerAddress)\r\n        });\r\n        lender = UserContractStruct({\r\n            id: _lenderId,\r\n            manner: Manner(lenderAddress)\r\n        });\r\n        tenor = dateList.length;\r\n        state = \"WAITING_BORROWER_ACCEPT_MONEY\";\r\n    }\r\n    function getCurrentTenor() public view returns (uint256) {\r\n        for (uint256 i = 0; i < tenor; i++) {\r\n            if (contractList[i].isPaid == false) {\r\n                return i;\r\n            }\r\n        }\r\n        return 999;\r\n    }\r\n\r\n    function getState() public view returns (string memory) {\r\n        return state;\r\n    }\r\n\r\n    function setBorrowerScore(uint256 _currentTime) public {\r\n        borrower.manner.setScore(checkOvertimeLending(_currentTime));\r\n    }\r\n    function getBorrowerDetail()\r\n        public\r\n        view\r\n        returns (int256, int256, string memory, string memory, string memory)\r\n    {\r\n        return borrower.manner.user();\r\n    }\r\n    function getLenderDetail()\r\n        public\r\n        view\r\n        returns (int256, int256, string memory, string memory, string memory)\r\n    {\r\n        return lender.manner.user();\r\n    }\r\n\r\n    function setEvidenceStamp(string memory _evidence, uint256 _currentTime)\r\n        public\r\n        returns (string memory)\r\n    {\r\n        uint256 current = getCurrentTenor();\r\n        if (\r\n            keccak256(abi.encodePacked(state)) ==\r\n            keccak256(\"SUCCESS_LENDING\") ||\r\n            keccak256(abi.encodePacked(state)) ==\r\n            keccak256(\"BORROWER_NOT_ACCEPT\") ||\r\n            keccak256(abi.encodePacked(state)) == keccak256(\"REJECTED\")\r\n        ) {\r\n            return state;\r\n        } else if (current <= tenor) {\r\n            contractList[current].evidence = _evidence;\r\n            contractList[current].isPaid = true;\r\n            contractList[current].paidDate = _currentTime;\r\n            if (getCurrentTenor() > tenor) {\r\n                state = \"SUCCESS_LENDING\";\r\n                return \"SUCCESS_LENDING\";\r\n            } else {\r\n                return \"PAY_SUCCESS\";\r\n            }\r\n        }\r\n        return state;\r\n    }\r\n    function startNormalLending() public {\r\n        if (\r\n            keccak256(abi.encodePacked(state)) == keccak256(\"LENDING\") ||\r\n            keccak256(abi.encodePacked(state)) == keccak256(\"LENDING_LATE\") ||\r\n            keccak256(abi.encodePacked(state)) ==\r\n            keccak256(\"WAITING_BORROWER_ACCEPT_MONEY\")\r\n        ) {\r\n            state = \"LENDING\";\r\n        }\r\n    }\r\n\r\n    function checkOvertimeLending(uint256 _currentTime)\r\n        public\r\n        returns (string memory)\r\n    {\r\n        uint256 current = getCurrentTenor();\r\n        if (\r\n            keccak256(abi.encodePacked(state)) == keccak256(\"LENDING\") ||\r\n            keccak256(abi.encodePacked(state)) == keccak256(\"LENDING_LATE\")\r\n        ) {\r\n            if (_currentTime >= contractList[current].date + 604800) {\r\n                state = \"REJECTED\";\r\n            } else if ((_currentTime >= contractList[current].date + 86400)) {\r\n                state = \"LENDING_LATE\";\r\n            }\r\n        } else if (\r\n            keccak256(abi.encodePacked(state)) ==\r\n            keccak256(\"WAITING_BORROWER_ACCEPT_MONEY\")\r\n        ) {\r\n            if (_currentTime >= startTime + 259200) {\r\n                state = \"BORROWER_NOT_ACCEPT\";\r\n            }\r\n        }\r\n        return state;\r\n    }\r\n}\r\n",
  "sourcePath": "D:/work/P2P_lending/blockchain/contracts/Lending.sol",
  "compiler": {
    "name": "solc",
    "version": "0.5.0+commit.1d4f565a.Emscripten.clang"
  },
  "schemaVersion": "3.0.1",
  "updatedAt": "2020-03-21T17:32:08.378Z",
  "devdoc": {
    "methods": {}
  },
  "userdoc": {
    "methods": {}
  }
}