{
  "contractName": "Lending",
  "abi": [
    {
      "constant": true,
      "inputs": [
        {
          "name": "",
          "type": "uint256"
        }
      ],
      "name": "contractList",
      "outputs": [
        {
          "name": "date",
          "type": "uint256"
        },
        {
          "name": "amount",
          "type": "uint256"
        },
        {
          "name": "isPaid",
          "type": "bool"
        },
        {
          "name": "evidence",
          "type": "string"
        },
        {
          "name": "paidDate",
          "type": "uint256"
        }
      ],
      "payable": false,
      "stateMutability": "view",
      "type": "function"
    },
    {
      "constant": true,
      "inputs": [],
      "name": "borrower",
      "outputs": [
        {
          "name": "id",
          "type": "int256"
        },
        {
          "name": "manner",
          "type": "address"
        },
        {
          "name": "withdrawn",
          "type": "bool"
        },
        {
          "name": "evidence",
          "type": "string"
        }
      ],
      "payable": false,
      "stateMutability": "view",
      "type": "function"
    },
    {
      "constant": true,
      "inputs": [],
      "name": "lender",
      "outputs": [
        {
          "name": "id",
          "type": "int256"
        },
        {
          "name": "manner",
          "type": "address"
        },
        {
          "name": "withdrawn",
          "type": "bool"
        },
        {
          "name": "evidence",
          "type": "string"
        }
      ],
      "payable": false,
      "stateMutability": "view",
      "type": "function"
    },
    {
      "constant": true,
      "inputs": [],
      "name": "lenderContract",
      "outputs": [
        {
          "name": "fee",
          "type": "int256"
        },
        {
          "name": "amount",
          "type": "int256"
        }
      ],
      "payable": false,
      "stateMutability": "view",
      "type": "function"
    },
    {
      "inputs": [
        {
          "name": "dateList",
          "type": "uint256[]"
        },
        {
          "name": "amount",
          "type": "uint256"
        },
        {
          "name": "_borrowerId",
          "type": "int256"
        },
        {
          "name": "borrowerAddress",
          "type": "address"
        },
        {
          "name": "_lenderId",
          "type": "int256"
        },
        {
          "name": "lenderAddress",
          "type": "address"
        }
      ],
      "payable": false,
      "stateMutability": "nonpayable",
      "type": "constructor"
    },
    {
      "constant": true,
      "inputs": [],
      "name": "getCurrentTenor",
      "outputs": [
        {
          "name": "",
          "type": "uint256"
        }
      ],
      "payable": false,
      "stateMutability": "view",
      "type": "function"
    },
    {
      "constant": true,
      "inputs": [],
      "name": "getState",
      "outputs": [
        {
          "name": "",
          "type": "string"
        }
      ],
      "payable": false,
      "stateMutability": "view",
      "type": "function"
    },
    {
      "constant": false,
      "inputs": [
        {
          "name": "_currentTime",
          "type": "uint256"
        }
      ],
      "name": "setBorrowerScore",
      "outputs": [],
      "payable": false,
      "stateMutability": "nonpayable",
      "type": "function"
    },
    {
      "constant": true,
      "inputs": [],
      "name": "getBorrowerDetail",
      "outputs": [
        {
          "name": "",
          "type": "int256"
        },
        {
          "name": "",
          "type": "int256"
        },
        {
          "name": "",
          "type": "string"
        },
        {
          "name": "",
          "type": "string"
        },
        {
          "name": "",
          "type": "string"
        }
      ],
      "payable": false,
      "stateMutability": "view",
      "type": "function"
    },
    {
      "constant": true,
      "inputs": [],
      "name": "getLenderDetail",
      "outputs": [
        {
          "name": "",
          "type": "int256"
        },
        {
          "name": "",
          "type": "int256"
        },
        {
          "name": "",
          "type": "string"
        },
        {
          "name": "",
          "type": "string"
        },
        {
          "name": "",
          "type": "string"
        }
      ],
      "payable": false,
      "stateMutability": "view",
      "type": "function"
    },
    {
      "constant": false,
      "inputs": [
        {
          "name": "_evidence",
          "type": "string"
        },
        {
          "name": "_currentTime",
          "type": "uint256"
        }
      ],
      "name": "setEvidenceStamp",
      "outputs": [
        {
          "name": "",
          "type": "string"
        }
      ],
      "payable": false,
      "stateMutability": "nonpayable",
      "type": "function"
    },
    {
      "constant": false,
      "inputs": [],
      "name": "startNormalLending",
      "outputs": [],
      "payable": false,
      "stateMutability": "nonpayable",
      "type": "function"
    },
    {
      "constant": false,
      "inputs": [
        {
          "name": "evidence",
          "type": "string"
        }
      ],
      "name": "startLending",
      "outputs": [],
      "payable": false,
      "stateMutability": "nonpayable",
      "type": "function"
    },
    {
      "constant": false,
      "inputs": [
        {
          "name": "evidence",
          "type": "string"
        }
      ],
      "name": "finishLending",
      "outputs": [],
      "payable": false,
      "stateMutability": "nonpayable",
      "type": "function"
    },
    {
      "constant": false,
      "inputs": [
        {
          "name": "_currentTime",
          "type": "uint256"
        }
      ],
      "name": "checkOvertimeLending",
      "outputs": [
        {
          "name": "",
          "type": "string"
        }
      ],
      "payable": false,
      "stateMutability": "nonpayable",
      "type": "function"
    }
  ],
  "bytecode": "0x608060405273d0ee9f1b0580897fdb42e3fd14361d89441cf938600b60006101000a81548173ffffffffffffffffffffffffffffffffffffffff021916908373ffffffffffffffffffffffffffffffffffffffff1602179055503480156200006657600080fd5b50604051620024eb380380620024eb83398101806040526200008c919081019062000690565b60008090505b8651811015620001715760a0604051908101604052808883815181101515620000b757fe5b906020019060200201518152602001878152602001600015158152602001602060405190810160405280600081525081526020016000815250600c6000838152602001908152602001600020600082015181600001556020820151816001015560408201518160020160006101000a81548160ff02191690831515021790555060608201518160030190805190602001906200015592919062000489565b5060808201518160040155905050808060010191505062000092565b506080604051908101604052808581526020018473ffffffffffffffffffffffffffffffffffffffff1681526020016000151581526020016020604051908101604052806000815250815250600080820151816000015560208201518160010160006101000a81548173ffffffffffffffffffffffffffffffffffffffff021916908373ffffffffffffffffffffffffffffffffffffffff16021790555060408201518160010160146101000a81548160ff02191690831515021790555060608201518160020190805190602001906200024d92919062000489565b509050506080604051908101604052808381526020018273ffffffffffffffffffffffffffffffffffffffff168152602001600015158152602001602060405190810160405280600081525081525060056000820151816000015560208201518160010160006101000a81548173ffffffffffffffffffffffffffffffffffffffff021916908373ffffffffffffffffffffffffffffffffffffffff16021790555060408201518160010160146101000a81548160ff02191690831515021790555060608201518160020190805190602001906200032d92919062000489565b509050506000600b60009054906101000a900473ffffffffffffffffffffffffffffffffffffffff1673ffffffffffffffffffffffffffffffffffffffff1663c392f7666040518163ffffffff167c0100000000000000000000000000000000000000000000000000000000028152600401604080518083038186803b158015620003b757600080fd5b505afa158015620003cc573d6000803e3d6000fd5b505050506040513d601f19601f82011682018060405250620003f291908101906200073f565b9150506040805190810160405280828152602001885188028152506003600082015181600001556020820151816001015590505086516009819055506040805190810160405280600781526020017f4c454e44494e4700000000000000000000000000000000000000000000000000815250600a90805190602001906200047b92919062000510565b50505050505050506200081f565b828054600181600116156101000203166002900490600052602060002090601f016020900481019282601f10620004cc57805160ff1916838001178555620004fd565b82800160010185558215620004fd579182015b82811115620004fc578251825591602001919060010190620004df565b5b5090506200050c919062000597565b5090565b828054600181600116156101000203166002900490600052602060002090601f016020900481019282601f106200055357805160ff191683800117855562000584565b8280016001018555821562000584579182015b828111156200058357825182559160200191906001019062000566565b5b50905062000593919062000597565b5090565b620005bc91905b80821115620005b85760008160009055506001016200059e565b5090565b90565b6000620005cd8251620007f7565b905092915050565b600082601f8301121515620005e957600080fd5b815162000600620005fa82620007ae565b62000780565b915081818352602084019350602081019050838560208402820111156200062657600080fd5b60005b838110156200065a57816200063f88826200067a565b84526020840193506020830192505060018101905062000629565b5050505092915050565b60006200067282516200080b565b905092915050565b600062000688825162000815565b905092915050565b60008060008060008060c08789031215620006aa57600080fd5b600087015167ffffffffffffffff811115620006c557600080fd5b620006d389828a01620005d5565b9650506020620006e689828a016200067a565b9550506040620006f989828a0162000664565b94505060606200070c89828a01620005bf565b93505060806200071f89828a0162000664565b92505060a06200073289828a01620005bf565b9150509295509295509295565b600080604083850312156200075357600080fd5b6000620007638582860162000664565b9250506020620007768582860162000664565b9150509250929050565b6000604051905081810181811067ffffffffffffffff82111715620007a457600080fd5b8060405250919050565b600067ffffffffffffffff821115620007c657600080fd5b602082029050602081019050919050565b600073ffffffffffffffffffffffffffffffffffffffff82169050919050565b60006200080482620007d7565b9050919050565b6000819050919050565b6000819050919050565b611cbc806200082f6000396000f3fe6080604052600436106100d0576000357c0100000000000000000000000000000000000000000000000000000000900463ffffffff1680631865c57d146100d5578063317192841461010057806334ae36c11461012957806334ee8406146101545780636a5bb5d81461018357806379ecaecf146101c45780637df1f1b914610201578063884ae2321461022f578063bcead63e1461026c578063bd3c9ff61461029a578063c3cd54a2146102b1578063cfa967ae146102dd578063e1adc7ab1461030c578063f1249b1e14610335575b600080fd5b3480156100e157600080fd5b506100ea61035e565b6040516100f79190611a85565b60405180910390f35b34801561010c57600080fd5b5061012760048036036101229190810190611801565b610400565b005b34801561013557600080fd5b5061013e61043b565b60405161014b9190611aa7565b60405180910390f35b34801561016057600080fd5b5061016961049d565b60405161017a959493929190611a1d565b60405180910390f35b34801561018f57600080fd5b506101aa60048036036101a591908101906118d7565b610583565b6040516101bb959493929190611ac2565b60405180910390f35b3480156101d057600080fd5b506101eb60048036036101e69190810190611883565b61065e565b6040516101f89190611a85565b60405180910390f35b34801561020d57600080fd5b50610216610b9b565b60405161022694939291906119a8565b60405180910390f35b34801561023b57600080fd5b50610256600480360361025191908101906118d7565b610c7e565b6040516102639190611a85565b60405180910390f35b34801561027857600080fd5b50610281611009565b60405161029194939291906119a8565b60405180910390f35b3480156102a657600080fd5b506102af6110ec565b005b3480156102bd57600080fd5b506102c66112ab565b6040516102d49291906119f4565b60405180910390f35b3480156102e957600080fd5b506102f26112bd565b604051610303959493929190611a1d565b60405180910390f35b34801561031857600080fd5b50610333600480360361032e9190810190611801565b6113a3565b005b34801561034157600080fd5b5061035c600480360361035791908101906118d7565b611496565b005b6060600a8054600181600116156101000203166002900480601f0160208091040260200160405190810160405280929190818152602001828054600181600116156101000203166002900480156103f65780601f106103cb576101008083540402835291602001916103f6565b820191906000526020600020905b8154815290600101906020018083116103d957829003601f168201915b5050505050905090565b6001600060010160146101000a81548160ff0219169083151502179055508060006002019080519060200190610437929190611573565b5050565b600080600090505b6009548110156104935760001515600c600083815260200190815260200160002060020160009054906101000a900460ff1615151415610486578091505061049a565b8080600101915050610443565b506103e790505b90565b6000806060806060600560010160009054906101000a900473ffffffffffffffffffffffffffffffffffffffff1673ffffffffffffffffffffffffffffffffffffffff16634f8632ba6040518163ffffffff167c010000000000000000000000000000000000000000000000000000000002815260040160006040518083038186803b15801561052c57600080fd5b505afa158015610540573d6000803e3d6000fd5b505050506040513d6000823e3d601f19601f820116820180604052506105699190810190611742565b829250819150809050945094509450945094509091929394565b600c6020528060005260406000206000915090508060000154908060010154908060020160009054906101000a900460ff1690806003018054600181600116156101000203166002900480601f01602080910402602001604051908101604052809291908181526020018280546001816001161561010002031660029004801561064e5780601f106106235761010080835404028352916020019161064e565b820191906000526020600020905b81548152906001019060200180831161063157829003601f168201915b5050505050908060040154905085565b6060600061066a61043b565b905060405180807f535543434553535f4c454e44494e470000000000000000000000000000000000815250600f0190506040518091039020600a60405160200180828054600181600116156101000203166002900480156107025780601f106106e0576101008083540402835291820191610702565b820191906000526020600020905b8154815290600101906020018083116106ee575b50509150506040516020818303038152906040528051906020012014806107d7575060405180807f424f52524f5745525f4e4f545f4143434550540000000000000000000000000081525060130190506040518091039020600a60405160200180828054600181600116156101000203166002900480156107ba5780601f106107985761010080835404028352918201916107ba565b820191906000526020600020905b8154815290600101906020018083116107a6575b505091505060405160208183030381529060405280519060200120145b80610890575060405180807f52454a454354454400000000000000000000000000000000000000000000000081525060080190506040518091039020600a60405160200180828054600181600116156101000203166002900480156108735780601f10610851576101008083540402835291820191610873565b820191906000526020600020905b81548152906001019060200180831161085f575b505091505060405160208183030381529060405280519060200120145b1561093857600a8054600181600116156101000203166002900480601f01602080910402602001604051908101604052809291908181526020018280546001816001161561010002031660029004801561092b5780601f106109005761010080835404028352916020019161092b565b820191906000526020600020905b81548152906001019060200180831161090e57829003601f168201915b5050505050915050610b95565b60095481111515610af65783600c6000838152602001908152602001600020600301908051906020019061096d929190611573565b506001600c600083815260200190815260200160002060020160006101000a81548160ff02191690831515021790555082600c6000838152602001908152602001600020600401819055506009546109c361043b565b1115610ab8576040805190810160405280600f81526020017f535543434553535f4c454e44494e470000000000000000000000000000000000815250600a9080519060200190610a14929190611573565b50600a8054600181600116156101000203166002900480601f016020809104026020016040519081016040528092919081815260200182805460018160011615610100020316600290048015610aab5780601f10610a8057610100808354040283529160200191610aab565b820191906000526020600020905b815481529060010190602001808311610a8e57829003601f168201915b5050505050915050610b95565b6040805190810160405280600b81526020017f5041595f53554343455353000000000000000000000000000000000000000000815250915050610b95565b600a8054600181600116156101000203166002900480601f016020809104026020016040519081016040528092919081815260200182805460018160011615610100020316600290048015610b8c5780601f10610b6157610100808354040283529160200191610b8c565b820191906000526020600020905b815481529060010190602001808311610b6f57829003601f168201915b50505050509150505b92915050565b60008060000154908060010160009054906101000a900473ffffffffffffffffffffffffffffffffffffffff16908060010160149054906101000a900460ff1690806002018054600181600116156101000203166002900480601f016020809104026020016040519081016040528092919081815260200182805460018160011615610100020316600290048015610c745780601f10610c4957610100808354040283529160200191610c74565b820191906000526020600020905b815481529060010190602001808311610c5757829003601f168201915b5050505050905084565b60606000610c8a61043b565b905060405180807f4c454e44494e470000000000000000000000000000000000000000000000000081525060070190506040518091039020600a6040516020018082805460018160011615610100020316600290048015610d225780601f10610d00576101008083540402835291820191610d22565b820191906000526020600020905b815481529060010190602001808311610d0e575b5050915050604051602081830303815290604052805190602001201480610df7575060405180807f4c454e44494e475f4c4154450000000000000000000000000000000000000000815250600c0190506040518091039020600a6040516020018082805460018160011615610100020316600290048015610dda5780601f10610db8576101008083540402835291820191610dda565b820191906000526020600020905b815481529060010190602001808311610dc6575b505091505060405160208183030381529060405280519060200120145b15610ee85762093a80600c6000838152602001908152602001600020600001540183101515610e71576040805190810160405280600881526020017f52454a4543544544000000000000000000000000000000000000000000000000815250600a9080519060200190610e6b929190611573565b50610ee3565b62015180600c6000838152602001908152602001600020600001540183101515610ee2576040805190810160405280600c81526020017f4c454e44494e475f4c4154450000000000000000000000000000000000000000815250600a9080519060200190610ee0929190611573565b505b5b610f66565b60001515600060010160149054906101000a900460ff1615151415610f65576203f4806008540183101515610f64576040805190810160405280601381526020017f424f52524f5745525f4e4f545f41434345505400000000000000000000000000815250600a9080519060200190610f62929190611573565b505b5b5b600a8054600181600116156101000203166002900480601f016020809104026020016040519081016040528092919081815260200182805460018160011615610100020316600290048015610ffc5780601f10610fd157610100808354040283529160200191610ffc565b820191906000526020600020905b815481529060010190602001808311610fdf57829003601f168201915b5050505050915050919050565b60058060000154908060010160009054906101000a900473ffffffffffffffffffffffffffffffffffffffff16908060010160149054906101000a900460ff1690806002018054600181600116156101000203166002900480601f0160208091040260200160405190810160405280929190818152602001828054600181600116156101000203166002900480156110e25780601f106110b7576101008083540402835291602001916110e2565b820191906000526020600020905b8154815290600101906020018083116110c557829003601f168201915b5050505050905084565b60405180807f4c454e44494e470000000000000000000000000000000000000000000000000081525060070190506040518091039020600a60405160200180828054600181600116156101000203166002900480156111825780601f10611160576101008083540402835291820191611182565b820191906000526020600020905b81548152906001019060200180831161116e575b5050915050604051602081830303815290604052805190602001201480611257575060405180807f4c454e44494e475f4c4154450000000000000000000000000000000000000000815250600c0190506040518091039020600a604051602001808280546001816001161561010002031660029004801561123a5780601f1061121857610100808354040283529182019161123a565b820191906000526020600020905b815481529060010190602001808311611226575b505091505060405160208183030381529060405280519060200120145b156112a9576040805190810160405280600781526020017f4c454e44494e4700000000000000000000000000000000000000000000000000815250600a90805190602001906112a7929190611573565b505b565b60038060000154908060010154905082565b6000806060806060600060010160009054906101000a900473ffffffffffffffffffffffffffffffffffffffff1673ffffffffffffffffffffffffffffffffffffffff16634f8632ba6040518163ffffffff167c010000000000000000000000000000000000000000000000000000000002815260040160006040518083038186803b15801561134c57600080fd5b505afa158015611360573d6000803e3d6000fd5b505050506040513d6000823e3d601f19601f820116820180604052506113899190810190611742565b829250819150809050945094509450945094509091929394565b60405180807f535543434553535f4c454e44494e470000000000000000000000000000000000815250600f0190506040518091039020600a60405160200180828054600181600116156101000203166002900480156114395780601f10611417576101008083540402835291820191611439565b820191906000526020600020905b815481529060010190602001808311611425575b5050915050604051602081830303815290604052805190602001201415611493576001600560010160146101000a81548160ff0219169083151502179055508060056002019080519060200190611491929190611573565b505b50565b600060010160009054906101000a900473ffffffffffffffffffffffffffffffffffffffff1673ffffffffffffffffffffffffffffffffffffffff16637858eb7b6114e083610c7e565b6040518263ffffffff167c01000000000000000000000000000000000000000000000000000000000281526004016115189190611a85565b600060405180830381600087803b15801561153257600080fd5b505af1158015611546573d6000803e3d6000fd5b505050506040513d6000823e3d601f19601f8201168201806040525061156f9190810190611842565b5050565b828054600181600116156101000203166002900490600052602060002090601f016020900481019282601f106115b457805160ff19168380011785556115e2565b828001600101855582156115e2579182015b828111156115e15782518255916020019190600101906115c6565b5b5090506115ef91906115f3565b5090565b61161591905b808211156116115760008160009055506001016115f9565b5090565b90565b60006116248251611bf7565b905092915050565b600082601f830112151561163f57600080fd5b815161165261164d82611b49565b611b1c565b9150808252602083016020830185838301111561166e57600080fd5b611679838284611c3e565b50505092915050565b600082601f830112151561169557600080fd5b81356116a86116a382611b75565b611b1c565b915080825260208301602083018583830111156116c457600080fd5b6116cf838284611c2f565b50505092915050565b600082601f83011215156116eb57600080fd5b81516116fe6116f982611b75565b611b1c565b9150808252602083016020830185838301111561171a57600080fd5b611725838284611c3e565b50505092915050565b600061173a8235611c01565b905092915050565b600080600080600060a0868803121561175a57600080fd5b600061176888828901611618565b955050602061177988828901611618565b945050604086015167ffffffffffffffff81111561179657600080fd5b6117a28882890161162c565b935050606086015167ffffffffffffffff8111156117bf57600080fd5b6117cb8882890161162c565b925050608086015167ffffffffffffffff8111156117e857600080fd5b6117f48882890161162c565b9150509295509295909350565b60006020828403121561181357600080fd5b600082013567ffffffffffffffff81111561182d57600080fd5b61183984828501611682565b91505092915050565b60006020828403121561185457600080fd5b600082015167ffffffffffffffff81111561186e57600080fd5b61187a848285016116d8565b91505092915050565b6000806040838503121561189657600080fd5b600083013567ffffffffffffffff8111156118b057600080fd5b6118bc85828601611682565b92505060206118cd8582860161172e565b9150509250929050565b6000602082840312156118e957600080fd5b60006118f78482850161172e565b91505092915050565b61190981611bb7565b82525050565b61191881611c0b565b82525050565b61192781611bc3565b82525050565b600061193882611bac565b80845261194c816020860160208601611c3e565b61195581611c71565b602085010191505092915050565b600061196e82611ba1565b808452611982816020860160208601611c3e565b61198b81611c71565b602085010191505092915050565b6119a281611bed565b82525050565b60006080820190506119bd600083018761191e565b6119ca602083018661190f565b6119d76040830185611900565b81810360608301526119e98184611963565b905095945050505050565b6000604082019050611a09600083018561191e565b611a16602083018461191e565b9392505050565b600060a082019050611a32600083018861191e565b611a3f602083018761191e565b8181036040830152611a51818661192d565b90508181036060830152611a65818561192d565b90508181036080830152611a79818461192d565b90509695505050505050565b60006020820190508181036000830152611a9f818461192d565b905092915050565b6000602082019050611abc6000830184611999565b92915050565b600060a082019050611ad76000830188611999565b611ae46020830187611999565b611af16040830186611900565b8181036060830152611b038185611963565b9050611b126080830184611999565b9695505050505050565b6000604051905081810181811067ffffffffffffffff82111715611b3f57600080fd5b8060405250919050565b600067ffffffffffffffff821115611b6057600080fd5b601f19601f8301169050602081019050919050565b600067ffffffffffffffff821115611b8c57600080fd5b601f19601f8301169050602081019050919050565b600081519050919050565b600081519050919050565b60008115159050919050565b6000819050919050565b600073ffffffffffffffffffffffffffffffffffffffff82169050919050565b6000819050919050565b6000819050919050565b6000819050919050565b6000611c1682611c1d565b9050919050565b6000611c2882611bcd565b9050919050565b82818337600083830152505050565b60005b83811015611c5c578082015181840152602081019050611c41565b83811115611c6b576000848401525b50505050565b6000601f19601f830116905091905056fea265627a7a72305820cbc50c2860b4f7144eb7b76f10318a91543c3eda370459057a8e5a8504465d546c6578706572696d656e74616cf50037",
  "source": "pragma solidity >=0.4.25 <0.7.0;\r\npragma experimental ABIEncoderV2;\r\nimport \"./Manner.sol\";\r\nimport \"./Interest.sol\";\r\n\r\n\r\ncontract Lending {\r\n    struct ContractStruct {\r\n        uint256 date;\r\n        uint256 amount;\r\n        bool isPaid;\r\n        string evidence;\r\n        uint256 paidDate;\r\n    }\r\n    struct UserContractStruct {\r\n        int256 id;\r\n        Manner manner;\r\n        bool withdrawn;\r\n        string evidence;\r\n    }\r\n    struct LenderContract {\r\n        int256 fee;\r\n        int256 amount;\r\n    }\r\n    // Contractdata\r\n    UserContractStruct public borrower;\r\n    LenderContract public lenderContract;\r\n    UserContractStruct public lender;\r\n    uint256 startTime;\r\n    uint256 tenor;\r\n    string state;\r\n    Interest interest = Interest(0xd0ee9F1B0580897FdB42e3fD14361D89441Cf938);\r\n    mapping(uint256 => ContractStruct) public contractList;\r\n\r\n    //\r\n    constructor(\r\n        uint256[] memory dateList,\r\n        uint256 amount,\r\n        int256 _borrowerId,\r\n        address borrowerAddress,\r\n        int256 _lenderId,\r\n        address lenderAddress\r\n    ) public {\r\n        for (uint256 i = 0; i < dateList.length; i++) {\r\n            contractList[i] = ContractStruct({\r\n                date: dateList[i],\r\n                amount: amount,\r\n                isPaid: false,\r\n                evidence: \"\",\r\n                paidDate: 0\r\n            });\r\n        }\r\n        borrower = UserContractStruct({\r\n            id: _borrowerId,\r\n            manner: Manner(borrowerAddress),\r\n            withdrawn: false,\r\n            evidence: \"\"\r\n        });\r\n        lender = UserContractStruct({\r\n            id: _lenderId,\r\n            manner: Manner(lenderAddress),\r\n            withdrawn: false,\r\n            evidence: \"\"\r\n        });\r\n        (, int256 fee) = interest.interest();\r\n        lenderContract = LenderContract({\r\n            fee: (fee),\r\n            amount: int256(amount * dateList.length)\r\n        });\r\n        tenor = dateList.length;\r\n        state = \"LENDING\";\r\n    }\r\n\r\n    function getCurrentTenor() public view returns (uint256) {\r\n        for (uint256 i = 0; i < tenor; i++) {\r\n            if (contractList[i].isPaid == false) {\r\n                return i;\r\n            }\r\n        }\r\n        return 999;\r\n    }\r\n\r\n    function getState() public view returns (string memory) {\r\n        return state;\r\n    }\r\n\r\n    function setBorrowerScore(uint256 _currentTime) public {\r\n        borrower.manner.setScore(checkOvertimeLending(_currentTime));\r\n    }\r\n\r\n    function getBorrowerDetail()\r\n        public\r\n        view\r\n        returns (int256, int256, string memory, string memory, string memory)\r\n    {\r\n        return borrower.manner.user();\r\n    }\r\n\r\n    function getLenderDetail()\r\n        public\r\n        view\r\n        returns (int256, int256, string memory, string memory, string memory)\r\n    {\r\n        return lender.manner.user();\r\n    }\r\n\r\n    function setEvidenceStamp(string memory _evidence, uint256 _currentTime)\r\n        public\r\n        returns (string memory)\r\n    {\r\n        uint256 current = getCurrentTenor();\r\n        if (\r\n            keccak256(abi.encodePacked(state)) ==\r\n            keccak256(\"SUCCESS_LENDING\") ||\r\n            keccak256(abi.encodePacked(state)) ==\r\n            keccak256(\"BORROWER_NOT_ACCEPT\") ||\r\n            keccak256(abi.encodePacked(state)) == keccak256(\"REJECTED\")\r\n        ) {\r\n            return state;\r\n        } else if (current <= tenor) {\r\n            contractList[current].evidence = _evidence;\r\n            contractList[current].isPaid = true;\r\n            contractList[current].paidDate = _currentTime;\r\n            if (getCurrentTenor() > tenor) {\r\n                state = \"SUCCESS_LENDING\";\r\n                return state;\r\n            } else {\r\n                return \"PAY_SUCCESS\";\r\n            }\r\n        }\r\n        return state;\r\n    }\r\n\r\n    function startNormalLending() public {\r\n        if (\r\n            keccak256(abi.encodePacked(state)) == keccak256(\"LENDING\") ||\r\n            keccak256(abi.encodePacked(state)) == keccak256(\"LENDING_LATE\")\r\n        ) {\r\n            state = \"LENDING\";\r\n        }\r\n    }\r\n\r\n    function startLending(string memory evidence) public {\r\n        borrower.withdrawn = true;\r\n        borrower.evidence = evidence;\r\n    }\r\n\r\n    function finishLending(string memory evidence) public {\r\n        if (\r\n            keccak256(abi.encodePacked(state)) == keccak256(\"SUCCESS_LENDING\")\r\n        ) {\r\n            lender.withdrawn = true;\r\n            lender.evidence = evidence;\r\n        }\r\n    }\r\n\r\n    function checkOvertimeLending(uint256 _currentTime)\r\n        public\r\n        returns (string memory)\r\n    {\r\n        uint256 current = getCurrentTenor();\r\n        if (\r\n            keccak256(abi.encodePacked(state)) == keccak256(\"LENDING\") ||\r\n            keccak256(abi.encodePacked(state)) == keccak256(\"LENDING_LATE\")\r\n        ) {\r\n            if (_currentTime >= contractList[current].date + 604800) {\r\n                state = \"REJECTED\";\r\n            } else if ((_currentTime >= contractList[current].date + 86400)) {\r\n                state = \"LENDING_LATE\";\r\n            }\r\n        } else if (borrower.withdrawn == false) {\r\n            if (_currentTime >= startTime + 259200) {\r\n                state = \"BORROWER_NOT_ACCEPT\";\r\n            }\r\n        }\r\n        return state;\r\n    }\r\n}\r\n",
  "sourcePath": "D:/work/P2P_lending/blockchain/contracts/Lending.sol",
  "compiler": {
    "name": "solc",
    "version": "0.5.0+commit.1d4f565a.Emscripten.clang"
  },
  "schemaVersion": "3.0.1",
  "updatedAt": "2020-04-02T09:00:22.098Z",
  "devdoc": {
    "methods": {}
  },
  "userdoc": {
    "methods": {}
  }
}