{
  "contractName": "Lending",
  "abi": [
    {
      "constant": true,
      "inputs": [
        {
          "name": "",
          "type": "uint256"
        }
      ],
      "name": "contractList",
      "outputs": [
        {
          "name": "date",
          "type": "uint256"
        },
        {
          "name": "amount",
          "type": "uint256"
        },
        {
          "name": "isPaid",
          "type": "bool"
        },
        {
          "name": "evidence",
          "type": "string"
        },
        {
          "name": "paidDate",
          "type": "uint256"
        }
      ],
      "payable": false,
      "stateMutability": "view",
      "type": "function"
    },
    {
      "constant": true,
      "inputs": [],
      "name": "borrower",
      "outputs": [
        {
          "name": "id",
          "type": "int256"
        },
        {
          "name": "manner",
          "type": "address"
        }
      ],
      "payable": false,
      "stateMutability": "view",
      "type": "function"
    },
    {
      "constant": true,
      "inputs": [],
      "name": "lender",
      "outputs": [
        {
          "name": "id",
          "type": "int256"
        },
        {
          "name": "manner",
          "type": "address"
        }
      ],
      "payable": false,
      "stateMutability": "view",
      "type": "function"
    },
    {
      "inputs": [
        {
          "name": "dateList",
          "type": "uint256[]"
        },
        {
          "name": "amount",
          "type": "uint256"
        },
        {
          "name": "_borrowerId",
          "type": "int256"
        },
        {
          "name": "borrowerAddress",
          "type": "address"
        },
        {
          "name": "_lenderId",
          "type": "int256"
        },
        {
          "name": "lenderAddress",
          "type": "address"
        }
      ],
      "payable": false,
      "stateMutability": "nonpayable",
      "type": "constructor"
    },
    {
      "constant": true,
      "inputs": [],
      "name": "getCurrentTenor",
      "outputs": [
        {
          "name": "",
          "type": "uint256"
        }
      ],
      "payable": false,
      "stateMutability": "view",
      "type": "function"
    },
    {
      "constant": true,
      "inputs": [],
      "name": "getState",
      "outputs": [
        {
          "name": "",
          "type": "string"
        }
      ],
      "payable": false,
      "stateMutability": "view",
      "type": "function"
    },
    {
      "constant": false,
      "inputs": [
        {
          "name": "_currentTime",
          "type": "uint256"
        }
      ],
      "name": "setBorrowerScore",
      "outputs": [],
      "payable": false,
      "stateMutability": "nonpayable",
      "type": "function"
    },
    {
      "constant": true,
      "inputs": [],
      "name": "getBorrowerDetail",
      "outputs": [
        {
          "name": "",
          "type": "int256"
        },
        {
          "name": "",
          "type": "int256"
        },
        {
          "name": "",
          "type": "string"
        },
        {
          "name": "",
          "type": "string"
        },
        {
          "name": "",
          "type": "string"
        },
        {
          "name": "",
          "type": "uint256"
        }
      ],
      "payable": false,
      "stateMutability": "view",
      "type": "function"
    },
    {
      "constant": true,
      "inputs": [],
      "name": "getLenderDetail",
      "outputs": [
        {
          "name": "",
          "type": "int256"
        },
        {
          "name": "",
          "type": "int256"
        },
        {
          "name": "",
          "type": "string"
        },
        {
          "name": "",
          "type": "string"
        },
        {
          "name": "",
          "type": "string"
        },
        {
          "name": "",
          "type": "uint256"
        }
      ],
      "payable": false,
      "stateMutability": "view",
      "type": "function"
    },
    {
      "constant": false,
      "inputs": [
        {
          "name": "_evidence",
          "type": "string"
        },
        {
          "name": "_currentTime",
          "type": "uint256"
        }
      ],
      "name": "setEvidenceStamp",
      "outputs": [
        {
          "name": "",
          "type": "string"
        }
      ],
      "payable": false,
      "stateMutability": "nonpayable",
      "type": "function"
    },
    {
      "constant": false,
      "inputs": [],
      "name": "startNormalLending",
      "outputs": [],
      "payable": false,
      "stateMutability": "nonpayable",
      "type": "function"
    },
    {
      "constant": false,
      "inputs": [
        {
          "name": "_currentTime",
          "type": "uint256"
        }
      ],
      "name": "checkOvertimeLending",
      "outputs": [
        {
          "name": "",
          "type": "string"
        }
      ],
      "payable": false,
      "stateMutability": "nonpayable",
      "type": "function"
    }
  ],
  "bytecode": "0x60806040523480156200001157600080fd5b5060405162001ffa38038062001ffa833981018060405262000037919081019062000487565b60008090505b86518110156200011c5760a06040519081016040528088838151811015156200006257fe5b90602001906020020151815260200187815260200160001515815260200160206040519081016040528060008152508152602001600081525060076000838152602001908152602001600020600082015181600001556020820151816001015560408201518160020160006101000a81548160ff02191690831515021790555060608201518160030190805190602001906200010092919062000280565b506080820151816004015590505080806001019150506200003d565b5060408051908101604052808581526020018473ffffffffffffffffffffffffffffffffffffffff16815250600080820151816000015560208201518160010160006101000a81548173ffffffffffffffffffffffffffffffffffffffff021916908373ffffffffffffffffffffffffffffffffffffffff16021790555090505060408051908101604052808381526020018273ffffffffffffffffffffffffffffffffffffffff1681525060026000820151816000015560208201518160010160006101000a81548173ffffffffffffffffffffffffffffffffffffffff021916908373ffffffffffffffffffffffffffffffffffffffff16021790555090505085516005819055506040805190810160405280601d81526020017f57414954494e475f424f52524f5745525f4143434550545f4d4f4e4559000000815250600690805190602001906200027392919062000307565b50505050505050620005d5565b828054600181600116156101000203166002900490600052602060002090601f016020900481019282601f10620002c357805160ff1916838001178555620002f4565b82800160010185558215620002f4579182015b82811115620002f3578251825591602001919060010190620002d6565b5b5090506200030391906200038e565b5090565b828054600181600116156101000203166002900490600052602060002090601f016020900481019282601f106200034a57805160ff19168380011785556200037b565b828001600101855582156200037b579182015b828111156200037a5782518255916020019190600101906200035d565b5b5090506200038a91906200038e565b5090565b620003b391905b80821115620003af57600081600090555060010162000395565b5090565b90565b6000620003c48251620005ad565b905092915050565b600082601f8301121515620003e057600080fd5b8151620003f7620003f18262000564565b62000536565b915081818352602084019350602081019050838560208402820111156200041d57600080fd5b60005b8381101562000451578162000436888262000471565b84526020840193506020830192505060018101905062000420565b5050505092915050565b6000620004698251620005c1565b905092915050565b60006200047f8251620005cb565b905092915050565b60008060008060008060c08789031215620004a157600080fd5b600087015167ffffffffffffffff811115620004bc57600080fd5b620004ca89828a01620003cc565b9650506020620004dd89828a0162000471565b9550506040620004f089828a016200045b565b94505060606200050389828a01620003b6565b93505060806200051689828a016200045b565b92505060a06200052989828a01620003b6565b9150509295509295509295565b6000604051905081810181811067ffffffffffffffff821117156200055a57600080fd5b8060405250919050565b600067ffffffffffffffff8211156200057c57600080fd5b602082029050602081019050919050565b600073ffffffffffffffffffffffffffffffffffffffff82169050919050565b6000620005ba826200058d565b9050919050565b6000819050919050565b6000819050919050565b611a1580620005e56000396000f3fe6080604052600436106100af576000357c0100000000000000000000000000000000000000000000000000000000900463ffffffff1680631865c57d146100b457806334ae36c1146100df57806334ee84061461010a5780636a5bb5d81461013a57806379ecaecf1461017b5780637df1f1b9146101b8578063884ae232146101e4578063bcead63e14610221578063bd3c9ff61461024d578063cfa967ae14610264578063f1249b1e14610294575b600080fd5b3480156100c057600080fd5b506100c96102bd565b6040516100d691906117de565b60405180910390f35b3480156100eb57600080fd5b506100f461035f565b6040516101019190611800565b60405180910390f35b34801561011657600080fd5b5061011f6103c1565b60405161013196959493929190611768565b60405180910390f35b34801561014657600080fd5b50610161600480360361015c919081019061166e565b6104ac565b60405161017295949392919061181b565b60405180910390f35b34801561018757600080fd5b506101a2600480360361019d919081019061161a565b610587565b6040516101af91906117de565b60405180910390f35b3480156101c457600080fd5b506101cd610a5f565b6040516101db92919061173f565b60405180910390f35b3480156101f057600080fd5b5061020b6004803603610206919081019061166e565b610a91565b60405161021891906117de565b60405180910390f35b34801561022d57600080fd5b50610236610eb4565b60405161024492919061173f565b60405180910390f35b34801561025957600080fd5b50610262610ee6565b005b34801561027057600080fd5b5061027961115e565b60405161028b96959493929190611768565b60405180910390f35b3480156102a057600080fd5b506102bb60048036036102b6919081019061166e565b611248565b005b606060068054600181600116156101000203166002900480601f0160208091040260200160405190810160405280929190818152602001828054600181600116156101000203166002900480156103555780601f1061032a57610100808354040283529160200191610355565b820191906000526020600020905b81548152906001019060200180831161033857829003601f168201915b5050505050905090565b600080600090505b6005548110156103b757600015156007600083815260200190815260200160002060020160009054906101000a900460ff16151514156103aa57809150506103be565b8080600101915050610367565b506103e790505b90565b60008060608060606000600260010160009054906101000a900473ffffffffffffffffffffffffffffffffffffffff1673ffffffffffffffffffffffffffffffffffffffff16634f8632ba6040518163ffffffff167c010000000000000000000000000000000000000000000000000000000002815260040160006040518083038186803b15801561045257600080fd5b505afa158015610466573d6000803e3d6000fd5b505050506040513d6000823e3d601f19601f8201168201806040525061048f9190810190611508565b839350829250819150955095509550955095509550909192939495565b60076020528060005260406000206000915090508060000154908060010154908060020160009054906101000a900460ff1690806003018054600181600116156101000203166002900480601f0160208091040260200160405190810160405280929190818152602001828054600181600116156101000203166002900480156105775780601f1061054c57610100808354040283529160200191610577565b820191906000526020600020905b81548152906001019060200180831161055a57829003601f168201915b5050505050908060040154905085565b6060600061059361035f565b905060405180807f535543434553535f4c454e44494e470000000000000000000000000000000000815250600f01905060405180910390206006604051602001808280546001816001161561010002031660029004801561062b5780601f1061060957610100808354040283529182019161062b565b820191906000526020600020905b815481529060010190602001808311610617575b5050915050604051602081830303815290604052805190602001201480610700575060405180807f424f52524f5745525f4e4f545f4143434550540000000000000000000000000081525060130190506040518091039020600660405160200180828054600181600116156101000203166002900480156106e35780601f106106c15761010080835404028352918201916106e3565b820191906000526020600020905b8154815290600101906020018083116106cf575b505091505060405160208183030381529060405280519060200120145b806107b9575060405180807f52454a4543544544000000000000000000000000000000000000000000000000815250600801905060405180910390206006604051602001808280546001816001161561010002031660029004801561079c5780601f1061077a57610100808354040283529182019161079c565b820191906000526020600020905b815481529060010190602001808311610788575b505091505060405160208183030381529060405280519060200120145b156108615760068054600181600116156101000203166002900480601f0160208091040260200160405190810160405280929190818152602001828054600181600116156101000203166002900480156108545780601f1061082957610100808354040283529160200191610854565b820191906000526020600020905b81548152906001019060200180831161083757829003601f168201915b5050505050915050610a59565b600554811115156109ba5783600760008381526020019081526020016000206003019080519060200190610896929190611325565b5060016007600083815260200190815260200160002060020160006101000a81548160ff0219169083151502179055508260076000838152602001908152602001600020600401819055506005546108ec61035f565b111561097c576040805190810160405280600f81526020017f535543434553535f4c454e44494e4700000000000000000000000000000000008152506006908051906020019061093d929190611325565b506040805190810160405280600f81526020017f535543434553535f4c454e44494e470000000000000000000000000000000000815250915050610a59565b6040805190810160405280600b81526020017f5041595f53554343455353000000000000000000000000000000000000000000815250915050610a59565b60068054600181600116156101000203166002900480601f016020809104026020016040519081016040528092919081815260200182805460018160011615610100020316600290048015610a505780601f10610a2557610100808354040283529160200191610a50565b820191906000526020600020905b815481529060010190602001808311610a3357829003601f168201915b50505050509150505b92915050565b60008060000154908060010160009054906101000a900473ffffffffffffffffffffffffffffffffffffffff16905082565b60606000610a9d61035f565b905060405180807f4c454e44494e47000000000000000000000000000000000000000000000000008152506007019050604051809103902060066040516020018082805460018160011615610100020316600290048015610b355780601f10610b13576101008083540402835291820191610b35565b820191906000526020600020905b815481529060010190602001808311610b21575b5050915050604051602081830303815290604052805190602001201480610c0a575060405180807f4c454e44494e475f4c4154450000000000000000000000000000000000000000815250600c019050604051809103902060066040516020018082805460018160011615610100020316600290048015610bed5780601f10610bcb576101008083540402835291820191610bed565b820191906000526020600020905b815481529060010190602001808311610bd9575b505091505060405160208183030381529060405280519060200120145b15610cfb5762093a8060076000838152602001908152602001600020600001540183101515610c84576040805190810160405280600881526020017f52454a454354454400000000000000000000000000000000000000000000000081525060069080519060200190610c7e929190611325565b50610cf6565b6201518060076000838152602001908152602001600020600001540183101515610cf5576040805190810160405280600c81526020017f4c454e44494e475f4c415445000000000000000000000000000000000000000081525060069080519060200190610cf3929190611325565b505b5b610e11565b60405180807f57414954494e475f424f52524f5745525f4143434550545f4d4f4e4559000000815250601d019050604051809103902060066040516020018082805460018160011615610100020316600290048015610d915780601f10610d6f576101008083540402835291820191610d91565b820191906000526020600020905b815481529060010190602001808311610d7d575b5050915050604051602081830303815290604052805190602001201415610e10576203f4806004540183101515610e0f576040805190810160405280601381526020017f424f52524f5745525f4e4f545f4143434550540000000000000000000000000081525060069080519060200190610e0d929190611325565b505b5b5b60068054600181600116156101000203166002900480601f016020809104026020016040519081016040528092919081815260200182805460018160011615610100020316600290048015610ea75780601f10610e7c57610100808354040283529160200191610ea7565b820191906000526020600020905b815481529060010190602001808311610e8a57829003601f168201915b5050505050915050919050565b60028060000154908060010160009054906101000a900473ffffffffffffffffffffffffffffffffffffffff16905082565b60405180807f4c454e44494e47000000000000000000000000000000000000000000000000008152506007019050604051809103902060066040516020018082805460018160011615610100020316600290048015610f7c5780601f10610f5a576101008083540402835291820191610f7c565b820191906000526020600020905b815481529060010190602001808311610f68575b5050915050604051602081830303815290604052805190602001201480611051575060405180807f4c454e44494e475f4c4154450000000000000000000000000000000000000000815250600c0190506040518091039020600660405160200180828054600181600116156101000203166002900480156110345780601f10611012576101008083540402835291820191611034565b820191906000526020600020905b815481529060010190602001808311611020575b505091505060405160208183030381529060405280519060200120145b8061110a575060405180807f57414954494e475f424f52524f5745525f4143434550545f4d4f4e4559000000815250601d0190506040518091039020600660405160200180828054600181600116156101000203166002900480156110ed5780601f106110cb5761010080835404028352918201916110ed565b820191906000526020600020905b8154815290600101906020018083116110d9575b505091505060405160208183030381529060405280519060200120145b1561115c576040805190810160405280600781526020017f4c454e44494e47000000000000000000000000000000000000000000000000008152506006908051906020019061115a929190611325565b505b565b600080606080606060008060010160009054906101000a900473ffffffffffffffffffffffffffffffffffffffff1673ffffffffffffffffffffffffffffffffffffffff16634f8632ba6040518163ffffffff167c010000000000000000000000000000000000000000000000000000000002815260040160006040518083038186803b1580156111ee57600080fd5b505afa158015611202573d6000803e3d6000fd5b505050506040513d6000823e3d601f19601f8201168201806040525061122b9190810190611508565b839350829250819150955095509550955095509550909192939495565b600060010160009054906101000a900473ffffffffffffffffffffffffffffffffffffffff1673ffffffffffffffffffffffffffffffffffffffff16637858eb7b61129283610a91565b6040518263ffffffff167c01000000000000000000000000000000000000000000000000000000000281526004016112ca91906117de565b600060405180830381600087803b1580156112e457600080fd5b505af11580156112f8573d6000803e3d6000fd5b505050506040513d6000823e3d601f19601f8201168201806040525061132191908101906115d9565b5050565b828054600181600116156101000203166002900490600052602060002090601f016020900481019282601f1061136657805160ff1916838001178555611394565b82800160010185558215611394579182015b82811115611393578251825591602001919060010190611378565b5b5090506113a191906113a5565b5090565b6113c791905b808211156113c35760008160009055506001016113ab565b5090565b90565b60006113d68251611950565b905092915050565b600082601f83011215156113f157600080fd5b81516114046113ff826118a2565b611875565b9150808252602083016020830185838301111561142057600080fd5b61142b838284611997565b50505092915050565b600082601f830112151561144757600080fd5b813561145a611455826118ce565b611875565b9150808252602083016020830185838301111561147657600080fd5b611481838284611988565b50505092915050565b600082601f830112151561149d57600080fd5b81516114b06114ab826118ce565b611875565b915080825260208301602083018583830111156114cc57600080fd5b6114d7838284611997565b50505092915050565b60006114ec823561195a565b905092915050565b6000611500825161195a565b905092915050565b60008060008060008060c0878903121561152157600080fd5b600061152f89828a016113ca565b965050602061154089828a016113ca565b955050604087015167ffffffffffffffff81111561155d57600080fd5b61156989828a016113de565b945050606087015167ffffffffffffffff81111561158657600080fd5b61159289828a016113de565b935050608087015167ffffffffffffffff8111156115af57600080fd5b6115bb89828a016113de565b92505060a06115cc89828a016114f4565b9150509295509295509295565b6000602082840312156115eb57600080fd5b600082015167ffffffffffffffff81111561160557600080fd5b6116118482850161148a565b91505092915050565b6000806040838503121561162d57600080fd5b600083013567ffffffffffffffff81111561164757600080fd5b61165385828601611434565b9250506020611664858286016114e0565b9150509250929050565b60006020828403121561168057600080fd5b600061168e848285016114e0565b91505092915050565b6116a081611910565b82525050565b6116af81611964565b82525050565b6116be8161191c565b82525050565b60006116cf82611905565b8084526116e3816020860160208601611997565b6116ec816119ca565b602085010191505092915050565b6000611705826118fa565b808452611719816020860160208601611997565b611722816119ca565b602085010191505092915050565b61173981611946565b82525050565b600060408201905061175460008301856116b5565b61176160208301846116a6565b9392505050565b600060c08201905061177d60008301896116b5565b61178a60208301886116b5565b818103604083015261179c81876116c4565b905081810360608301526117b081866116c4565b905081810360808301526117c481856116c4565b90506117d360a0830184611730565b979650505050505050565b600060208201905081810360008301526117f881846116c4565b905092915050565b60006020820190506118156000830184611730565b92915050565b600060a0820190506118306000830188611730565b61183d6020830187611730565b61184a6040830186611697565b818103606083015261185c81856116fa565b905061186b6080830184611730565b9695505050505050565b6000604051905081810181811067ffffffffffffffff8211171561189857600080fd5b8060405250919050565b600067ffffffffffffffff8211156118b957600080fd5b601f19601f8301169050602081019050919050565b600067ffffffffffffffff8211156118e557600080fd5b601f19601f8301169050602081019050919050565b600081519050919050565b600081519050919050565b60008115159050919050565b6000819050919050565b600073ffffffffffffffffffffffffffffffffffffffff82169050919050565b6000819050919050565b6000819050919050565b6000819050919050565b600061196f82611976565b9050919050565b600061198182611926565b9050919050565b82818337600083830152505050565b60005b838110156119b557808201518184015260208101905061199a565b838111156119c4576000848401525b50505050565b6000601f19601f830116905091905056fea265627a7a72305820bca44d2752d82619743471cb5922e9940923280bb05953a14bdd9d645048c6bc6c6578706572696d656e74616cf50037",
  "source": "pragma solidity >=0.4.25 <0.7.0;\r\npragma experimental ABIEncoderV2;\r\nimport \"./Manner.sol\";\r\ncontract Lending {\r\n    struct ContractStruct {\r\n        uint256 date;\r\n        uint256 amount;\r\n        bool isPaid;\r\n        string evidence;\r\n        uint256 paidDate;\r\n    }\r\n    struct UserContractStruct {\r\n        int256 id;\r\n        Manner manner;\r\n    }\r\n    // Contractdata\r\n    UserContractStruct public borrower;\r\n    UserContractStruct public lender;\r\n    uint256 startTime;\r\n    uint256 tenor;\r\n    string state;\r\n    mapping(uint256 => ContractStruct) public contractList;\r\n    //\r\n    constructor(\r\n        uint256[] memory dateList,\r\n        uint256 amount,\r\n        int256 _borrowerId,\r\n        address borrowerAddress,\r\n        int256 _lenderId,\r\n        address lenderAddress\r\n    ) public {\r\n        for (uint256 i = 0; i < dateList.length; i++) {\r\n            contractList[i] = ContractStruct({\r\n                date: dateList[i],\r\n                amount: amount,\r\n                isPaid: false,\r\n                evidence: \"\",\r\n                paidDate: 0\r\n            });\r\n        }\r\n        borrower = UserContractStruct({\r\n            id: _borrowerId,\r\n            manner: Manner(borrowerAddress)\r\n        });\r\n        lender = UserContractStruct({\r\n            id: _lenderId,\r\n            manner: Manner(lenderAddress)\r\n        });\r\n        tenor = dateList.length;\r\n        state = \"WAITING_BORROWER_ACCEPT_MONEY\";\r\n    }\r\n    function getCurrentTenor() public view returns (uint256) {\r\n        for (uint256 i = 0; i < tenor; i++) {\r\n            if (contractList[i].isPaid == false) {\r\n                return i;\r\n            }\r\n        }\r\n        return 999;\r\n    }\r\n\r\n    function getState() public view returns (string memory) {\r\n        return state;\r\n    }\r\n\r\n    function setBorrowerScore(uint256 _currentTime) public {\r\n        borrower.manner.setScore(checkOvertimeLending(_currentTime));\r\n    }\r\n    function getBorrowerDetail()\r\n        public\r\n        view\r\n        returns (\r\n            int256,\r\n            int256,\r\n            string memory,\r\n            string memory,\r\n            string memory,\r\n            uint256\r\n        )\r\n    {\r\n        return borrower.manner.user();\r\n    }\r\n    function getLenderDetail()\r\n        public\r\n        view\r\n        returns (\r\n            int256,\r\n            int256,\r\n            string memory,\r\n            string memory,\r\n            string memory,\r\n            uint256\r\n        )\r\n    {\r\n        return lender.manner.user();\r\n    }\r\n\r\n    function setEvidenceStamp(string memory _evidence, uint256 _currentTime)\r\n        public\r\n        returns (string memory)\r\n    {\r\n        uint256 current = getCurrentTenor();\r\n        if (\r\n            keccak256(abi.encodePacked(state)) ==\r\n            keccak256(\"SUCCESS_LENDING\") ||\r\n            keccak256(abi.encodePacked(state)) ==\r\n            keccak256(\"BORROWER_NOT_ACCEPT\") ||\r\n            keccak256(abi.encodePacked(state)) == keccak256(\"REJECTED\")\r\n        ) {\r\n            return state;\r\n        } else if (current <= tenor) {\r\n            contractList[current].evidence = _evidence;\r\n            contractList[current].isPaid = true;\r\n            contractList[current].paidDate = _currentTime;\r\n            if (getCurrentTenor() > tenor) {\r\n                state = \"SUCCESS_LENDING\";\r\n                return \"SUCCESS_LENDING\";\r\n            } else {\r\n                return \"PAY_SUCCESS\";\r\n            }\r\n        }\r\n        return state;\r\n    }\r\n    function startNormalLending() public {\r\n        if (\r\n            keccak256(abi.encodePacked(state)) == keccak256(\"LENDING\") ||\r\n            keccak256(abi.encodePacked(state)) == keccak256(\"LENDING_LATE\") ||\r\n            keccak256(abi.encodePacked(state)) ==\r\n            keccak256(\"WAITING_BORROWER_ACCEPT_MONEY\")\r\n        ) {\r\n            state = \"LENDING\";\r\n        }\r\n    }\r\n\r\n    function checkOvertimeLending(uint256 _currentTime)\r\n        public\r\n        returns (string memory)\r\n    {\r\n        uint256 current = getCurrentTenor();\r\n        if (\r\n            keccak256(abi.encodePacked(state)) == keccak256(\"LENDING\") ||\r\n            keccak256(abi.encodePacked(state)) == keccak256(\"LENDING_LATE\")\r\n        ) {\r\n            if (_currentTime >= contractList[current].date + 604800) {\r\n                state = \"REJECTED\";\r\n            } else if ((_currentTime >= contractList[current].date + 86400)) {\r\n                state = \"LENDING_LATE\";\r\n            }\r\n        } else if (\r\n            keccak256(abi.encodePacked(state)) ==\r\n            keccak256(\"WAITING_BORROWER_ACCEPT_MONEY\")\r\n        ) {\r\n            if (_currentTime >= startTime + 259200) {\r\n                state = \"BORROWER_NOT_ACCEPT\";\r\n            }\r\n        }\r\n        return state;\r\n    }\r\n}\r\n",
  "sourcePath": "D:/work/P2P_lending/blockchain/contracts/Lending.sol",
  "compiler": {
    "name": "solc",
    "version": "0.5.0+commit.1d4f565a.Emscripten.clang"
  },
  "schemaVersion": "3.0.1",
  "updatedAt": "2020-03-19T19:26:27.506Z",
  "devdoc": {
    "methods": {}
  },
  "userdoc": {
    "methods": {}
  }
}