{
  "contractName": "Lending",
  "abi": [
    {
      "constant": true,
      "inputs": [],
      "name": "user",
      "outputs": [
        {
          "name": "borrowerId",
          "type": "int256"
        },
        {
          "name": "lenderId",
          "type": "int256"
        }
      ],
      "payable": false,
      "stateMutability": "view",
      "type": "function"
    },
    {
      "constant": true,
      "inputs": [
        {
          "name": "",
          "type": "uint256"
        }
      ],
      "name": "contractList",
      "outputs": [
        {
          "name": "date",
          "type": "string"
        },
        {
          "name": "amount",
          "type": "int256"
        },
        {
          "name": "isPaid",
          "type": "bool"
        },
        {
          "name": "evidence",
          "type": "string"
        }
      ],
      "payable": false,
      "stateMutability": "view",
      "type": "function"
    },
    {
      "inputs": [
        {
          "name": "dateList",
          "type": "string[]"
        },
        {
          "name": "amountList",
          "type": "int256[]"
        },
        {
          "name": "isPaidList",
          "type": "bool[]"
        },
        {
          "name": "evidenceList",
          "type": "string[]"
        },
        {
          "name": "_borrowerId",
          "type": "int256"
        },
        {
          "name": "_lenderId",
          "type": "int256"
        }
      ],
      "payable": false,
      "stateMutability": "nonpayable",
      "type": "constructor"
    }
  ],
  "bytecode": "0x60806040523480156200001157600080fd5b5060405162000a8d38038062000a8d83398101806040526200003791908101906200046f565b60008090505b8651811015620001575760806040519081016040528088838151811015156200006257fe5b90602001906020020151815260200187838151811015156200008057fe5b90602001906020020151815260200186838151811015156200009e57fe5b90602001906020020151151581526020018583815181101515620000be57fe5b90602001906020020151815250600360008381526020019081526020016000206000820151816000019080519060200190620000fc92919062000199565b506020820151816001015560408201518160020160006101000a81548160ff02191690831515021790555060608201518160030190805190602001906200014592919062000199565b5090505080806001019150506200003d565b5060408051908101604052808381526020018281525060008082015181600001556020820151816001015590505060006002819055505050505050506200068b565b828054600181600116156101000203166002900490600052602060002090601f016020900481019282601f10620001dc57805160ff19168380011785556200020d565b828001600101855582156200020d579182015b828111156200020c578251825591602001919060010190620001ef565b5b5090506200021c919062000220565b5090565b6200024591905b808211156200024157600081600090555060010162000227565b5090565b90565b600082601f83011215156200025c57600080fd5b8151620002736200026d8262000597565b62000569565b915081818352602084019350602081019050838560208402820111156200029957600080fd5b60005b83811015620002cd5781620002b28882620003e5565b8452602084019350602083019250506001810190506200029c565b5050505092915050565b600082601f8301121515620002eb57600080fd5b815162000302620002fc82620005c0565b62000569565b915081818352602084019350602081019050838560208402820111156200032857600080fd5b60005b838110156200035c5781620003418882620003fb565b8452602084019350602083019250506001810190506200032b565b5050505092915050565b600082601f83011215156200037a57600080fd5b8151620003916200038b82620005e9565b62000569565b9150818183526020840193506020810190508360005b83811015620003db5781518601620003c0888262000411565b845260208401935060208301925050600181019050620003a7565b5050505092915050565b6000620003f382516200063f565b905092915050565b60006200040982516200064b565b905092915050565b600082601f83011215156200042557600080fd5b81516200043c620004368262000612565b62000569565b915080825260208301602083018583830111156200045957600080fd5b6200046683828462000655565b50505092915050565b60008060008060008060c087890312156200048957600080fd5b600087015167ffffffffffffffff811115620004a457600080fd5b620004b289828a0162000366565b965050602087015167ffffffffffffffff811115620004d057600080fd5b620004de89828a01620002d7565b955050604087015167ffffffffffffffff811115620004fc57600080fd5b6200050a89828a0162000248565b945050606087015167ffffffffffffffff8111156200052857600080fd5b6200053689828a0162000366565b93505060806200054989828a01620003fb565b92505060a06200055c89828a01620003fb565b9150509295509295509295565b6000604051905081810181811067ffffffffffffffff821117156200058d57600080fd5b8060405250919050565b600067ffffffffffffffff821115620005af57600080fd5b602082029050602081019050919050565b600067ffffffffffffffff821115620005d857600080fd5b602082029050602081019050919050565b600067ffffffffffffffff8211156200060157600080fd5b602082029050602081019050919050565b600067ffffffffffffffff8211156200062a57600080fd5b601f19601f8301169050602081019050919050565b60008115159050919050565b6000819050919050565b60005b838110156200067557808201518184015260208101905062000658565b8381111562000685576000848401525b50505050565b6103f2806200069b6000396000f3fe60806040526004361061004c576000357c0100000000000000000000000000000000000000000000000000000000900463ffffffff1680634f8632ba146100515780636a5bb5d81461007d575b600080fd5b34801561005d57600080fd5b506100666100bd565b6040516100749291906102cd565b60405180910390f35b34801561008957600080fd5b506100a4600480360361009f9190810190610250565b6100cf565b6040516100b494939291906102f6565b60405180910390f35b60008060000154908060010154905082565b6003602052806000526040600020600091509050806000018054600181600116156101000203166002900480601f01602080910402602001604051908101604052809291908181526020018280546001816001161561010002031660029004801561017b5780601f106101505761010080835404028352916020019161017b565b820191906000526020600020905b81548152906001019060200180831161015e57829003601f168201915b5050505050908060010154908060020160009054906101000a900460ff1690806003018054600181600116156101000203166002900480601f0160208091040260200160405190810160405280929190818152602001828054600181600116156101000203166002900480156102325780601f1061020757610100808354040283529160200191610232565b820191906000526020600020905b81548152906001019060200180831161021557829003601f168201915b5050505050905084565b6000610248823561036a565b905092915050565b60006020828403121561026257600080fd5b60006102708482850161023c565b91505092915050565b61028281610354565b82525050565b61029181610360565b82525050565b60006102a282610349565b8084526102b6816020860160208601610374565b6102bf816103a7565b602085010191505092915050565b60006040820190506102e26000830185610288565b6102ef6020830184610288565b9392505050565b600060808201905081810360008301526103108187610297565b905061031f6020830186610288565b61032c6040830185610279565b818103606083015261033e8184610297565b905095945050505050565b600081519050919050565b60008115159050919050565b6000819050919050565b6000819050919050565b60005b83811015610392578082015181840152602081019050610377565b838111156103a1576000848401525b50505050565b6000601f19601f830116905091905056fea265627a7a7230582094b7b07bd0c507adb258d57f21a4f6231b21287846a94a4ea1bff92cb01a27036c6578706572696d656e74616cf50037",
  "source": "pragma solidity >=0.4.25 <0.7.0;\r\npragma experimental ABIEncoderV2;\r\ncontract Lending {\r\n    struct ContractStruct {\r\n        string date;\r\n        int256 amount;\r\n        bool isPaid;\r\n        string evidence;\r\n    }\r\n    struct UserContractStruct {\r\n        int256 borrowerId;\r\n        int256 lenderId;\r\n    }\r\n    // Contractdata\r\n    UserContractStruct public user;\r\n    uint256 numberOf;\r\n    mapping(uint256 => ContractStruct) public contractList;\r\n    //\r\n    constructor(\r\n        string[] memory dateList,\r\n        int256[] memory amountList,\r\n        bool[] memory isPaidList,\r\n        string[] memory evidenceList,\r\n        int256 _borrowerId,\r\n        int256 _lenderId\r\n    ) public {\r\n        for (uint256 i = 0; i < dateList.length; i++) {\r\n            contractList[i] = ContractStruct({\r\n                date: dateList[i],\r\n                amount: amountList[i],\r\n                isPaid: isPaidList[i],\r\n                evidence: evidenceList[i]\r\n            });\r\n        }\r\n        user = UserContractStruct({\r\n            borrowerId: _borrowerId,\r\n            lenderId: _lenderId\r\n        });\r\n        numberOf = 0;\r\n    }\r\n\r\n}\r\n",
  "sourcePath": "D:/work/P2P_lending/blockchain/contracts/Lending.sol",
  "compiler": {
    "name": "solc",
    "version": "0.5.0+commit.1d4f565a.Emscripten.clang"
  },
  "schemaVersion": "3.0.1",
  "updatedAt": "2020-03-14T15:08:43.462Z",
  "devdoc": {
    "methods": {}
  },
  "userdoc": {
    "methods": {}
  }
}