{
  "contractName": "Lending",
  "abi": [
    {
      "constant": true,
      "inputs": [],
      "name": "user",
      "outputs": [
        {
          "name": "borrowerId",
          "type": "int256"
        },
        {
          "name": "lenderId",
          "type": "int256"
        }
      ],
      "payable": false,
      "stateMutability": "view",
      "type": "function",
      "signature": "0x4f8632ba"
    },
    {
      "constant": true,
      "inputs": [
        {
          "name": "",
          "type": "uint256"
        }
      ],
      "name": "contractList",
      "outputs": [
        {
          "name": "date",
          "type": "int256"
        },
        {
          "name": "amount",
          "type": "int256"
        },
        {
          "name": "isPaid",
          "type": "bool"
        },
        {
          "name": "evidence",
          "type": "string"
        }
      ],
      "payable": false,
      "stateMutability": "view",
      "type": "function",
      "signature": "0x6a5bb5d8"
    },
    {
      "inputs": [
        {
          "name": "dateList",
          "type": "int256[]"
        },
        {
          "name": "amountList",
          "type": "int256[]"
        },
        {
          "name": "isPaidList",
          "type": "bool[]"
        },
        {
          "name": "evidenceList",
          "type": "string[]"
        },
        {
          "name": "_borrowerId",
          "type": "int256"
        },
        {
          "name": "_lenderId",
          "type": "int256"
        }
      ],
      "payable": false,
      "stateMutability": "nonpayable",
      "type": "constructor",
      "signature": "constructor"
    },
    {
      "constant": true,
      "inputs": [],
      "name": "getnumberOf",
      "outputs": [
        {
          "name": "",
          "type": "uint256"
        }
      ],
      "payable": false,
      "stateMutability": "view",
      "type": "function",
      "signature": "0x5c5f839f"
    }
  ],
  "bytecode": "0x60806040523480156200001157600080fd5b5060405162000a4d38038062000a4d83398101806040526200003791908101906200045a565b60008090505b8651811015620001425760806040519081016040528088838151811015156200006257fe5b90602001906020020151815260200187838151811015156200008057fe5b90602001906020020151815260200186838151811015156200009e57fe5b90602001906020020151151581526020018583815181101515620000be57fe5b9060200190602002015181525060036000838152602001908152602001600020600082015181600001556020820151816001015560408201518160020160006101000a81548160ff02191690831515021790555060608201518160030190805190602001906200013092919062000184565b5090505080806001019150506200003d565b50604080519081016040528083815260200182815250600080820151816000015560208201518160010155905050600060028190555050505050505062000676565b828054600181600116156101000203166002900490600052602060002090601f016020900481019282601f10620001c757805160ff1916838001178555620001f8565b82800160010185558215620001f8579182015b82811115620001f7578251825591602001919060010190620001da565b5b5090506200020791906200020b565b5090565b6200023091905b808211156200022c57600081600090555060010162000212565b5090565b90565b600082601f83011215156200024757600080fd5b81516200025e620002588262000582565b62000554565b915081818352602084019350602081019050838560208402820111156200028457600080fd5b60005b83811015620002b857816200029d8882620003d0565b84526020840193506020830192505060018101905062000287565b5050505092915050565b600082601f8301121515620002d657600080fd5b8151620002ed620002e782620005ab565b62000554565b915081818352602084019350602081019050838560208402820111156200031357600080fd5b60005b838110156200034757816200032c8882620003e6565b84526020840193506020830192505060018101905062000316565b5050505092915050565b600082601f83011215156200036557600080fd5b81516200037c6200037682620005d4565b62000554565b9150818183526020840193506020810190508360005b83811015620003c65781518601620003ab8882620003fc565b84526020840193506020830192505060018101905062000392565b5050505092915050565b6000620003de82516200062a565b905092915050565b6000620003f4825162000636565b905092915050565b600082601f83011215156200041057600080fd5b8151620004276200042182620005fd565b62000554565b915080825260208301602083018583830111156200044457600080fd5b6200045183828462000640565b50505092915050565b60008060008060008060c087890312156200047457600080fd5b600087015167ffffffffffffffff8111156200048f57600080fd5b6200049d89828a01620002c2565b965050602087015167ffffffffffffffff811115620004bb57600080fd5b620004c989828a01620002c2565b955050604087015167ffffffffffffffff811115620004e757600080fd5b620004f589828a0162000233565b945050606087015167ffffffffffffffff8111156200051357600080fd5b6200052189828a0162000351565b93505060806200053489828a01620003e6565b92505060a06200054789828a01620003e6565b9150509295509295509295565b6000604051905081810181811067ffffffffffffffff821117156200057857600080fd5b8060405250919050565b600067ffffffffffffffff8211156200059a57600080fd5b602082029050602081019050919050565b600067ffffffffffffffff821115620005c357600080fd5b602082029050602081019050919050565b600067ffffffffffffffff821115620005ec57600080fd5b602082029050602081019050919050565b600067ffffffffffffffff8211156200061557600080fd5b601f19601f8301169050602081019050919050565b60008115159050919050565b6000819050919050565b60005b838110156200066057808201518184015260208101905062000643565b8381111562000670576000848401525b50505050565b6103c780620006866000396000f3fe608060405260043610610057576000357c0100000000000000000000000000000000000000000000000000000000900463ffffffff1680634f8632ba1461005c5780635c5f839f146100885780636a5bb5d8146100b3575b600080fd5b34801561006857600080fd5b506100716100f3565b60405161007f929190610284565b60405180910390f35b34801561009457600080fd5b5061009d610105565b6040516100aa91906102f9565b60405180910390f35b3480156100bf57600080fd5b506100da60048036036100d591908101906101f8565b61010f565b6040516100ea94939291906102ad565b60405180910390f35b60008060000154908060010154905082565b6000600254905090565b60036020528060005260406000206000915090508060000154908060010154908060020160009054906101000a900460ff1690806003018054600181600116156101000203166002900480601f0160208091040260200160405190810160405280929190818152602001828054600181600116156101000203166002900480156101da5780601f106101af576101008083540402835291602001916101da565b820191906000526020600020905b8154815290600101906020018083116101bd57829003601f168201915b5050505050905084565b60006101f0823561033f565b905092915050565b60006020828403121561020a57600080fd5b6000610218848285016101e4565b91505092915050565b61022a8161031f565b82525050565b6102398161032b565b82525050565b600061024a82610314565b80845261025e816020860160208601610349565b6102678161037c565b602085010191505092915050565b61027e81610335565b82525050565b60006040820190506102996000830185610230565b6102a66020830184610230565b9392505050565b60006080820190506102c26000830187610230565b6102cf6020830186610230565b6102dc6040830185610221565b81810360608301526102ee818461023f565b905095945050505050565b600060208201905061030e6000830184610275565b92915050565b600081519050919050565b60008115159050919050565b6000819050919050565b6000819050919050565b6000819050919050565b60005b8381101561036757808201518184015260208101905061034c565b83811115610376576000848401525b50505050565b6000601f19601f830116905091905056fea265627a7a723058204725ab5bec3702baabbc9da3687a4911b86ec108fec4f7cc1c46d210c19980506c6578706572696d656e74616cf50037",
  "source": "pragma solidity >=0.4.25 <0.7.0;\r\npragma experimental ABIEncoderV2;\r\ncontract Lending {\r\n    struct ContractStruct {\r\n        int256 date;\r\n        int256 amount;\r\n        bool isPaid;\r\n        string evidence;\r\n    }\r\n    struct UserContractStruct {\r\n        int256 borrowerId;\r\n        int256 lenderId;\r\n    }\r\n    // Contractdata\r\n    UserContractStruct public user;\r\n    uint256 numberOf;\r\n    mapping(uint256 => ContractStruct) public contractList;\r\n    //\r\n    constructor(\r\n        int256[] memory dateList,\r\n        int256[] memory amountList,\r\n        bool[] memory isPaidList,\r\n        string[] memory evidenceList,\r\n        int256 _borrowerId,\r\n        int256 _lenderId\r\n    ) public {\r\n        for (uint256 i = 0; i < dateList.length; i++) {\r\n            contractList[i] = ContractStruct({\r\n                date: dateList[i],\r\n                amount: amountList[i],\r\n                isPaid: isPaidList[i],\r\n                evidence: evidenceList[i]\r\n            });\r\n        }\r\n        user = UserContractStruct({\r\n            borrowerId: _borrowerId,\r\n            lenderId: _lenderId\r\n        });\r\n        numberOf = 0;\r\n    }\r\n    function getnumberOf() public view returns (uint256) {\r\n        return numberOf;\r\n    }\r\n}\r\n",
  "sourcePath": "D:/work/P2P_lending/blockchain/contracts/Lending.sol",
  "compiler": {
    "name": "solc",
    "version": "0.5.0+commit.1d4f565a.Emscripten.clang"
  },
  "schemaVersion": "3.0.1",
  "updatedAt": "2020-03-16T08:58:29.066Z",
  "devdoc": {
    "methods": {}
  },
  "userdoc": {
    "methods": {}
  }
}