{
  "contractName": "Lending",
  "abi": [
    {
      "constant": true,
      "inputs": [
        {
          "name": "",
          "type": "uint256"
        }
      ],
      "name": "contractList",
      "outputs": [
        {
          "name": "date",
          "type": "uint256"
        },
        {
          "name": "amount",
          "type": "uint256"
        },
        {
          "name": "isPaid",
          "type": "bool"
        },
        {
          "name": "evidence",
          "type": "string"
        },
        {
          "name": "paidDate",
          "type": "uint256"
        }
      ],
      "payable": false,
      "stateMutability": "view",
      "type": "function"
    },
    {
      "constant": true,
      "inputs": [],
      "name": "borrower",
      "outputs": [
        {
          "name": "id",
          "type": "int256"
        },
        {
          "name": "manner",
          "type": "address"
        },
        {
          "name": "withdrawn",
          "type": "bool"
        },
        {
          "name": "evidence",
          "type": "string"
        }
      ],
      "payable": false,
      "stateMutability": "view",
      "type": "function"
    },
    {
      "constant": true,
      "inputs": [],
      "name": "tenor",
      "outputs": [
        {
          "name": "",
          "type": "uint256"
        }
      ],
      "payable": false,
      "stateMutability": "view",
      "type": "function"
    },
    {
      "constant": true,
      "inputs": [],
      "name": "id",
      "outputs": [
        {
          "name": "",
          "type": "uint256"
        }
      ],
      "payable": false,
      "stateMutability": "view",
      "type": "function"
    },
    {
      "constant": true,
      "inputs": [],
      "name": "lender",
      "outputs": [
        {
          "name": "id",
          "type": "int256"
        },
        {
          "name": "manner",
          "type": "address"
        },
        {
          "name": "withdrawn",
          "type": "bool"
        },
        {
          "name": "evidence",
          "type": "string"
        }
      ],
      "payable": false,
      "stateMutability": "view",
      "type": "function"
    },
    {
      "constant": true,
      "inputs": [],
      "name": "state",
      "outputs": [
        {
          "name": "",
          "type": "string"
        }
      ],
      "payable": false,
      "stateMutability": "view",
      "type": "function"
    },
    {
      "constant": true,
      "inputs": [],
      "name": "lenderContract",
      "outputs": [
        {
          "name": "fee",
          "type": "int256"
        },
        {
          "name": "amount",
          "type": "int256"
        }
      ],
      "payable": false,
      "stateMutability": "view",
      "type": "function"
    },
    {
      "inputs": [
        {
          "name": "_id",
          "type": "uint256"
        },
        {
          "name": "dateList",
          "type": "uint256[]"
        },
        {
          "name": "amount",
          "type": "uint256"
        },
        {
          "name": "_borrowerId",
          "type": "int256"
        },
        {
          "name": "borrowerAddress",
          "type": "address"
        },
        {
          "name": "_lenderId",
          "type": "int256"
        },
        {
          "name": "lenderAddress",
          "type": "address"
        }
      ],
      "payable": false,
      "stateMutability": "nonpayable",
      "type": "constructor"
    },
    {
      "constant": true,
      "inputs": [],
      "name": "getCurrentTenor",
      "outputs": [
        {
          "name": "",
          "type": "uint256"
        }
      ],
      "payable": false,
      "stateMutability": "view",
      "type": "function"
    },
    {
      "constant": false,
      "inputs": [
        {
          "name": "_currentTime",
          "type": "uint256"
        }
      ],
      "name": "setBorrowerScore",
      "outputs": [],
      "payable": false,
      "stateMutability": "nonpayable",
      "type": "function"
    },
    {
      "constant": true,
      "inputs": [],
      "name": "getBorrowerDetail",
      "outputs": [
        {
          "name": "",
          "type": "int256"
        },
        {
          "name": "",
          "type": "int256"
        },
        {
          "name": "",
          "type": "string"
        },
        {
          "name": "",
          "type": "string"
        },
        {
          "name": "",
          "type": "string"
        }
      ],
      "payable": false,
      "stateMutability": "view",
      "type": "function"
    },
    {
      "constant": true,
      "inputs": [],
      "name": "getLenderDetail",
      "outputs": [
        {
          "name": "",
          "type": "int256"
        },
        {
          "name": "",
          "type": "int256"
        },
        {
          "name": "",
          "type": "string"
        },
        {
          "name": "",
          "type": "string"
        },
        {
          "name": "",
          "type": "string"
        }
      ],
      "payable": false,
      "stateMutability": "view",
      "type": "function"
    },
    {
      "constant": false,
      "inputs": [
        {
          "name": "_evidence",
          "type": "string"
        },
        {
          "name": "_currentTime",
          "type": "uint256"
        }
      ],
      "name": "setEvidenceStamp",
      "outputs": [
        {
          "name": "",
          "type": "string"
        }
      ],
      "payable": false,
      "stateMutability": "nonpayable",
      "type": "function"
    },
    {
      "constant": false,
      "inputs": [],
      "name": "startNormalLending",
      "outputs": [],
      "payable": false,
      "stateMutability": "nonpayable",
      "type": "function"
    },
    {
      "constant": false,
      "inputs": [
        {
          "name": "evidence",
          "type": "string"
        }
      ],
      "name": "startLending",
      "outputs": [],
      "payable": false,
      "stateMutability": "nonpayable",
      "type": "function"
    },
    {
      "constant": false,
      "inputs": [
        {
          "name": "evidence",
          "type": "string"
        }
      ],
      "name": "finishLending",
      "outputs": [],
      "payable": false,
      "stateMutability": "nonpayable",
      "type": "function"
    },
    {
      "constant": false,
      "inputs": [
        {
          "name": "_currentTime",
          "type": "uint256"
        }
      ],
      "name": "checkOvertimeLending",
      "outputs": [
        {
          "name": "",
          "type": "string"
        }
      ],
      "payable": false,
      "stateMutability": "nonpayable",
      "type": "function"
    }
  ],
  "bytecode": "0x608060405273d0ee9f1b0580897fdb42e3fd14361d89441cf938600b60006101000a81548173ffffffffffffffffffffffffffffffffffffffff021916908373ffffffffffffffffffffffffffffffffffffffff1602179055503480156200006657600080fd5b50604051620025213803806200252183398101806040526200008c9190810190620006d9565b60008090505b8651811015620001715760a0604051908101604052808883815181101515620000b757fe5b906020019060200201518152602001878152602001600015158152602001602060405190810160405280600081525081526020016000815250600c6000838152602001908152602001600020600082015181600001556020820151816001015560408201518160020160006101000a81548160ff02191690831515021790555060608201518160030190805190602001906200015592919062000491565b5060808201518160040155905050808060010191505062000092565b506080604051908101604052808581526020018473ffffffffffffffffffffffffffffffffffffffff1681526020016000151581526020016020604051908101604052806000815250815250600080820151816000015560208201518160010160006101000a81548173ffffffffffffffffffffffffffffffffffffffff021916908373ffffffffffffffffffffffffffffffffffffffff16021790555060408201518160010160146101000a81548160ff02191690831515021790555060608201518160020190805190602001906200024d92919062000491565b509050506080604051908101604052808381526020018273ffffffffffffffffffffffffffffffffffffffff168152602001600015158152602001602060405190810160405280600081525081525060056000820151816000015560208201518160010160006101000a81548173ffffffffffffffffffffffffffffffffffffffff021916908373ffffffffffffffffffffffffffffffffffffffff16021790555060408201518160010160146101000a81548160ff02191690831515021790555060608201518160020190805190602001906200032d92919062000491565b509050506000600b60009054906101000a900473ffffffffffffffffffffffffffffffffffffffff1673ffffffffffffffffffffffffffffffffffffffff1663c392f7666040518163ffffffff167c0100000000000000000000000000000000000000000000000000000000028152600401604080518083038186803b158015620003b757600080fd5b505afa158015620003cc573d6000803e3d6000fd5b505050506040513d601f19601f82011682018060405250620003f2919081019062000698565b9150506040805190810160405280828152602001885188028152506003600082015181600001556020820151816001015590505087600a8190555086516008819055506040805190810160405280600781526020017f4c454e44494e4700000000000000000000000000000000000000000000000000815250600990805190602001906200048292919062000518565b5050505050505050506200083e565b828054600181600116156101000203166002900490600052602060002090601f016020900481019282601f10620004d457805160ff191683800117855562000505565b8280016001018555821562000505579182015b8281111562000504578251825591602001919060010190620004e7565b5b5090506200051491906200059f565b5090565b828054600181600116156101000203166002900490600052602060002090601f016020900481019282601f106200055b57805160ff19168380011785556200058c565b828001600101855582156200058c579182015b828111156200058b5782518255916020019190600101906200056e565b5b5090506200059b91906200059f565b5090565b620005c491905b80821115620005c0576000816000905550600101620005a6565b5090565b90565b6000620005d5825162000816565b905092915050565b600082601f8301121515620005f157600080fd5b8151620006086200060282620007cd565b6200079f565b915081818352602084019350602081019050838560208402820111156200062e57600080fd5b60005b8381101562000662578162000647888262000682565b84526020840193506020830192505060018101905062000631565b5050505092915050565b60006200067a82516200082a565b905092915050565b600062000690825162000834565b905092915050565b60008060408385031215620006ac57600080fd5b6000620006bc858286016200066c565b9250506020620006cf858286016200066c565b9150509250929050565b600080600080600080600060e0888a031215620006f557600080fd5b6000620007058a828b0162000682565b975050602088015167ffffffffffffffff8111156200072357600080fd5b620007318a828b01620005dd565b9650506040620007448a828b0162000682565b9550506060620007578a828b016200066c565b94505060806200076a8a828b01620005c7565b93505060a06200077d8a828b016200066c565b92505060c0620007908a828b01620005c7565b91505092959891949750929550565b6000604051905081810181811067ffffffffffffffff82111715620007c357600080fd5b8060405250919050565b600067ffffffffffffffff821115620007e557600080fd5b602082029050602081019050919050565b600073ffffffffffffffffffffffffffffffffffffffff82169050919050565b60006200082382620007f6565b9050919050565b6000819050919050565b6000819050919050565b611cd3806200084e6000396000f3fe6080604052600436106100e6576000357c0100000000000000000000000000000000000000000000000000000000900463ffffffff16806331719284146100eb57806334ae36c11461011457806334ee84061461013f5780636a5bb5d81461016e57806379ecaecf146101af5780637df1f1b9146101ec578063884ae2321461021a578063a15612d114610257578063af640d0f14610282578063bcead63e146102ad578063bd3c9ff6146102db578063c19d93fb146102f2578063c3cd54a21461031d578063cfa967ae14610349578063e1adc7ab14610378578063f1249b1e146103a1575b600080fd5b3480156100f757600080fd5b50610112600480360361010d91908101906117f6565b6103ca565b005b34801561012057600080fd5b50610129610405565b6040516101369190611abe565b60405180910390f35b34801561014b57600080fd5b50610154610467565b604051610165959493929190611a12565b60405180910390f35b34801561017a57600080fd5b50610195600480360361019091908101906118cc565b61054d565b6040516101a6959493929190611ad9565b60405180910390f35b3480156101bb57600080fd5b506101d660048036036101d19190810190611878565b610628565b6040516101e39190611a9c565b60405180910390f35b3480156101f857600080fd5b50610201610b87565b604051610211949392919061199d565b60405180910390f35b34801561022657600080fd5b50610241600480360361023c91908101906118cc565b610c6a565b60405161024e9190611a9c565b60405180910390f35b34801561026357600080fd5b5061026c61100c565b6040516102799190611abe565b60405180910390f35b34801561028e57600080fd5b50610297611012565b6040516102a49190611abe565b60405180910390f35b3480156102b957600080fd5b506102c2611018565b6040516102d2949392919061199d565b60405180910390f35b3480156102e757600080fd5b506102f06110fb565b005b3480156102fe57600080fd5b506103076112ba565b6040516103149190611a7a565b60405180910390f35b34801561032957600080fd5b50610332611358565b6040516103409291906119e9565b60405180910390f35b34801561035557600080fd5b5061035e61136a565b60405161036f959493929190611a12565b60405180910390f35b34801561038457600080fd5b5061039f600480360361039a91908101906117f6565b611450565b005b3480156103ad57600080fd5b506103c860048036036103c391908101906118cc565b61148b565b005b6001600060010160146101000a81548160ff0219169083151502179055508060006002019080519060200190610401929190611568565b5050565b600080600090505b60085481101561045d5760001515600c600083815260200190815260200160002060020160009054906101000a900460ff16151514156104505780915050610464565b808060010191505061040d565b506103e790505b90565b6000806060806060600560010160009054906101000a900473ffffffffffffffffffffffffffffffffffffffff1673ffffffffffffffffffffffffffffffffffffffff16634f8632ba6040518163ffffffff167c010000000000000000000000000000000000000000000000000000000002815260040160006040518083038186803b1580156104f657600080fd5b505afa15801561050a573d6000803e3d6000fd5b505050506040513d6000823e3d601f19601f820116820180604052506105339190810190611737565b829250819150809050945094509450945094509091929394565b600c6020528060005260406000206000915090508060000154908060010154908060020160009054906101000a900460ff1690806003018054600181600116156101000203166002900480601f0160208091040260200160405190810160405280929190818152602001828054600181600116156101000203166002900480156106185780601f106105ed57610100808354040283529160200191610618565b820191906000526020600020905b8154815290600101906020018083116105fb57829003601f168201915b5050505050908060040154905085565b60606000610634610405565b905060405180807f535543434553535f4c454e44494e470000000000000000000000000000000000815250600f0190506040518091039020600960405160200180828054600181600116156101000203166002900480156106cc5780601f106106aa5761010080835404028352918201916106cc565b820191906000526020600020905b8154815290600101906020018083116106b8575b50509150506040516020818303038152906040528051906020012014806107a1575060405180807f424f52524f5745525f4e4f545f4143434550540000000000000000000000000081525060130190506040518091039020600960405160200180828054600181600116156101000203166002900480156107845780601f10610762576101008083540402835291820191610784565b820191906000526020600020905b815481529060010190602001808311610770575b505091505060405160208183030381529060405280519060200120145b8061085a575060405180807f52454a4543544544000000000000000000000000000000000000000000000000815250600801905060405180910390206009604051602001808280546001816001161561010002031660029004801561083d5780601f1061081b57610100808354040283529182019161083d565b820191906000526020600020905b815481529060010190602001808311610829575b505091505060405160208183030381529060405280519060200120145b156109025760098054600181600116156101000203166002900480601f0160208091040260200160405190810160405280929190818152602001828054600181600116156101000203166002900480156108f55780601f106108ca576101008083540402835291602001916108f5565b820191906000526020600020905b8154815290600101906020018083116108d857829003601f168201915b5050505050915050610b81565b600854811115801561092a575060011515600060010160149054906101000a900460ff161515145b15610ae25783600c60008381526020019081526020016000206003019080519060200190610959929190611568565b506001600c600083815260200190815260200160002060020160006101000a81548160ff02191690831515021790555082600c6000838152602001908152602001600020600401819055506008546109af610405565b1115610aa4576040805190810160405280600f81526020017f535543434553535f4c454e44494e47000000000000000000000000000000000081525060099080519060200190610a00929190611568565b5060098054600181600116156101000203166002900480601f016020809104026020016040519081016040528092919081815260200182805460018160011615610100020316600290048015610a975780601f10610a6c57610100808354040283529160200191610a97565b820191906000526020600020905b815481529060010190602001808311610a7a57829003601f168201915b5050505050915050610b81565b6040805190810160405280600b81526020017f5041595f53554343455353000000000000000000000000000000000000000000815250915050610b81565b60098054600181600116156101000203166002900480601f016020809104026020016040519081016040528092919081815260200182805460018160011615610100020316600290048015610b785780601f10610b4d57610100808354040283529160200191610b78565b820191906000526020600020905b815481529060010190602001808311610b5b57829003601f168201915b50505050509150505b92915050565b60008060000154908060010160009054906101000a900473ffffffffffffffffffffffffffffffffffffffff16908060010160149054906101000a900460ff1690806002018054600181600116156101000203166002900480601f016020809104026020016040519081016040528092919081815260200182805460018160011615610100020316600290048015610c605780601f10610c3557610100808354040283529160200191610c60565b820191906000526020600020905b815481529060010190602001808311610c4357829003601f168201915b5050505050905084565b60606000610c76610405565b905060001515600060010160149054906101000a900460ff1615151415610d0e57630f731400600c6000838152602001908152602001600020600001540183101515610d09576040805190810160405280601381526020017f424f52524f5745525f4e4f545f4143434550540000000000000000000000000081525060099080519060200190610d07929190611568565b505b610f69565b60405180807f4c454e44494e47000000000000000000000000000000000000000000000000008152506007019050604051809103902060096040516020018082805460018160011615610100020316600290048015610da45780601f10610d82576101008083540402835291820191610da4565b820191906000526020600020905b815481529060010190602001808311610d90575b5050915050604051602081830303815290604052805190602001201480610e79575060405180807f4c454e44494e475f4c4154450000000000000000000000000000000000000000815250600c019050604051809103902060096040516020018082805460018160011615610100020316600290048015610e5c5780601f10610e3a576101008083540402835291820191610e5c565b820191906000526020600020905b815481529060010190602001808311610e48575b505091505060405160208183030381529060405280519060200120145b15610f685763240c8400600c6000838152602001908152602001600020600001540183101515610ef4576040805190810160405280600881526020017f52454a454354454400000000000000000000000000000000000000000000000081525060099080519060200190610eee929190611568565b50610f67565b6305265c00600c6000838152602001908152602001600020600001540183101515610f66576040805190810160405280600c81526020017f4c454e44494e475f4c415445000000000000000000000000000000000000000081525060099080519060200190610f64929190611568565b505b5b5b5b60098054600181600116156101000203166002900480601f016020809104026020016040519081016040528092919081815260200182805460018160011615610100020316600290048015610fff5780601f10610fd457610100808354040283529160200191610fff565b820191906000526020600020905b815481529060010190602001808311610fe257829003601f168201915b5050505050915050919050565b60085481565b600a5481565b60058060000154908060010160009054906101000a900473ffffffffffffffffffffffffffffffffffffffff16908060010160149054906101000a900460ff1690806002018054600181600116156101000203166002900480601f0160208091040260200160405190810160405280929190818152602001828054600181600116156101000203166002900480156110f15780601f106110c6576101008083540402835291602001916110f1565b820191906000526020600020905b8154815290600101906020018083116110d457829003601f168201915b5050505050905084565b60405180807f4c454e44494e470000000000000000000000000000000000000000000000000081525060070190506040518091039020600960405160200180828054600181600116156101000203166002900480156111915780601f1061116f576101008083540402835291820191611191565b820191906000526020600020905b81548152906001019060200180831161117d575b5050915050604051602081830303815290604052805190602001201480611266575060405180807f4c454e44494e475f4c4154450000000000000000000000000000000000000000815250600c0190506040518091039020600960405160200180828054600181600116156101000203166002900480156112495780601f10611227576101008083540402835291820191611249565b820191906000526020600020905b815481529060010190602001808311611235575b505091505060405160208183030381529060405280519060200120145b156112b8576040805190810160405280600781526020017f4c454e44494e4700000000000000000000000000000000000000000000000000815250600990805190602001906112b6929190611568565b505b565b60098054600181600116156101000203166002900480601f0160208091040260200160405190810160405280929190818152602001828054600181600116156101000203166002900480156113505780601f1061132557610100808354040283529160200191611350565b820191906000526020600020905b81548152906001019060200180831161133357829003601f168201915b505050505081565b60038060000154908060010154905082565b6000806060806060600060010160009054906101000a900473ffffffffffffffffffffffffffffffffffffffff1673ffffffffffffffffffffffffffffffffffffffff16634f8632ba6040518163ffffffff167c010000000000000000000000000000000000000000000000000000000002815260040160006040518083038186803b1580156113f957600080fd5b505afa15801561140d573d6000803e3d6000fd5b505050506040513d6000823e3d601f19601f820116820180604052506114369190810190611737565b829250819150809050945094509450945094509091929394565b6001600560010160146101000a81548160ff0219169083151502179055508060056002019080519060200190611487929190611568565b5050565b600060010160009054906101000a900473ffffffffffffffffffffffffffffffffffffffff1673ffffffffffffffffffffffffffffffffffffffff16637858eb7b6114d583610c6a565b6040518263ffffffff167c010000000000000000000000000000000000000000000000000000000002815260040161150d9190611a9c565b600060405180830381600087803b15801561152757600080fd5b505af115801561153b573d6000803e3d6000fd5b505050506040513d6000823e3d601f19601f820116820180604052506115649190810190611837565b5050565b828054600181600116156101000203166002900490600052602060002090601f016020900481019282601f106115a957805160ff19168380011785556115d7565b828001600101855582156115d7579182015b828111156115d65782518255916020019190600101906115bb565b5b5090506115e491906115e8565b5090565b61160a91905b808211156116065760008160009055506001016115ee565b5090565b90565b60006116198251611c0e565b905092915050565b600082601f830112151561163457600080fd5b815161164761164282611b60565b611b33565b9150808252602083016020830185838301111561166357600080fd5b61166e838284611c55565b50505092915050565b600082601f830112151561168a57600080fd5b813561169d61169882611b8c565b611b33565b915080825260208301602083018583830111156116b957600080fd5b6116c4838284611c46565b50505092915050565b600082601f83011215156116e057600080fd5b81516116f36116ee82611b8c565b611b33565b9150808252602083016020830185838301111561170f57600080fd5b61171a838284611c55565b50505092915050565b600061172f8235611c18565b905092915050565b600080600080600060a0868803121561174f57600080fd5b600061175d8882890161160d565b955050602061176e8882890161160d565b945050604086015167ffffffffffffffff81111561178b57600080fd5b61179788828901611621565b935050606086015167ffffffffffffffff8111156117b457600080fd5b6117c088828901611621565b925050608086015167ffffffffffffffff8111156117dd57600080fd5b6117e988828901611621565b9150509295509295909350565b60006020828403121561180857600080fd5b600082013567ffffffffffffffff81111561182257600080fd5b61182e84828501611677565b91505092915050565b60006020828403121561184957600080fd5b600082015167ffffffffffffffff81111561186357600080fd5b61186f848285016116cd565b91505092915050565b6000806040838503121561188b57600080fd5b600083013567ffffffffffffffff8111156118a557600080fd5b6118b185828601611677565b92505060206118c285828601611723565b9150509250929050565b6000602082840312156118de57600080fd5b60006118ec84828501611723565b91505092915050565b6118fe81611bce565b82525050565b61190d81611c22565b82525050565b61191c81611bda565b82525050565b600061192d82611bc3565b808452611941816020860160208601611c55565b61194a81611c88565b602085010191505092915050565b600061196382611bb8565b808452611977816020860160208601611c55565b61198081611c88565b602085010191505092915050565b61199781611c04565b82525050565b60006080820190506119b26000830187611913565b6119bf6020830186611904565b6119cc60408301856118f5565b81810360608301526119de8184611958565b905095945050505050565b60006040820190506119fe6000830185611913565b611a0b6020830184611913565b9392505050565b600060a082019050611a276000830188611913565b611a346020830187611913565b8181036040830152611a468186611922565b90508181036060830152611a5a8185611922565b90508181036080830152611a6e8184611922565b90509695505050505050565b60006020820190508181036000830152611a948184611958565b905092915050565b60006020820190508181036000830152611ab68184611922565b905092915050565b6000602082019050611ad3600083018461198e565b92915050565b600060a082019050611aee600083018861198e565b611afb602083018761198e565b611b0860408301866118f5565b8181036060830152611b1a8185611958565b9050611b29608083018461198e565b9695505050505050565b6000604051905081810181811067ffffffffffffffff82111715611b5657600080fd5b8060405250919050565b600067ffffffffffffffff821115611b7757600080fd5b601f19601f8301169050602081019050919050565b600067ffffffffffffffff821115611ba357600080fd5b601f19601f8301169050602081019050919050565b600081519050919050565b600081519050919050565b60008115159050919050565b6000819050919050565b600073ffffffffffffffffffffffffffffffffffffffff82169050919050565b6000819050919050565b6000819050919050565b6000819050919050565b6000611c2d82611c34565b9050919050565b6000611c3f82611be4565b9050919050565b82818337600083830152505050565b60005b83811015611c73578082015181840152602081019050611c58565b83811115611c82576000848401525b50505050565b6000601f19601f830116905091905056fea265627a7a723058203effbbe0260aa02e8068504a8c36c457d44406923f61c131ad852772659f58816c6578706572696d656e74616cf50037",
  "source": "pragma solidity >=0.4.25 <0.7.0;\r\npragma experimental ABIEncoderV2;\r\nimport \"./Manner.sol\";\r\nimport \"./Interest.sol\";\r\n\r\n\r\ncontract Lending {\r\n    struct ContractStruct {\r\n        uint256 date;\r\n        uint256 amount;\r\n        bool isPaid;\r\n        string evidence;\r\n        uint256 paidDate;\r\n    }\r\n    struct UserContractStruct {\r\n        int256 id;\r\n        Manner manner;\r\n        bool withdrawn;\r\n        string evidence;\r\n    }\r\n    struct LenderContract {\r\n        int256 fee;\r\n        int256 amount;\r\n    }\r\n    // Contractdata\r\n    UserContractStruct public borrower;\r\n    LenderContract public lenderContract;\r\n    UserContractStruct public lender;\r\n    uint256 public tenor;\r\n    string public state;\r\n    uint256 public id;\r\n    Interest interest = Interest(0xd0ee9F1B0580897FdB42e3fD14361D89441Cf938);\r\n    mapping(uint256 => ContractStruct) public contractList;\r\n\r\n    //\r\n    constructor(\r\n        uint256 _id,\r\n        uint256[] memory dateList,\r\n        uint256 amount,\r\n        int256 _borrowerId,\r\n        address borrowerAddress,\r\n        int256 _lenderId,\r\n        address lenderAddress\r\n    ) public {\r\n        for (uint256 i = 0; i < dateList.length; i++) {\r\n            contractList[i] = ContractStruct({\r\n                date: dateList[i],\r\n                amount: amount,\r\n                isPaid: false,\r\n                evidence: \"\",\r\n                paidDate: 0\r\n            });\r\n        }\r\n        borrower = UserContractStruct({\r\n            id: _borrowerId,\r\n            manner: Manner(borrowerAddress),\r\n            withdrawn: false,\r\n            evidence: \"\"\r\n        });\r\n        lender = UserContractStruct({\r\n            id: _lenderId,\r\n            manner: Manner(lenderAddress),\r\n            withdrawn: false,\r\n            evidence: \"\"\r\n        });\r\n        (, int256 fee) = interest.interest();\r\n        lenderContract = LenderContract({\r\n            fee: (fee),\r\n            amount: int256(amount * dateList.length)\r\n        });\r\n        id = _id;\r\n        tenor = dateList.length;\r\n        state = \"LENDING\";\r\n    }\r\n\r\n    function getCurrentTenor() public view returns (uint256) {\r\n        for (uint256 i = 0; i < tenor; i++) {\r\n            if (contractList[i].isPaid == false) {\r\n                return i;\r\n            }\r\n        }\r\n        return 999;\r\n    }\r\n\r\n    function setBorrowerScore(uint256 _currentTime) public {\r\n        borrower.manner.setScore(checkOvertimeLending(_currentTime));\r\n    }\r\n\r\n    function getBorrowerDetail()\r\n        public\r\n        view\r\n        returns (int256, int256, string memory, string memory, string memory)\r\n    {\r\n        return borrower.manner.user();\r\n    }\r\n\r\n    function getLenderDetail()\r\n        public\r\n        view\r\n        returns (int256, int256, string memory, string memory, string memory)\r\n    {\r\n        return lender.manner.user();\r\n    }\r\n\r\n    function setEvidenceStamp(string memory _evidence, uint256 _currentTime)\r\n        public\r\n        returns (string memory)\r\n    {\r\n        uint256 current = getCurrentTenor();\r\n        if (\r\n            keccak256(abi.encodePacked(state)) ==\r\n            keccak256(\"SUCCESS_LENDING\") ||\r\n            keccak256(abi.encodePacked(state)) ==\r\n            keccak256(\"BORROWER_NOT_ACCEPT\") ||\r\n            keccak256(abi.encodePacked(state)) == keccak256(\"REJECTED\")\r\n        ) {\r\n            return state;\r\n        } else if (current <= tenor && borrower.withdrawn == true) {\r\n            contractList[current].evidence = _evidence;\r\n            contractList[current].isPaid = true;\r\n            contractList[current].paidDate = _currentTime;\r\n            if (getCurrentTenor() > tenor) {\r\n                state = \"SUCCESS_LENDING\";\r\n                return state;\r\n            } else {\r\n                return \"PAY_SUCCESS\";\r\n            }\r\n        }\r\n        return state;\r\n    }\r\n\r\n    function startNormalLending() public {\r\n        if (\r\n            keccak256(abi.encodePacked(state)) == keccak256(\"LENDING\") ||\r\n            keccak256(abi.encodePacked(state)) == keccak256(\"LENDING_LATE\")\r\n        ) {\r\n            state = \"LENDING\";\r\n        }\r\n    }\r\n\r\n    function startLending(string memory evidence) public {\r\n        borrower.withdrawn = true;\r\n        borrower.evidence = evidence;\r\n    }\r\n\r\n    function finishLending(string memory evidence) public {\r\n        lender.withdrawn = true;\r\n        lender.evidence = evidence;\r\n    }\r\n\r\n    function checkOvertimeLending(uint256 _currentTime)\r\n        public\r\n        returns (string memory)\r\n    {\r\n        uint256 current = getCurrentTenor();\r\n        if (borrower.withdrawn == false) {\r\n            if (_currentTime >= contractList[current].date + 259200000) {\r\n                state = \"BORROWER_NOT_ACCEPT\";\r\n            }\r\n        } else if (\r\n            keccak256(abi.encodePacked(state)) == keccak256(\"LENDING\") ||\r\n            keccak256(abi.encodePacked(state)) == keccak256(\"LENDING_LATE\")\r\n        ) {\r\n            if (_currentTime >= contractList[current].date + 604800000) {\r\n                state = \"REJECTED\";\r\n            } else if (\r\n                (_currentTime >= contractList[current].date + 86400000)\r\n            ) {\r\n                state = \"LENDING_LATE\";\r\n            }\r\n        }\r\n        return state;\r\n    }\r\n}\r\n",
  "sourcePath": "D:/work/P2P_lending/blockchain/contracts/Lending.sol",
  "compiler": {
    "name": "solc",
    "version": "0.5.0+commit.1d4f565a.Emscripten.clang"
  },
  "schemaVersion": "3.0.1",
  "updatedAt": "2020-04-11T15:07:05.716Z",
  "devdoc": {
    "methods": {}
  },
  "userdoc": {
    "methods": {}
  }
}