{
  "contractName": "Lending",
  "abi": [
    {
      "constant": true,
      "inputs": [],
      "name": "user",
      "outputs": [
        {
          "name": "borrowerId",
          "type": "int256"
        },
        {
          "name": "lenderId",
          "type": "int256"
        }
      ],
      "payable": false,
      "stateMutability": "view",
      "type": "function"
    },
    {
      "constant": true,
      "inputs": [
        {
          "name": "",
          "type": "uint256"
        }
      ],
      "name": "contractList",
      "outputs": [
        {
          "name": "date",
          "type": "uint256"
        },
        {
          "name": "amount",
          "type": "uint256"
        },
        {
          "name": "isPaid",
          "type": "bool"
        },
        {
          "name": "evidence",
          "type": "string"
        }
      ],
      "payable": false,
      "stateMutability": "view",
      "type": "function"
    },
    {
      "inputs": [
        {
          "name": "dateList",
          "type": "uint256[]"
        },
        {
          "name": "amountList",
          "type": "uint256[]"
        },
        {
          "name": "isPaidList",
          "type": "bool[]"
        },
        {
          "name": "evidenceList",
          "type": "string[]"
        },
        {
          "name": "_borrowerId",
          "type": "int256"
        },
        {
          "name": "_lenderId",
          "type": "int256"
        }
      ],
      "payable": false,
      "stateMutability": "nonpayable",
      "type": "constructor"
    },
    {
      "constant": true,
      "inputs": [],
      "name": "getCurrentTenor",
      "outputs": [
        {
          "name": "",
          "type": "uint256"
        }
      ],
      "payable": false,
      "stateMutability": "view",
      "type": "function"
    },
    {
      "constant": false,
      "inputs": [
        {
          "name": "_evidence",
          "type": "string"
        }
      ],
      "name": "setEvidenceStamp",
      "outputs": [],
      "payable": false,
      "stateMutability": "nonpayable",
      "type": "function"
    },
    {
      "constant": false,
      "inputs": [],
      "name": "startLending",
      "outputs": [],
      "payable": false,
      "stateMutability": "nonpayable",
      "type": "function"
    },
    {
      "constant": false,
      "inputs": [
        {
          "name": "_currentTime",
          "type": "uint256"
        }
      ],
      "name": "checkOvertimeLending",
      "outputs": [
        {
          "name": "",
          "type": "string"
        }
      ],
      "payable": false,
      "stateMutability": "nonpayable",
      "type": "function"
    }
  ],
  "bytecode": "0x60806040523480156200001157600080fd5b506040516200181638038062001816833981018060405262000037919081019062000545565b60008090505b8651811015620001425760806040519081016040528088838151811015156200006257fe5b90602001906020020151815260200187838151811015156200008057fe5b90602001906020020151815260200186838151811015156200009e57fe5b90602001906020020151151581526020018583815181101515620000be57fe5b9060200190602002015181525060056000838152602001908152602001600020600082015181600001556020820151816001015560408201518160020160006101000a81548160ff021916908315150217905550606082015181600301908051906020019062000130929190620001d2565b5090505080806001019150506200003d565b5060408051908101604052808381526020018281525060008082015181600001556020820151816001015590505085516003819055506040805190810160405280601d81526020017f57414954494e475f424f52524f5745525f4143434550545f4d4f4e455900000081525060049080519060200190620001c592919062000259565b505050505050506200076b565b828054600181600116156101000203166002900490600052602060002090601f016020900481019282601f106200021557805160ff191683800117855562000246565b8280016001018555821562000246579182015b828111156200024557825182559160200191906001019062000228565b5b509050620002559190620002e0565b5090565b828054600181600116156101000203166002900490600052602060002090601f016020900481019282601f106200029c57805160ff1916838001178555620002cd565b82800160010185558215620002cd579182015b82811115620002cc578251825591602001919060010190620002af565b5b509050620002dc9190620002e0565b5090565b6200030591905b8082111562000301576000816000905550600101620002e7565b5090565b90565b600082601f83011215156200031c57600080fd5b8151620003336200032d826200066d565b6200063f565b915081818352602084019350602081019050838560208402820111156200035957600080fd5b60005b838110156200038d5781620003728882620004a5565b8452602084019350602083019250506001810190506200035c565b5050505092915050565b600082601f8301121515620003ab57600080fd5b8151620003c2620003bc8262000696565b6200063f565b9150818183526020840193506020810190508360005b838110156200040c5781518601620003f18882620004d1565b845260208401935060208301925050600181019050620003d8565b5050505092915050565b600082601f83011215156200042a57600080fd5b8151620004416200043b82620006bf565b6200063f565b915081818352602084019350602081019050838560208402820111156200046757600080fd5b60005b838110156200049b57816200048088826200052f565b8452602084019350602083019250506001810190506200046a565b5050505092915050565b6000620004b3825162000715565b905092915050565b6000620004c9825162000721565b905092915050565b600082601f8301121515620004e557600080fd5b8151620004fc620004f682620006e8565b6200063f565b915080825260208301602083018583830111156200051957600080fd5b6200052683828462000735565b50505092915050565b60006200053d82516200072b565b905092915050565b60008060008060008060c087890312156200055f57600080fd5b600087015167ffffffffffffffff8111156200057a57600080fd5b6200058889828a0162000416565b965050602087015167ffffffffffffffff811115620005a657600080fd5b620005b489828a0162000416565b955050604087015167ffffffffffffffff811115620005d257600080fd5b620005e089828a0162000308565b945050606087015167ffffffffffffffff811115620005fe57600080fd5b6200060c89828a0162000397565b93505060806200061f89828a01620004bb565b92505060a06200063289828a01620004bb565b9150509295509295509295565b6000604051905081810181811067ffffffffffffffff821117156200066357600080fd5b8060405250919050565b600067ffffffffffffffff8211156200068557600080fd5b602082029050602081019050919050565b600067ffffffffffffffff821115620006ae57600080fd5b602082029050602081019050919050565b600067ffffffffffffffff821115620006d757600080fd5b602082029050602081019050919050565b600067ffffffffffffffff8211156200070057600080fd5b601f19601f8301169050602081019050919050565b60008115159050919050565b6000819050919050565b6000819050919050565b60005b838110156200075557808201518184015260208101905062000738565b8381111562000765576000848401525b50505050565b61109b806200077b6000396000f3fe608060405260043610610078576000357c0100000000000000000000000000000000000000000000000000000000900463ffffffff16806334ae36c11461007d5780634d7dc706146100a85780634f8632ba146100d15780636a5bb5d8146100fd578063884ae2321461013d578063d2542bdc1461017a575b600080fd5b34801561008957600080fd5b50610092610191565b60405161009f9190610f0e565b60405180910390f35b3480156100b457600080fd5b506100cf60048036036100ca9190810190610dc0565b6101f3565b005b3480156100dd57600080fd5b506100e6610535565b6040516100f4929190610ec3565b60405180910390f35b34801561010957600080fd5b50610124600480360361011f9190810190610e01565b610547565b6040516101349493929190610f29565b60405180910390f35b34801561014957600080fd5b50610164600480360361015f9190810190610e01565b61061c565b6040516101719190610eec565b60405180910390f35b34801561018657600080fd5b5061018f610c63565b005b600080600090505b6003548110156101e957600015156005600083815260200190815260200160002060020160009054906101000a900460ff16151514156101dc57809150506101f0565b8080600101915050610199565b506103e790505b90565b60006101fd610191565b90506003548111158015610434575060405180807f535543434553535f4c454e44494e470000000000000000000000000000000000815250600f0190506040518091039020600460405160200180828054600181600116156101000203166002900480156102a25780601f106102805761010080835404028352918201916102a2565b820191906000526020600020905b81548152906001019060200180831161028e575b505091505060405160208183030381529060405280519060200120141580610379575060405180807f424f52524f5745525f4e4f545f41434345505400000000000000000000000000815250601301905060405180910390206004604051602001808280546001816001161561010002031660029004801561035b5780601f1061033957610100808354040283529182019161035b565b820191906000526020600020905b815481529060010190602001808311610347575b50509150506040516020818303038152906040528051906020012014155b80610433575060405180807f52454a454354454400000000000000000000000000000000000000000000000081525060080190506040518091039020600460405160200180828054600181600116156101000203166002900480156104155780601f106103f3576101008083540402835291820191610415565b820191906000526020600020905b815481529060010190602001808311610401575b50509150506040516020818303038152906040528051906020012014155b5b156104e4576040805190810160405280600781526020017f4c454e44494e470000000000000000000000000000000000000000000000000081525060049080519060200190610484929190610cb1565b50816005600083815260200190815260200160002060030190805190602001906104af929190610cb1565b5060016005600083815260200190815260200160002060020160006101000a81548160ff021916908315150217905550610531565b6040805190810160405280600f81526020017f535543434553535f4c454e44494e4700000000000000000000000000000000008152506004908051906020019061052f929190610cb1565b505b5050565b60008060000154908060010154905082565b60056020528060005260406000206000915090508060000154908060010154908060020160009054906101000a900460ff1690806003018054600181600116156101000203166002900480601f0160208091040260200160405190810160405280929190818152602001828054600181600116156101000203166002900480156106125780601f106105e757610100808354040283529160200191610612565b820191906000526020600020905b8154815290600101906020018083116105f557829003601f168201915b5050505050905084565b60606000610628610191565b90506103e78114806106e9575060405180807f4c454e44494e470000000000000000000000000000000000000000000000000081525060070190506040518091039020600460405160200180828054600181600116156101000203166002900480156106cb5780601f106106a95761010080835404028352918201916106cb565b820191906000526020600020905b8154815290600101906020018083116106b7575b50509150506040516020818303038152906040528051906020012014155b806107a3575060405180807f4c454e44494e475f4c4154450000000000000000000000000000000000000000815250600c0190506040518091039020600460405160200180828054600181600116156101000203166002900480156107855780601f10610763576101008083540402835291820191610785565b820191906000526020600020905b815481529060010190602001808311610771575b50509150506040516020818303038152906040528051906020012014155b1561084b5760048054600181600116156101000203166002900480601f01602080910402602001604051908101604052809291908181526020018280546001816001161561010002031660029004801561083e5780601f106108135761010080835404028352916020019161083e565b820191906000526020600020905b81548152906001019060200180831161082157829003601f168201915b5050505050915050610c5e565b6203f480600254018310158015610910575060405180807f57414954494e475f424f52524f5745525f4143434550545f4d4f4e4559000000815250601d0190506040518091039020600460405160200180828054600181600116156101000203166002900480156108f35780601f106108d15761010080835404028352918201916108f3565b820191906000526020600020905b8154815290600101906020018083116108df575b505091505060405160208183030381529060405280519060200120145b15610966576040805190810160405280601381526020017f424f52524f5745525f4e4f545f4143434550540000000000000000000000000081525060049080519060200190610960929190610cb1565b50610bbf565b60405180807f4c454e44494e470000000000000000000000000000000000000000000000000081525060070190506040518091039020600460405160200180828054600181600116156101000203166002900480156109fc5780601f106109da5761010080835404028352918201916109fc565b820191906000526020600020905b8154815290600101906020018083116109e8575b5050915050604051602081830303815290604052805190602001201480610ad1575060405180807f4c454e44494e475f4c4154450000000000000000000000000000000000000000815250600c019050604051809103902060046040516020018082805460018160011615610100020316600290048015610ab45780601f10610a92576101008083540402835291820191610ab4565b820191906000526020600020905b815481529060010190602001808311610aa0575b505091505060405160208183030381529060405280519060200120145b15610bbe5762093a8060056000838152602001908152602001600020600001540183101515610b4b576040805190810160405280600881526020017f52454a454354454400000000000000000000000000000000000000000000000081525060049080519060200190610b45929190610cb1565b50610bbd565b6201518060056000838152602001908152602001600020600001540183101515610bbc576040805190810160405280600c81526020017f4c454e44494e475f4c415445000000000000000000000000000000000000000081525060049080519060200190610bba929190610cb1565b505b5b5b5b60048054600181600116156101000203166002900480601f016020809104026020016040519081016040528092919081815260200182805460018160011615610100020316600290048015610c555780601f10610c2a57610100808354040283529160200191610c55565b820191906000526020600020905b815481529060010190602001808311610c3857829003601f168201915b50505050509150505b919050565b6040805190810160405280600781526020017f4c454e44494e470000000000000000000000000000000000000000000000000081525060049080519060200190610cae929190610cb1565b50565b828054600181600116156101000203166002900490600052602060002090601f016020900481019282601f10610cf257805160ff1916838001178555610d20565b82800160010185558215610d20579182015b82811115610d1f578251825591602001919060010190610d04565b5b509050610d2d9190610d31565b5090565b610d5391905b80821115610d4f576000816000905550600101610d37565b5090565b90565b600082601f8301121515610d6957600080fd5b8135610d7c610d7782610fa2565b610f75565b91508082526020830160208301858383011115610d9857600080fd5b610da383828461100e565b50505092915050565b6000610db88235611004565b905092915050565b600060208284031215610dd257600080fd5b600082013567ffffffffffffffff811115610dec57600080fd5b610df884828501610d56565b91505092915050565b600060208284031215610e1357600080fd5b6000610e2184828501610dac565b91505092915050565b610e3381610fe4565b82525050565b610e4281610ff0565b82525050565b6000610e5382610fd9565b808452610e6781602086016020860161101d565b610e7081611050565b602085010191505092915050565b6000610e8982610fce565b808452610e9d81602086016020860161101d565b610ea681611050565b602085010191505092915050565b610ebd81610ffa565b82525050565b6000604082019050610ed86000830185610e39565b610ee56020830184610e39565b9392505050565b60006020820190508181036000830152610f068184610e48565b905092915050565b6000602082019050610f236000830184610eb4565b92915050565b6000608082019050610f3e6000830187610eb4565b610f4b6020830186610eb4565b610f586040830185610e2a565b8181036060830152610f6a8184610e7e565b905095945050505050565b6000604051905081810181811067ffffffffffffffff82111715610f9857600080fd5b8060405250919050565b600067ffffffffffffffff821115610fb957600080fd5b601f19601f8301169050602081019050919050565b600081519050919050565b600081519050919050565b60008115159050919050565b6000819050919050565b6000819050919050565b6000819050919050565b82818337600083830152505050565b60005b8381101561103b578082015181840152602081019050611020565b8381111561104a576000848401525b50505050565b6000601f19601f830116905091905056fea265627a7a7230582030a834cd8f64a8d23a98f72b19e523cde92f6d8f09b7921d1deede7ae5c7d90b6c6578706572696d656e74616cf50037",
  "source": "pragma solidity >=0.4.25 <0.7.0;\r\npragma experimental ABIEncoderV2;\r\ncontract Lending {\r\n    struct ContractStruct {\r\n        uint256 date;\r\n        uint256 amount;\r\n        bool isPaid;\r\n        string evidence;\r\n    }\r\n    struct UserContractStruct {\r\n        int256 borrowerId;\r\n        int256 lenderId;\r\n    }\r\n    // Contractdata\r\n    UserContractStruct public user;\r\n    uint256 startTime;\r\n    uint256 tenor;\r\n    string state;\r\n    mapping(uint256 => ContractStruct) public contractList;\r\n    //\r\n    constructor(\r\n        uint256[] memory dateList,\r\n        uint256[] memory amountList,\r\n        bool[] memory isPaidList,\r\n        string[] memory evidenceList,\r\n        int256 _borrowerId,\r\n        int256 _lenderId\r\n    ) public {\r\n        for (uint256 i = 0; i < dateList.length; i++) {\r\n            contractList[i] = ContractStruct({\r\n                date: dateList[i],\r\n                amount: amountList[i],\r\n                isPaid: isPaidList[i],\r\n                evidence: evidenceList[i]\r\n            });\r\n        }\r\n        user = UserContractStruct({\r\n            borrowerId: _borrowerId,\r\n            lenderId: _lenderId\r\n        });\r\n        tenor = dateList.length;\r\n        state = \"WAITING_BORROWER_ACCEPT_MONEY\";\r\n    }\r\n    function getCurrentTenor() public view returns (uint256) {\r\n        for (uint256 i = 0; i < tenor; i++) {\r\n            if (contractList[i].isPaid == false) {\r\n                return i;\r\n            }\r\n        }\r\n        return 999;\r\n    }\r\n    function setEvidenceStamp(string memory _evidence) public {\r\n        uint256 current = getCurrentTenor();\r\n        if (\r\n            current <= tenor &&\r\n            (keccak256(abi.encodePacked(state)) !=\r\n                keccak256(\"SUCCESS_LENDING\") ||\r\n                keccak256(abi.encodePacked(state)) !=\r\n                keccak256(\"BORROWER_NOT_ACCEPT\") ||\r\n                keccak256(abi.encodePacked(state)) != keccak256(\"REJECTED\"))\r\n        ) {\r\n            state = \"LENDING\";\r\n            contractList[current].evidence = _evidence;\r\n            contractList[current].isPaid = true;\r\n        } else {\r\n            state = \"SUCCESS_LENDING\";\r\n        }\r\n    }\r\n    function startLending() public {\r\n        state = \"LENDING\";\r\n    }\r\n\r\n    function checkOvertimeLending(uint256 _currentTime)\r\n        public\r\n        returns (string memory)\r\n    {\r\n        uint256 current = getCurrentTenor();\r\n        if (\r\n            current == 999 ||\r\n            keccak256(abi.encodePacked(state)) != keccak256(\"LENDING\") ||\r\n            keccak256(abi.encodePacked(state)) != keccak256(\"LENDING_LATE\")\r\n        ) {\r\n            return state;\r\n        } else if (\r\n            _currentTime >= startTime + 259200 &&\r\n            keccak256(abi.encodePacked(state)) ==\r\n            keccak256(\"WAITING_BORROWER_ACCEPT_MONEY\")\r\n        ) {\r\n            state = \"BORROWER_NOT_ACCEPT\";\r\n        } else if (\r\n            keccak256(abi.encodePacked(state)) == keccak256(\"LENDING\") ||\r\n            keccak256(abi.encodePacked(state)) == keccak256(\"LENDING_LATE\")\r\n        ) {\r\n            if (_currentTime >= contractList[current].date + 604800) {\r\n                state = \"REJECTED\";\r\n            } else if ((_currentTime >= contractList[current].date + 86400)) {\r\n                state = \"LENDING_LATE\";\r\n            }\r\n        }\r\n        return state;\r\n    }\r\n}\r\n",
  "sourcePath": "D:/work/P2P_lending/blockchain/contracts/Lending.sol",
  "compiler": {
    "name": "solc",
    "version": "0.5.0+commit.1d4f565a.Emscripten.clang"
  },
  "schemaVersion": "3.0.1",
  "updatedAt": "2020-03-16T16:32:32.574Z",
  "devdoc": {
    "methods": {}
  },
  "userdoc": {
    "methods": {}
  }
}