{
  "contractName": "Manner",
  "abi": [
    {
      "constant": true,
      "inputs": [],
      "name": "user",
      "outputs": [
        {
          "name": "score",
          "type": "int256"
        },
        {
          "name": "id",
          "type": "int256"
        },
        {
          "name": "firstname",
          "type": "string"
        },
        {
          "name": "lastname",
          "type": "string"
        }
      ],
      "payable": false,
      "stateMutability": "view",
      "type": "function",
      "signature": "0x4f8632ba"
    },
    {
      "inputs": [
        {
          "name": "id",
          "type": "int256"
        },
        {
          "name": "firstname",
          "type": "string"
        },
        {
          "name": "lastname",
          "type": "string"
        }
      ],
      "payable": false,
      "stateMutability": "nonpayable",
      "type": "constructor",
      "signature": "constructor"
    },
    {
      "constant": true,
      "inputs": [],
      "name": "getUser",
      "outputs": [
        {
          "name": "",
          "type": "string"
        },
        {
          "name": "",
          "type": "string"
        },
        {
          "name": "",
          "type": "int256"
        }
      ],
      "payable": false,
      "stateMutability": "view",
      "type": "function",
      "signature": "0x832880e7"
    },
    {
      "constant": false,
      "inputs": [
        {
          "name": "_score",
          "type": "int256"
        },
        {
          "name": "_operation",
          "type": "string"
        }
      ],
      "name": "setScore",
      "outputs": [],
      "payable": false,
      "stateMutability": "nonpayable",
      "type": "function",
      "signature": "0x682fa1b2"
    }
  ],
  "bytecode": "0x608060405234801561001057600080fd5b506040516109013803806109018339810180604052606081101561003357600080fd5b8101908080519060200190929190805164010000000081111561005557600080fd5b8281019050602081018481111561006b57600080fd5b815185600182028301116401000000008211171561008857600080fd5b505092919060200180516401000000008111156100a457600080fd5b828101905060208101848111156100ba57600080fd5b81518560018202830111640100000000821117156100d757600080fd5b505092919050505060646000800181905550816000600201908051906020019061010292919061012f565b50806000600301908051906020019061011c92919061012f565b50826000600101819055505050506101d4565b828054600181600116156101000203166002900490600052602060002090601f016020900481019282601f1061017057805160ff191683800117855561019e565b8280016001018555821561019e579182015b8281111561019d578251825591602001919060010190610182565b5b5090506101ab91906101af565b5090565b6101d191905b808211156101cd5760008160009055506001016101b5565b5090565b90565b61071e806101e36000396000f3fe608060405260043610610057576000357c0100000000000000000000000000000000000000000000000000000000900463ffffffff1680634f8632ba1461005c578063682fa1b214610166578063832880e714610238575b600080fd5b34801561006857600080fd5b5061007161033b565b604051808581526020018481526020018060200180602001838103835285818151815260200191508051906020019080838360005b838110156100c15780820151818401526020810190506100a6565b50505050905090810190601f1680156100ee5780820380516001836020036101000a031916815260200191505b50838103825284818151815260200191508051906020019080838360005b8381101561012757808201518184015260208101905061010c565b50505050905090810190601f1680156101545780820380516001836020036101000a031916815260200191505b50965050505050505060405180910390f35b34801561017257600080fd5b506102366004803603604081101561018957600080fd5b8101908080359060200190929190803590602001906401000000008111156101b057600080fd5b8201836020820111156101c257600080fd5b803590602001918460018302840111640100000000831117156101e457600080fd5b91908080601f016020809104026020016040519081016040528093929190818152602001838380828437600081840152601f19601f820116905080830192505050505050509192919290505050610489565b005b34801561024457600080fd5b5061024d61059c565b604051808060200180602001848152602001838103835286818151815260200191508051906020019080838360005b8381101561029757808201518184015260208101905061027c565b50505050905090810190601f1680156102c45780820380516001836020036101000a031916815260200191505b50838103825285818151815260200191508051906020019080838360005b838110156102fd5780820151818401526020810190506102e2565b50505050905090810190601f16801561032a5780820380516001836020036101000a031916815260200191505b509550505050505060405180910390f35b6000806000015490806001015490806002018054600181600116156101000203166002900480601f0160208091040260200160405190810160405280929190818152602001828054600181600116156101000203166002900480156103e15780601f106103b6576101008083540402835291602001916103e1565b820191906000526020600020905b8154815290600101906020018083116103c457829003601f168201915b505050505090806003018054600181600116156101000203166002900480601f01602080910402602001604051908101604052809291908181526020018280546001816001161561010002031660029004801561047f5780601f106104545761010080835404028352916020019161047f565b820191906000526020600020905b81548152906001019060200180831161046257829003601f168201915b5050505050905084565b60405180807f494e43524541534500000000000000000000000000000000000000000000000081525060080190506040518091039020816040516020018082805190602001908083835b6020831015156104f857805182526020820191506020810190506020830392506104d3565b6001836020036101000a03801982511681845116808217855250505050505090500191505060405160208183030381529060405280519060200120141561055057816000800160008282540192505081905550610563565b8160008001600082825403925050819055505b60646000800154131561057f5760646000800181905550610598565b60008060000154121561059757600080600001819055505b5b5050565b60608060008060020160006003016000800154828054600181600116156101000203166002900480601f0160208091040260200160405190810160405280929190818152602001828054600181600116156101000203166002900480156106445780601f1061061957610100808354040283529160200191610644565b820191906000526020600020905b81548152906001019060200180831161062757829003601f168201915b50505050509250818054600181600116156101000203166002900480601f0160208091040260200160405190810160405280929190818152602001828054600181600116156101000203166002900480156106e05780601f106106b5576101008083540402835291602001916106e0565b820191906000526020600020905b8154815290600101906020018083116106c357829003601f168201915b5050505050915092509250925090919256fea165627a7a7230582060efd89f234cc791feb6c0857b72f30077f3557070b260a50312ef1f898101bb0029",
  "source": "pragma solidity >=0.4.25 <0.7.0;\r\n// pragma experimental ABIEncoderV2;\r\ncontract Manner {\r\n    struct User {\r\n        int256 score;\r\n        int256 id;\r\n        string firstname;\r\n        string lastname;\r\n    }\r\n    User public user;\r\n    constructor(int256 id, string memory firstname, string memory lastname)\r\n        public\r\n    {\r\n        user.score = 100;\r\n        user.firstname = firstname;\r\n        user.lastname = lastname;\r\n        user.id = id;\r\n    }\r\n    function getUser()\r\n        public\r\n        view\r\n        returns (string memory, string memory, int256)\r\n    {\r\n        return (user.firstname, user.lastname, user.score);\r\n    }\r\n    function setScore(int256 _score, string memory _operation) public {\r\n        if (keccak256(abi.encodePacked(_operation)) == keccak256(\"INCREASE\")) {\r\n            user.score += _score;\r\n        } else {\r\n            user.score -= _score;\r\n        }\r\n\r\n        if (user.score > 100) {\r\n            user.score = 100;\r\n        } else if (user.score < 0) {\r\n            user.score = 0;\r\n        }\r\n    }\r\n\r\n}\r\n",
  "sourcePath": "D:/work/P2P_lending/blockchain/contracts/Manner.sol",
  "compiler": {
    "name": "solc",
    "version": "0.5.0+commit.1d4f565a.Emscripten.clang"
  },
  "schemaVersion": "3.0.1",
  "updatedAt": "2020-03-12T12:07:55.025Z",
  "devdoc": {
    "methods": {}
  },
  "userdoc": {
    "methods": {}
  }
}